{
  "_format": "hh-sol-artifact-1",
  "contractName": "SimpleSwap",
  "sourceName": "contracts/SimpleSwap.sol",
  "abi": [
    {
      "inputs": [],
      "stateMutability": "nonpayable",
      "type": "constructor"
    },
    {
      "inputs": [
        {
          "internalType": "address",
          "name": "spender",
          "type": "address"
        },
        {
          "internalType": "uint256",
          "name": "allowance",
          "type": "uint256"
        },
        {
          "internalType": "uint256",
          "name": "needed",
          "type": "uint256"
        }
      ],
      "name": "ERC20InsufficientAllowance",
      "type": "error"
    },
    {
      "inputs": [
        {
          "internalType": "address",
          "name": "sender",
          "type": "address"
        },
        {
          "internalType": "uint256",
          "name": "balance",
          "type": "uint256"
        },
        {
          "internalType": "uint256",
          "name": "needed",
          "type": "uint256"
        }
      ],
      "name": "ERC20InsufficientBalance",
      "type": "error"
    },
    {
      "inputs": [
        {
          "internalType": "address",
          "name": "approver",
          "type": "address"
        }
      ],
      "name": "ERC20InvalidApprover",
      "type": "error"
    },
    {
      "inputs": [
        {
          "internalType": "address",
          "name": "receiver",
          "type": "address"
        }
      ],
      "name": "ERC20InvalidReceiver",
      "type": "error"
    },
    {
      "inputs": [
        {
          "internalType": "address",
          "name": "sender",
          "type": "address"
        }
      ],
      "name": "ERC20InvalidSender",
      "type": "error"
    },
    {
      "inputs": [
        {
          "internalType": "address",
          "name": "spender",
          "type": "address"
        }
      ],
      "name": "ERC20InvalidSpender",
      "type": "error"
    },
    {
      "anonymous": false,
      "inputs": [
        {
          "indexed": true,
          "internalType": "address",
          "name": "owner",
          "type": "address"
        },
        {
          "indexed": true,
          "internalType": "address",
          "name": "spender",
          "type": "address"
        },
        {
          "indexed": false,
          "internalType": "uint256",
          "name": "value",
          "type": "uint256"
        }
      ],
      "name": "Approval",
      "type": "event"
    },
    {
      "anonymous": false,
      "inputs": [
        {
          "indexed": true,
          "internalType": "address",
          "name": "from",
          "type": "address"
        },
        {
          "indexed": true,
          "internalType": "address",
          "name": "to",
          "type": "address"
        },
        {
          "indexed": false,
          "internalType": "uint256",
          "name": "value",
          "type": "uint256"
        }
      ],
      "name": "Transfer",
      "type": "event"
    },
    {
      "inputs": [
        {
          "internalType": "address",
          "name": "tokenA",
          "type": "address"
        },
        {
          "internalType": "address",
          "name": "tokenB",
          "type": "address"
        },
        {
          "internalType": "uint256",
          "name": "amountADesired",
          "type": "uint256"
        },
        {
          "internalType": "uint256",
          "name": "amountBDesired",
          "type": "uint256"
        },
        {
          "internalType": "uint256",
          "name": "amountAMin",
          "type": "uint256"
        },
        {
          "internalType": "uint256",
          "name": "amountBMin",
          "type": "uint256"
        },
        {
          "internalType": "address",
          "name": "to",
          "type": "address"
        },
        {
          "internalType": "uint256",
          "name": "deadline",
          "type": "uint256"
        }
      ],
      "name": "addLiquidity",
      "outputs": [
        {
          "internalType": "uint256",
          "name": "amountASent",
          "type": "uint256"
        },
        {
          "internalType": "uint256",
          "name": "amountBSent",
          "type": "uint256"
        },
        {
          "internalType": "uint256",
          "name": "liquidity",
          "type": "uint256"
        }
      ],
      "stateMutability": "nonpayable",
      "type": "function"
    },
    {
      "inputs": [
        {
          "internalType": "address",
          "name": "owner",
          "type": "address"
        },
        {
          "internalType": "address",
          "name": "spender",
          "type": "address"
        }
      ],
      "name": "allowance",
      "outputs": [
        {
          "internalType": "uint256",
          "name": "",
          "type": "uint256"
        }
      ],
      "stateMutability": "view",
      "type": "function"
    },
    {
      "inputs": [
        {
          "internalType": "address",
          "name": "spender",
          "type": "address"
        },
        {
          "internalType": "uint256",
          "name": "value",
          "type": "uint256"
        }
      ],
      "name": "approve",
      "outputs": [
        {
          "internalType": "bool",
          "name": "",
          "type": "bool"
        }
      ],
      "stateMutability": "nonpayable",
      "type": "function"
    },
    {
      "inputs": [
        {
          "internalType": "address",
          "name": "account",
          "type": "address"
        }
      ],
      "name": "balanceOf",
      "outputs": [
        {
          "internalType": "uint256",
          "name": "",
          "type": "uint256"
        }
      ],
      "stateMutability": "view",
      "type": "function"
    },
    {
      "inputs": [],
      "name": "decimals",
      "outputs": [
        {
          "internalType": "uint8",
          "name": "",
          "type": "uint8"
        }
      ],
      "stateMutability": "view",
      "type": "function"
    },
    {
      "inputs": [
        {
          "internalType": "uint256",
          "name": "amountIn",
          "type": "uint256"
        },
        {
          "internalType": "uint256",
          "name": "reserveIn",
          "type": "uint256"
        },
        {
          "internalType": "uint256",
          "name": "reserveOut",
          "type": "uint256"
        }
      ],
      "name": "getAmountOut",
      "outputs": [
        {
          "internalType": "uint256",
          "name": "amountOut",
          "type": "uint256"
        }
      ],
      "stateMutability": "pure",
      "type": "function"
    },
    {
      "inputs": [
        {
          "internalType": "address",
          "name": "tokenA",
          "type": "address"
        },
        {
          "internalType": "address",
          "name": "tokenB",
          "type": "address"
        }
      ],
      "name": "getPrice",
      "outputs": [
        {
          "internalType": "uint256",
          "name": "price",
          "type": "uint256"
        }
      ],
      "stateMutability": "view",
      "type": "function"
    },
    {
      "inputs": [],
      "name": "name",
      "outputs": [
        {
          "internalType": "string",
          "name": "",
          "type": "string"
        }
      ],
      "stateMutability": "view",
      "type": "function"
    },
    {
      "inputs": [
        {
          "internalType": "bytes32",
          "name": "",
          "type": "bytes32"
        }
      ],
      "name": "pairPools",
      "outputs": [
        {
          "internalType": "uint256",
          "name": "reserveA",
          "type": "uint256"
        },
        {
          "internalType": "uint256",
          "name": "reserveB",
          "type": "uint256"
        },
        {
          "internalType": "uint256",
          "name": "totalLiquidity",
          "type": "uint256"
        }
      ],
      "stateMutability": "view",
      "type": "function"
    },
    {
      "inputs": [
        {
          "internalType": "address",
          "name": "tokenA",
          "type": "address"
        },
        {
          "internalType": "address",
          "name": "tokenB",
          "type": "address"
        },
        {
          "internalType": "uint256",
          "name": "liquidity",
          "type": "uint256"
        },
        {
          "internalType": "uint256",
          "name": "amountAMin",
          "type": "uint256"
        },
        {
          "internalType": "uint256",
          "name": "amountBMin",
          "type": "uint256"
        },
        {
          "internalType": "address",
          "name": "to",
          "type": "address"
        },
        {
          "internalType": "uint256",
          "name": "deadline",
          "type": "uint256"
        }
      ],
      "name": "removeLiquidity",
      "outputs": [
        {
          "internalType": "uint256",
          "name": "amountASent",
          "type": "uint256"
        },
        {
          "internalType": "uint256",
          "name": "amountBSent",
          "type": "uint256"
        }
      ],
      "stateMutability": "nonpayable",
      "type": "function"
    },
    {
      "inputs": [
        {
          "internalType": "uint256",
          "name": "amountIn",
          "type": "uint256"
        },
        {
          "internalType": "uint256",
          "name": "amountOutMin",
          "type": "uint256"
        },
        {
          "internalType": "address[]",
          "name": "path",
          "type": "address[]"
        },
        {
          "internalType": "address",
          "name": "to",
          "type": "address"
        },
        {
          "internalType": "uint256",
          "name": "deadline",
          "type": "uint256"
        }
      ],
      "name": "swapExactTokensForTokens",
      "outputs": [],
      "stateMutability": "nonpayable",
      "type": "function"
    },
    {
      "inputs": [],
      "name": "symbol",
      "outputs": [
        {
          "internalType": "string",
          "name": "",
          "type": "string"
        }
      ],
      "stateMutability": "view",
      "type": "function"
    },
    {
      "inputs": [],
      "name": "totalSupply",
      "outputs": [
        {
          "internalType": "uint256",
          "name": "",
          "type": "uint256"
        }
      ],
      "stateMutability": "view",
      "type": "function"
    },
    {
      "inputs": [
        {
          "internalType": "address",
          "name": "to",
          "type": "address"
        },
        {
          "internalType": "uint256",
          "name": "value",
          "type": "uint256"
        }
      ],
      "name": "transfer",
      "outputs": [
        {
          "internalType": "bool",
          "name": "",
          "type": "bool"
        }
      ],
      "stateMutability": "nonpayable",
      "type": "function"
    },
    {
      "inputs": [
        {
          "internalType": "address",
          "name": "from",
          "type": "address"
        },
        {
          "internalType": "address",
          "name": "to",
          "type": "address"
        },
        {
          "internalType": "uint256",
          "name": "value",
          "type": "uint256"
        }
      ],
      "name": "transferFrom",
      "outputs": [
        {
          "internalType": "bool",
          "name": "",
          "type": "bool"
        }
      ],
      "stateMutability": "nonpayable",
      "type": "function"
    }
  ],
  "bytecode": "0x608060405234801561001057600080fd5b506040518060400160405280601081526020017f506f6f6c20536861726520546f6b656e000000000000000000000000000000008152506040518060400160405280600381526020017f5053540000000000000000000000000000000000000000000000000000000000815250816003908161008c9190610311565b50806004908161009c9190610311565b5050506100b96776b9ee27db3974a360c01b6100be60201b60201c565b6103e3565b50565b600081519050919050565b7f4e487b7100000000000000000000000000000000000000000000000000000000600052604160045260246000fd5b7f4e487b7100000000000000000000000000000000000000000000000000000000600052602260045260246000fd5b6000600282049050600182168061014257607f821691505b602082108103610155576101546100fb565b5b50919050565b60008190508160005260206000209050919050565b60006020601f8301049050919050565b600082821b905092915050565b6000600883026101bd7fffffffffffffffffffffffffffffffffffffffffffffffffffffffffffffffff82610180565b6101c78683610180565b95508019841693508086168417925050509392505050565b6000819050919050565b6000819050919050565b600061020e610209610204846101df565b6101e9565b6101df565b9050919050565b6000819050919050565b610228836101f3565b61023c61023482610215565b84845461018d565b825550505050565b600090565b610251610244565b61025c81848461021f565b505050565b5b8181101561028057610275600082610249565b600181019050610262565b5050565b601f8211156102c5576102968161015b565b61029f84610170565b810160208510156102ae578190505b6102c26102ba85610170565b830182610261565b50505b505050565b600082821c905092915050565b60006102e8600019846008026102ca565b1980831691505092915050565b600061030183836102d7565b9150826002028217905092915050565b61031a826100c1565b67ffffffffffffffff811115610333576103326100cc565b5b61033d825461012a565b610348828285610284565b600060209050601f83116001811461037b5760008415610369578287015190505b61037385826102f5565b8655506103db565b601f1984166103898661015b565b60005b828110156103b15784890151825560018201915060208501945060208101905061038c565b868310156103ce57848901516103ca601f8916826102d7565b8355505b6001600288020188555050505b505050505050565b613366806103f26000396000f3fe608060405234801561001057600080fd5b50600436106100f55760003560e01c806338ed173911610097578063ac41865a11610066578063ac41865a146102b0578063baa2abde146102e0578063dd62ed3e14610311578063e8e3370014610341576100f5565b806338ed17391461021657806370a082311461023257806395d89b4114610262578063a9059cbb14610280576100f5565b806318160ddd116100d357806318160ddd1461017857806323b872dd14610196578063313ce567146101c65780633268c88c146101e4576100f5565b8063054d50d4146100fa57806306fdde031461012a578063095ea7b314610148575b600080fd5b610114600480360381019061010f9190612568565b610373565b60405161012191906125ca565b60405180910390f35b610132610473565b60405161013f9190612675565b60405180910390f35b610162600480360381019061015d91906126f5565b610505565b60405161016f9190612750565b60405180910390f35b610180610528565b60405161018d91906125ca565b60405180910390f35b6101b060048036038101906101ab919061276b565b610532565b6040516101bd9190612750565b60405180910390f35b6101ce610561565b6040516101db91906127da565b60405180910390f35b6101fe60048036038101906101f9919061282b565b61056a565b60405161020d93929190612858565b60405180910390f35b610230600480360381019061022b91906128f4565b610594565b005b61024c6004803603810190610247919061298e565b610b70565b60405161025991906125ca565b60405180910390f35b61026a610bb8565b6040516102779190612675565b60405180910390f35b61029a600480360381019061029591906126f5565b610c4a565b6040516102a79190612750565b60405180910390f35b6102ca60048036038101906102c591906129bb565b610c6d565b6040516102d791906125ca565b60405180910390f35b6102fa60048036038101906102f591906129fb565b610de4565b604051610308929190612a9d565b60405180910390f35b61032b600480360381019061032691906129bb565b611371565b60405161033891906125ca565b60405180910390f35b61035b60048036038101906103569190612ac6565b6113f8565b60405161036a93929190612858565b60405180910390f35b60006103896712e7ceddbe1e30eb60c01b611b82565b61039d67dc4de8d22a4113be60c01b611b82565b6103b167eb13fc9e6b48442760c01b611b82565b6103c567068682245ec81fc160c01b611b82565b6000841180156103d55750600083115b80156103e15750600082115b610420576040517f08c379a000000000000000000000000000000000000000000000000000000000815260040161041790612bc8565b60405180910390fd5b610434679f20ddffdcd5f4c260c01b611b82565b61044867f4c77c5ef99a942e60c01b611b82565b83836104549190612c17565b82856104609190612c4b565b61046a9190612cbc565b90509392505050565b60606003805461048290612d1c565b80601f01602080910402602001604051908101604052809291908181526020018280546104ae90612d1c565b80156104fb5780601f106104d0576101008083540402835291602001916104fb565b820191906000526020600020905b8154815290600101906020018083116104de57829003601f168201915b5050505050905090565b600080610510611b85565b905061051d818585611b8d565b600191505092915050565b6000600254905090565b60008061053d611b85565b905061054a858285611b9f565b610555858585611c34565b60019150509392505050565b60006012905090565b60056020528060005260406000206000915090508060000154908060010154908060020154905083565b6105a86787247888f810901f60c01b611b82565b6105bc678d336b3540f91bcd60c01b611b82565b6105d0678774abdf49249fe860c01b611b82565b6105e46777a2c18c44d00bdd60c01b611b82565b80421115610627576040517f08c379a000000000000000000000000000000000000000000000000000000000815260040161061e90612d99565b60405180910390fd5b61063b67a5b0b22dd00b7cd160c01b611b82565b61064f677234b331e7f1257d60c01b611b82565b6106636750e56eca4b04b46b60c01b611b82565b610677672194c1c7cd74b3cc60c01b611b82565b60028484905014801561068a5750600086115b6106c9576040517f08c379a00000000000000000000000000000000000000000000000000000000081526004016106c090612e05565b60405180910390fd5b6106dd67ddb41f208a4be82a60c01b611b82565b6106f167a496f8e1e9a930cd60c01b611b82565b61070567d784e2567dcf285860c01b611b82565b60006107618585600081811061071e5761071d612e25565b5b9050602002016020810190610733919061298e565b8686600181811061074757610746612e25565b5b905060200201602081019061075c919061298e565b611d28565b9050610777678c530c16d819a94860c01b611b82565b61078b6769b7a615bdf93e0560c01b611b82565b60006005600083815260200190815260200160002090506107b6673e22efd14e301d1960c01b611b82565b6107ca67083e894261b6d85860c01b611b82565b6107de6732ba9fff0953fa6760c01b611b82565b6000816002015411610825576040517f08c379a000000000000000000000000000000000000000000000000000000000815260040161081c90612ea0565b60405180910390fd5b61083967116e94d34c31514660c01b611b82565b61084d6756d9bdf9065f57be60c01b611b82565b610861676381856b2058e56b60c01b611b82565b60008160000154905061087e67d25b845d9129584160c01b611b82565b6108926742169c68f52b43aa60c01b611b82565b6000826001015490506108af672f9673e983acb2f260c01b611b82565b6108c3676a5f3d7d6facca6c60c01b611b82565b60006108d08b8484610373565b90506108e667aa0e7876118c90a460c01b611b82565b6108fa67285bc9a7caf17f6b60c01b611b82565b61090e6783850e503e573d2160c01b611b82565b89811015610951576040517f08c379a000000000000000000000000000000000000000000000000000000000815260040161094890612f0c565b60405180910390fd5b6109656796b071ad2ba3caa160c01b611b82565b6109796726c21dd307b88d9760c01b611b82565b61098d67161138df0a78cc5060c01b611b82565b888860008181106109a1576109a0612e25565b5b90506020020160208101906109b6919061298e565b73ffffffffffffffffffffffffffffffffffffffff166323b872dd33308e6040518463ffffffff1660e01b81526004016109f293929190612f3b565b6020604051808303816000875af1158015610a11573d6000803e3d6000fd5b505050506040513d601f19601f82011682018060405250810190610a359190612f9e565b50610a4a67ced5ad635078084a60c01b611b82565b610a5e670963581be32dd9f360c01b611b82565b88886001818110610a7257610a71612e25565b5b9050602002016020810190610a87919061298e565b73ffffffffffffffffffffffffffffffffffffffff1663a9059cbb88836040518363ffffffff1660e01b8152600401610ac1929190612fcb565b6020604051808303816000875af1158015610ae0573d6000803e3d6000fd5b505050506040513d601f19601f82011682018060405250810190610b049190612f9e565b50610b1967f4a7f25a64620b0d60c01b611b82565b8a846000016000828254610b2d9190612c17565b92505081905550610b48671aee1200537b6deb60c01b611b82565b80846001016000828254610b5c9190612ff4565b925050819055505050505050505050505050565b60008060008373ffffffffffffffffffffffffffffffffffffffff1673ffffffffffffffffffffffffffffffffffffffff168152602001908152602001600020549050919050565b606060048054610bc790612d1c565b80601f0160208091040260200160405190810160405280929190818152602001828054610bf390612d1c565b8015610c405780601f10610c1557610100808354040283529160200191610c40565b820191906000526020600020905b815481529060010190602001808311610c2357829003601f168201915b5050505050905090565b600080610c55611b85565b9050610c62818585611c34565b600191505092915050565b6000610c83671951e8055b95a7ea60c01b611b82565b610c97673bf4c314f5ce011860c01b611b82565b610cab672761f92c1750c82560c01b611b82565b6000610cb78484611d28565b9050610ccd677c5aef20203dd47260c01b611b82565b610ce167ab2c9125e91d850b60c01b611b82565b6000600560008381526020019081526020016000209050610d0c676ec3148aee9c42ef60c01b611b82565b610d20673e8d6ccab534cf0660c01b611b82565b610d34676ad602e8fa2344c760c01b611b82565b60008160000154118015610d4c575060008160010154115b610d8b576040517f08c379a0000000000000000000000000000000000000000000000000000000008152600401610d829061309a565b60405180910390fd5b610d9f67d746d9ecdd55756560c01b611b82565b610db36715144522463c022460c01b611b82565b8060000154670de0b6b3a76400008260010154610dd09190612c4b565b610dda9190612cbc565b9250505092915050565b600080610dfb677906149a051f2b3960c01b611b82565b610e0f676006e3062a03a0b860c01b611b82565b610e2367513197441a1530a660c01b611b82565b610e376725785a67556a974b60c01b611b82565b82421115610e7a576040517f08c379a0000000000000000000000000000000000000000000000000000000008152600401610e7190612d99565b60405180910390fd5b610e8e67550cc05697bc6dde60c01b611b82565b610ea267725a04acae1d310060c01b611b82565b610eb667aa2c42b12a2cafb760c01b611b82565b610eca676d9e6679f28af32d60c01b611b82565b86610ed433610b70565b1015610f15576040517f08c379a0000000000000000000000000000000000000000000000000000000008152600401610f0c90613106565b60405180910390fd5b610f296767d42312328c301860c01b611b82565b610f3d67b3ee05227a80c83660c01b611b82565b610f51674e035cbcd1bf4e5560c01b611b82565b6000610f5d8a8a611d28565b9050610f7367dfaa979f2673c48a60c01b611b82565b610f8767d07771b515a4cb0b60c01b611b82565b6000600560008381526020019081526020016000209050610fb26759c7298f3f986fcc60c01b611b82565b806002015481600001548a610fc79190612c4b565b610fd19190612cbc565b9350610fe76712f8fc1b7ae6bcee60c01b611b82565b806002015481600101548a610ffc9190612c4b565b6110069190612cbc565b925061101c67fa891c30d354cd0160c01b611b82565b6110306783f75fc73dbf6afb60c01b611b82565b61104467a6fbae2e94e7a03360c01b611b82565b87841015611087576040517f08c379a000000000000000000000000000000000000000000000000000000000815260040161107e90613172565b60405180910390fd5b61109b6706eeb6c8a622e19960c01b611b82565b6110af672b01c7b41ed9481d60c01b611b82565b6110c367a2723175ab4d36f060c01b611b82565b6110d767fa2797effd36f01060c01b611b82565b8683101561111a576040517f08c379a0000000000000000000000000000000000000000000000000000000008152600401611111906131de565b60405180910390fd5b61112e677db09071589f784f60c01b611b82565b61114267cce10e098a39ffd860c01b611b82565b838160000160008282546111569190612ff4565b9250508190555061117167f59b51f8a4ee2fff60c01b611b82565b828160010160008282546111859190612ff4565b925050819055506111a067c7e3c712f76af8f460c01b611b82565b888160020160008282546111b49190612ff4565b925050819055506111cf67bf153c7709d4b18360c01b611b82565b6111e3679ca8abb35b84c1a160c01b611b82565b6111ed338a611e3c565b6112016786c570f8b4f316ef60c01b611b82565b61121567364c40c5a1d1b5b360c01b611b82565b8a73ffffffffffffffffffffffffffffffffffffffff1663a9059cbb87866040518363ffffffff1660e01b8152600401611250929190612fcb565b6020604051808303816000875af115801561126f573d6000803e3d6000fd5b505050506040513d601f19601f820116820180604052508101906112939190612f9e565b506112a867b343b71ebfa9ca9360c01b611b82565b6112bc674576b0cf8e3e411360c01b611b82565b8973ffffffffffffffffffffffffffffffffffffffff1663a9059cbb87856040518363ffffffff1660e01b81526004016112f7929190612fcb565b6020604051808303816000875af1158015611316573d6000803e3d6000fd5b505050506040513d601f19601f8201168201806040525081019061133a9190612f9e565b5061134f67937ae16dd882363460c01b611b82565b6113636772b58fb377d432ca60c01b611b82565b505097509795505050505050565b6000600160008473ffffffffffffffffffffffffffffffffffffffff1673ffffffffffffffffffffffffffffffffffffffff16815260200190815260200160002060008373ffffffffffffffffffffffffffffffffffffffff1673ffffffffffffffffffffffffffffffffffffffff16815260200190815260200160002054905092915050565b600080600061141167f01df4a85e97303960c01b611b82565b6114256775bab746aa49b51a60c01b611b82565b6114396788f26b38517104a360c01b611b82565b61144d67c74d81686b66ac9460c01b611b82565b83421115611490576040517f08c379a000000000000000000000000000000000000000000000000000000000815260040161148790612d99565b60405180910390fd5b6114a467de75bac66151406560c01b611b82565b6114b867134cfb5c1c122fb660c01b611b82565b6114cc675e075bb6183732e660c01b611b82565b60006114d88c8c611d28565b90506114ee6735e3550c2880e1d260c01b611b82565b61150267d150448ed24baba860c01b611b82565b600060056000838152602001908152602001600020905061152d6773a8a6b7100ccc7760c01b611b82565b61154167663bdff8cb29f91460c01b611b82565b60008160020154036115be5761156167c69e36a0dc22f19060c01b611b82565b6115756744b5bdd6658b582460c01b611b82565b8a945061158c67b16e3622652f65d760c01b611b82565b8993506115a3672b67f87313939d2d60c01b611b82565b6115b784866115b29190612c4b565b611ebe565b92506118a6565b6115d267e36bf70bc833f7ba60c01b611b82565b6115e667355b7d7240291ff460c01b611b82565b6115fa671ce9351320d82cf760c01b611b82565b6000816000015482600101548d6116119190612c4b565b61161b9190612cbc565b90506116316718a898f136d1126360c01b611b82565b6116456786fef4d0aaccd64e60c01b611b82565b8a81116117265761166067b19ca05991cf740160c01b611b82565b611674679e53a3c548b07b4360c01b611b82565b6116886777c6b89e3ae0f83160c01b611b82565b61169c671884c5ae009b26e160c01b611b82565b888110156116df576040517f08c379a00000000000000000000000000000000000000000000000000000000081526004016116d6906131de565b60405180910390fd5b6116f367e4c92268988a946860c01b611b82565b611707675c5d7aed01b9bbb760c01b611b82565b8b955061171e676538dce836c0f3e560c01b611b82565b809450611848565b61173a676d022238bcc15fbd60c01b611b82565b61174e672575601d1f989a2e60c01b611b82565b61176267692d47e8cb361af860c01b611b82565b6000826001015483600001548d6117799190612c4b565b6117839190612cbc565b9050611799672ef3a09fde7bf17e60c01b611b82565b6117ad6792d2d0ecec3afd1f60c01b611b82565b6117c167c8316fba0c200b3060c01b611b82565b8a811015611804576040517f08c379a00000000000000000000000000000000000000000000000000000000081526004016117fb90613172565b60405180910390fd5b611818674567a6c10451e78160c01b611b82565b61182c67eba028b3b68b193460c01b611b82565b80965061184367ef7bdb879eb61f3660c01b611b82565b8b9550505b61185c67f503fa34a4fb63b160c01b611b82565b6118a282600001548360020154886118749190612c4b565b61187e9190612cbc565b83600101548460020154886118939190612c4b565b61189d9190612cbc565b61205b565b9350505b6118ba67bf1ec8d66cdc09cc60c01b611b82565b6118ce67455276f83a84358360c01b611b82565b6118e2670577a6dac4e6319c60c01b611b82565b60008311611925576040517f08c379a000000000000000000000000000000000000000000000000000000000815260040161191c9061324a565b60405180910390fd5b61193967297cd6695ead5ba160c01b611b82565b61194d67d438f14132c96e9860c01b611b82565b6119616707094a006819954460c01b611b82565b8c73ffffffffffffffffffffffffffffffffffffffff166323b872dd3330886040518463ffffffff1660e01b815260040161199e93929190612f3b565b6020604051808303816000875af11580156119bd573d6000803e3d6000fd5b505050506040513d601f19601f820116820180604052508101906119e19190612f9e565b506119f6676c71633c56662e0360c01b611b82565b611a0a67c25db0057084741d60c01b611b82565b8b73ffffffffffffffffffffffffffffffffffffffff166323b872dd3330876040518463ffffffff1660e01b8152600401611a4793929190612f3b565b6020604051808303816000875af1158015611a66573d6000803e3d6000fd5b505050506040513d601f19601f82011682018060405250810190611a8a9190612f9e565b50611a9f67d55438322a2cf53b60c01b611b82565b84816000016000828254611ab39190612c17565b92505081905550611ace67179e2c8f4da2a7e760c01b611b82565b83816001016000828254611ae29190612c17565b92505081905550611afd673d0b5e67d1de542260c01b611b82565b82816002016000828254611b119190612c17565b92505081905550611b2c67a74a40c646c6096f60c01b611b82565b611b40674de1b98ac7d0f4f660c01b611b82565b611b4a8784612072565b611b5e6731af0aa1b01dd14f60c01b611b82565b611b726794504b8fd2e4196960c01b611b82565b5050985098509895505050505050565b50565b600033905090565b611b9a83838360016120f4565b505050565b6000611bab8484611371565b90507fffffffffffffffffffffffffffffffffffffffffffffffffffffffffffffffff811015611c2e5781811015611c1e578281836040517ffb8f41b2000000000000000000000000000000000000000000000000000000008152600401611c159392919061326a565b60405180910390fd5b611c2d848484840360006120f4565b5b50505050565b600073ffffffffffffffffffffffffffffffffffffffff168373ffffffffffffffffffffffffffffffffffffffff1603611ca65760006040517f96c6fd1e000000000000000000000000000000000000000000000000000000008152600401611c9d91906132a1565b60405180910390fd5b600073ffffffffffffffffffffffffffffffffffffffff168273ffffffffffffffffffffffffffffffffffffffff1603611d185760006040517fec442f05000000000000000000000000000000000000000000000000000000008152600401611d0f91906132a1565b60405180910390fd5b611d238383836122cb565b505050565b6000611d3e67cf5c84d15a4a6f2260c01b611b82565b611d526779e985c38fe0836f60c01b611b82565b611d666725d877769b148de560c01b611b82565b6000808373ffffffffffffffffffffffffffffffffffffffff168573ffffffffffffffffffffffffffffffffffffffff161080611db35750611db2673f67740998e134e360c01b6124f0565b5b8015611dcf5750611dce675573103052ed58fd60c01b6124f7565b5b611dda578385611ddd565b84845b91509150611df56794cdd39c17b313db60c01b611b82565b611e09674a08f61386cd1fd860c01b611b82565b8181604051602001611e1c929190613304565b604051602081830303815290604052805190602001209250505092915050565b600073ffffffffffffffffffffffffffffffffffffffff168273ffffffffffffffffffffffffffffffffffffffff1603611eae5760006040517f96c6fd1e000000000000000000000000000000000000000000000000000000008152600401611ea591906132a1565b60405180910390fd5b611eba826000836122cb565b5050565b600060018211611ed057819050612056565b60008290506000600190507001000000000000000000000000000000008210611f0257608082901c9150604081901b90505b680100000000000000008210611f2157604082901c9150602081901b90505b6401000000008210611f3c57602082901c9150601081901b90505b620100008210611f5557601082901c9150600881901b90505b6101008210611f6d57600882901c9150600481901b90505b60108210611f8457600482901c9150600281901b90505b60048210611f9457600181901b90505b600181600302901c90506001818581611fb057611faf612c8d565b5b048201901c90506001818581611fc957611fc8612c8d565b5b048201901c90506001818581611fe257611fe1612c8d565b5b048201901c90506001818581611ffb57611ffa612c8d565b5b048201901c9050600181858161201457612013612c8d565b5b048201901c9050600181858161202d5761202c612c8d565b5b048201901c905061204f81858161204757612046612c8d565b5b048211612502565b8103925050505b919050565b600061206a828410848461250e565b905092915050565b600073ffffffffffffffffffffffffffffffffffffffff168273ffffffffffffffffffffffffffffffffffffffff16036120e45760006040517fec442f050000000000000000000000000000000000000000000000000000000081526004016120db91906132a1565b60405180910390fd5b6120f0600083836122cb565b5050565b600073ffffffffffffffffffffffffffffffffffffffff168473ffffffffffffffffffffffffffffffffffffffff16036121665760006040517fe602df0500000000000000000000000000000000000000000000000000000000815260040161215d91906132a1565b60405180910390fd5b600073ffffffffffffffffffffffffffffffffffffffff168373ffffffffffffffffffffffffffffffffffffffff16036121d85760006040517f94280d620000000000000000000000000000000000000000000000000000000081526004016121cf91906132a1565b60405180910390fd5b81600160008673ffffffffffffffffffffffffffffffffffffffff1673ffffffffffffffffffffffffffffffffffffffff16815260200190815260200160002060008573ffffffffffffffffffffffffffffffffffffffff1673ffffffffffffffffffffffffffffffffffffffff1681526020019081526020016000208190555080156122c5578273ffffffffffffffffffffffffffffffffffffffff168473ffffffffffffffffffffffffffffffffffffffff167f8c5be1e5ebec7d5bd14f71427d1e84f3dd0314c0f7b2291e5b200ac8c7c3b925846040516122bc91906125ca565b60405180910390a35b50505050565b600073ffffffffffffffffffffffffffffffffffffffff168373ffffffffffffffffffffffffffffffffffffffff160361231d5780600260008282546123119190612c17565b925050819055506123f0565b60008060008573ffffffffffffffffffffffffffffffffffffffff1673ffffffffffffffffffffffffffffffffffffffff168152602001908152602001600020549050818110156123a9578381836040517fe450d38c0000000000000000000000000000000000000000000000000000000081526004016123a09392919061326a565b60405180910390fd5b8181036000808673ffffffffffffffffffffffffffffffffffffffff1673ffffffffffffffffffffffffffffffffffffffff16815260200190815260200160002081905550505b600073ffffffffffffffffffffffffffffffffffffffff168273ffffffffffffffffffffffffffffffffffffffff16036124395780600260008282540392505081905550612486565b806000808473ffffffffffffffffffffffffffffffffffffffff1673ffffffffffffffffffffffffffffffffffffffff168152602001908152602001600020600082825401925050819055505b8173ffffffffffffffffffffffffffffffffffffffff168373ffffffffffffffffffffffffffffffffffffffff167fddf252ad1be2c89b69c2b068fc378daa952ba7f163c4a11628f55a4df523b3ef836040516124e391906125ca565b60405180910390a3505050565b6000919050565b600060019050919050565b60008115159050919050565b600061251984612502565b82841802821890509392505050565b600080fd5b600080fd5b6000819050919050565b61254581612532565b811461255057600080fd5b50565b6000813590506125628161253c565b92915050565b60008060006060848603121561258157612580612528565b5b600061258f86828701612553565b93505060206125a086828701612553565b92505060406125b186828701612553565b9150509250925092565b6125c481612532565b82525050565b60006020820190506125df60008301846125bb565b92915050565b600081519050919050565b600082825260208201905092915050565b60005b8381101561261f578082015181840152602081019050612604565b60008484015250505050565b6000601f19601f8301169050919050565b6000612647826125e5565b61265181856125f0565b9350612661818560208601612601565b61266a8161262b565b840191505092915050565b6000602082019050818103600083015261268f818461263c565b905092915050565b600073ffffffffffffffffffffffffffffffffffffffff82169050919050565b60006126c282612697565b9050919050565b6126d2816126b7565b81146126dd57600080fd5b50565b6000813590506126ef816126c9565b92915050565b6000806040838503121561270c5761270b612528565b5b600061271a858286016126e0565b925050602061272b85828601612553565b9150509250929050565b60008115159050919050565b61274a81612735565b82525050565b60006020820190506127656000830184612741565b92915050565b60008060006060848603121561278457612783612528565b5b6000612792868287016126e0565b93505060206127a3868287016126e0565b92505060406127b486828701612553565b9150509250925092565b600060ff82169050919050565b6127d4816127be565b82525050565b60006020820190506127ef60008301846127cb565b92915050565b6000819050919050565b612808816127f5565b811461281357600080fd5b50565b600081359050612825816127ff565b92915050565b60006020828403121561284157612840612528565b5b600061284f84828501612816565b91505092915050565b600060608201905061286d60008301866125bb565b61287a60208301856125bb565b61288760408301846125bb565b949350505050565b600080fd5b600080fd5b600080fd5b60008083601f8401126128b4576128b361288f565b5b8235905067ffffffffffffffff8111156128d1576128d0612894565b5b6020830191508360208202830111156128ed576128ec612899565b5b9250929050565b60008060008060008060a0878903121561291157612910612528565b5b600061291f89828a01612553565b965050602061293089828a01612553565b955050604087013567ffffffffffffffff8111156129515761295061252d565b5b61295d89828a0161289e565b9450945050606061297089828a016126e0565b925050608061298189828a01612553565b9150509295509295509295565b6000602082840312156129a4576129a3612528565b5b60006129b2848285016126e0565b91505092915050565b600080604083850312156129d2576129d1612528565b5b60006129e0858286016126e0565b92505060206129f1858286016126e0565b9150509250929050565b600080600080600080600060e0888a031215612a1a57612a19612528565b5b6000612a288a828b016126e0565b9750506020612a398a828b016126e0565b9650506040612a4a8a828b01612553565b9550506060612a5b8a828b01612553565b9450506080612a6c8a828b01612553565b93505060a0612a7d8a828b016126e0565b92505060c0612a8e8a828b01612553565b91505092959891949750929550565b6000604082019050612ab260008301856125bb565b612abf60208301846125bb565b9392505050565b600080600080600080600080610100898b031215612ae757612ae6612528565b5b6000612af58b828c016126e0565b9850506020612b068b828c016126e0565b9750506040612b178b828c01612553565b9650506060612b288b828c01612553565b9550506080612b398b828c01612553565b94505060a0612b4a8b828c01612553565b93505060c0612b5b8b828c016126e0565b92505060e0612b6c8b828c01612553565b9150509295985092959890939650565b7f496e76616c696420696e7075742c2074727920616761696e2e00000000000000600082015250565b6000612bb26019836125f0565b9150612bbd82612b7c565b602082019050919050565b60006020820190508181036000830152612be181612ba5565b9050919050565b7f4e487b7100000000000000000000000000000000000000000000000000000000600052601160045260246000fd5b6000612c2282612532565b9150612c2d83612532565b9250828201905080821115612c4557612c44612be8565b5b92915050565b6000612c5682612532565b9150612c6183612532565b9250828202612c6f81612532565b91508282048414831517612c8657612c85612be8565b5b5092915050565b7f4e487b7100000000000000000000000000000000000000000000000000000000600052601260045260246000fd5b6000612cc782612532565b9150612cd283612532565b925082612ce257612ce1612c8d565b5b828204905092915050565b7f4e487b7100000000000000000000000000000000000000000000000000000000600052602260045260246000fd5b60006002820490506001821680612d3457607f821691505b602082108103612d4757612d46612ced565b5b50919050565b7f5472616e73616374696f6e206578706972656400000000000000000000000000600082015250565b6000612d836013836125f0565b9150612d8e82612d4d565b602082019050919050565b60006020820190508181036000830152612db281612d76565b9050919050565b7f496e76616c696420737761702070617468000000000000000000000000000000600082015250565b6000612def6011836125f0565b9150612dfa82612db9565b602082019050919050565b60006020820190508181036000830152612e1e81612de2565b9050919050565b7f4e487b7100000000000000000000000000000000000000000000000000000000600052603260045260246000fd5b7f4e6f206c697175696469747920617661696c61626c6500000000000000000000600082015250565b6000612e8a6016836125f0565b9150612e9582612e54565b602082019050919050565b60006020820190508181036000830152612eb981612e7d565b9050919050565b7f4f757470757420746f6f206c6f77000000000000000000000000000000000000600082015250565b6000612ef6600e836125f0565b9150612f0182612ec0565b602082019050919050565b60006020820190508181036000830152612f2581612ee9565b9050919050565b612f35816126b7565b82525050565b6000606082019050612f506000830186612f2c565b612f5d6020830185612f2c565b612f6a60408301846125bb565b949350505050565b612f7b81612735565b8114612f8657600080fd5b50565b600081519050612f9881612f72565b92915050565b600060208284031215612fb457612fb3612528565b5b6000612fc284828501612f89565b91505092915050565b6000604082019050612fe06000830185612f2c565b612fed60208301846125bb565b9392505050565b6000612fff82612532565b915061300a83612532565b925082820390508181111561302257613021612be8565b5b92915050565b7f4e6f206c697175696469747920617661696c61626c652c20697473206e6f742060008201527f706f737369626c6520746f2067657420612070726963652e0000000000000000602082015250565b60006130846038836125f0565b915061308f82613028565b604082019050919050565b600060208201905081810360008301526130b381613077565b9050919050565b7f4e6f7420656e6f756768204c5020746f6b656e73000000000000000000000000600082015250565b60006130f06014836125f0565b91506130fb826130ba565b602082019050919050565b6000602082019050818103600083015261311f816130e3565b9050919050565b7f546f6f206d75636820736c697070616765206f6e204100000000000000000000600082015250565b600061315c6016836125f0565b915061316782613126565b602082019050919050565b6000602082019050818103600083015261318b8161314f565b9050919050565b7f546f6f206d75636820736c697070616765206f6e204200000000000000000000600082015250565b60006131c86016836125f0565b91506131d382613192565b602082019050919050565b600060208201905081810360008301526131f7816131bb565b9050919050565b7f5a65726f206c69717569646974792067656e6572617465640000000000000000600082015250565b60006132346018836125f0565b915061323f826131fe565b602082019050919050565b6000602082019050818103600083015261326381613227565b9050919050565b600060608201905061327f6000830186612f2c565b61328c60208301856125bb565b61329960408301846125bb565b949350505050565b60006020820190506132b66000830184612f2c565b92915050565b60008160601b9050919050565b60006132d4826132bc565b9050919050565b60006132e6826132c9565b9050919050565b6132fe6132f9826126b7565b6132db565b82525050565b600061331082856132ed565b60148201915061332082846132ed565b601482019150819050939250505056fea2646970667358221220d45b5ef059038da6df758f2921a4484bab2b0f7dbdbef64d17d69cb8b3c4dd2764736f6c634300081c0033",
  "linkReferences": {},
  "deployedLinkReferences": {}
}