{"contracts/SimpleSwap.sol":{"SimpleSwap":{"abi":[{"inputs":[],"stateMutability":"nonpayable","type":"constructor"},{"inputs":[{"internalType":"address","name":"spender","type":"address"},{"internalType":"uint256","name":"allowance","type":"uint256"},{"internalType":"uint256","name":"needed","type":"uint256"}],"name":"ERC20InsufficientAllowance","type":"error"},{"inputs":[{"internalType":"address","name":"sender","type":"address"},{"internalType":"uint256","name":"balance","type":"uint256"},{"internalType":"uint256","name":"needed","type":"uint256"}],"name":"ERC20InsufficientBalance","type":"error"},{"inputs":[{"internalType":"address","name":"approver","type":"address"}],"name":"ERC20InvalidApprover","type":"error"},{"inputs":[{"internalType":"address","name":"receiver","type":"address"}],"name":"ERC20InvalidReceiver","type":"error"},{"inputs":[{"internalType":"address","name":"sender","type":"address"}],"name":"ERC20InvalidSender","type":"error"},{"inputs":[{"internalType":"address","name":"spender","type":"address"}],"name":"ERC20InvalidSpender","type":"error"},{"anonymous":false,"inputs":[{"indexed":true,"internalType":"address","name":"owner","type":"address"},{"indexed":true,"internalType":"address","name":"spender","type":"address"},{"indexed":false,"internalType":"uint256","name":"value","type":"uint256"}],"name":"Approval","type":"event"},{"anonymous":false,"inputs":[{"indexed":true,"internalType":"address","name":"from","type":"address"},{"indexed":true,"internalType":"address","name":"to","type":"address"},{"indexed":false,"internalType":"uint256","name":"value","type":"uint256"}],"name":"Transfer","type":"event"},{"inputs":[{"internalType":"address","name":"tokenA","type":"address"},{"internalType":"address","name":"tokenB","type":"address"},{"internalType":"uint256","name":"amountADesired","type":"uint256"},{"internalType":"uint256","name":"amountBDesired","type":"uint256"},{"internalType":"uint256","name":"amountAMin","type":"uint256"},{"internalType":"uint256","name":"amountBMin","type":"uint256"},{"internalType":"address","name":"to","type":"address"},{"internalType":"uint256","name":"deadline","type":"uint256"}],"name":"addLiquidity","outputs":[{"internalType":"uint256","name":"amountASent","type":"uint256"},{"internalType":"uint256","name":"amountBSent","type":"uint256"},{"internalType":"uint256","name":"liquidity","type":"uint256"}],"stateMutability":"nonpayable","type":"function"},{"inputs":[{"internalType":"address","name":"owner","type":"address"},{"internalType":"address","name":"spender","type":"address"}],"name":"allowance","outputs":[{"internalType":"uint256","name":"","type":"uint256"}],"stateMutability":"view","type":"function"},{"inputs":[{"internalType":"address","name":"spender","type":"address"},{"internalType":"uint256","name":"value","type":"uint256"}],"name":"approve","outputs":[{"internalType":"bool","name":"","type":"bool"}],"stateMutability":"nonpayable","type":"function"},{"inputs":[{"internalType":"address","name":"account","type":"address"}],"name":"balanceOf","outputs":[{"internalType":"uint256","name":"","type":"uint256"}],"stateMutability":"view","type":"function"},{"inputs":[],"name":"decimals","outputs":[{"internalType":"uint8","name":"","type":"uint8"}],"stateMutability":"view","type":"function"},{"inputs":[{"internalType":"uint256","name":"amountIn","type":"uint256"},{"internalType":"uint256","name":"reserveIn","type":"uint256"},{"internalType":"uint256","name":"reserveOut","type":"uint256"}],"name":"getAmountOut","outputs":[{"internalType":"uint256","name":"amountOut","type":"uint256"}],"stateMutability":"pure","type":"function"},{"inputs":[{"internalType":"address","name":"tokenA","type":"address"},{"internalType":"address","name":"tokenB","type":"address"}],"name":"getPrice","outputs":[{"internalType":"uint256","name":"price","type":"uint256"}],"stateMutability":"view","type":"function"},{"inputs":[],"name":"name","outputs":[{"internalType":"string","name":"","type":"string"}],"stateMutability":"view","type":"function"},{"inputs":[{"internalType":"bytes32","name":"","type":"bytes32"}],"name":"pairPools","outputs":[{"internalType":"uint256","name":"reserveA","type":"uint256"},{"internalType":"uint256","name":"reserveB","type":"uint256"},{"internalType":"uint256","name":"totalLiquidity","type":"uint256"}],"stateMutability":"view","type":"function"},{"inputs":[{"internalType":"address","name":"tokenA","type":"address"},{"internalType":"address","name":"tokenB","type":"address"},{"internalType":"uint256","name":"liquidity","type":"uint256"},{"internalType":"uint256","name":"amountAMin","type":"uint256"},{"internalType":"uint256","name":"amountBMin","type":"uint256"},{"internalType":"address","name":"to","type":"address"},{"internalType":"uint256","name":"deadline","type":"uint256"}],"name":"removeLiquidity","outputs":[{"internalType":"uint256","name":"amountASent","type":"uint256"},{"internalType":"uint256","name":"amountBSent","type":"uint256"}],"stateMutability":"nonpayable","type":"function"},{"inputs":[{"internalType":"uint256","name":"amountIn","type":"uint256"},{"internalType":"uint256","name":"amountOutMin","type":"uint256"},{"internalType":"address[]","name":"path","type":"address[]"},{"internalType":"address","name":"to","type":"address"},{"internalType":"uint256","name":"deadline","type":"uint256"}],"name":"swapExactTokensForTokens","outputs":[],"stateMutability":"nonpayable","type":"function"},{"inputs":[],"name":"symbol","outputs":[{"internalType":"string","name":"","type":"string"}],"stateMutability":"view","type":"function"},{"inputs":[],"name":"totalSupply","outputs":[{"internalType":"uint256","name":"","type":"uint256"}],"stateMutability":"view","type":"function"},{"inputs":[{"internalType":"address","name":"to","type":"address"},{"internalType":"uint256","name":"value","type":"uint256"}],"name":"transfer","outputs":[{"internalType":"bool","name":"","type":"bool"}],"stateMutability":"nonpayable","type":"function"},{"inputs":[{"internalType":"address","name":"from","type":"address"},{"internalType":"address","name":"to","type":"address"},{"internalType":"uint256","name":"value","type":"uint256"}],"name":"transferFrom","outputs":[{"internalType":"bool","name":"","type":"bool"}],"stateMutability":"nonpayable","type":"function"}],"evm":{"bytecode":{"linkReferences":{},"object":"608060405234801561001057600080fd5b506040518060400160405280601081526020017f506f6f6c20536861726520546f6b656e000000000000000000000000000000008152506040518060400160405280600381526020017f5053540000000000000000000000000000000000000000000000000000000000815250816003908161008c9190610311565b50806004908161009c9190610311565b5050506100b96776b9ee27db3974a360c01b6100be60201b60201c565b6103e3565b50565b600081519050919050565b7f4e487b7100000000000000000000000000000000000000000000000000000000600052604160045260246000fd5b7f4e487b7100000000000000000000000000000000000000000000000000000000600052602260045260246000fd5b6000600282049050600182168061014257607f821691505b602082108103610155576101546100fb565b5b50919050565b60008190508160005260206000209050919050565b60006020601f8301049050919050565b600082821b905092915050565b6000600883026101bd7fffffffffffffffffffffffffffffffffffffffffffffffffffffffffffffffff82610180565b6101c78683610180565b95508019841693508086168417925050509392505050565b6000819050919050565b6000819050919050565b600061020e610209610204846101df565b6101e9565b6101df565b9050919050565b6000819050919050565b610228836101f3565b61023c61023482610215565b84845461018d565b825550505050565b600090565b610251610244565b61025c81848461021f565b505050565b5b8181101561028057610275600082610249565b600181019050610262565b5050565b601f8211156102c5576102968161015b565b61029f84610170565b810160208510156102ae578190505b6102c26102ba85610170565b830182610261565b50505b505050565b600082821c905092915050565b60006102e8600019846008026102ca565b1980831691505092915050565b600061030183836102d7565b9150826002028217905092915050565b61031a826100c1565b67ffffffffffffffff811115610333576103326100cc565b5b61033d825461012a565b610348828285610284565b600060209050601f83116001811461037b5760008415610369578287015190505b61037385826102f5565b8655506103db565b601f1984166103898661015b565b60005b828110156103b15784890151825560018201915060208501945060208101905061038c565b868310156103ce57848901516103ca601f8916826102d7565b8355505b6001600288020188555050505b505050505050565b613366806103f26000396000f3fe608060405234801561001057600080fd5b50600436106100f55760003560e01c806338ed173911610097578063ac41865a11610066578063ac41865a146102b0578063baa2abde146102e0578063dd62ed3e14610311578063e8e3370014610341576100f5565b806338ed17391461021657806370a082311461023257806395d89b4114610262578063a9059cbb14610280576100f5565b806318160ddd116100d357806318160ddd1461017857806323b872dd14610196578063313ce567146101c65780633268c88c146101e4576100f5565b8063054d50d4146100fa57806306fdde031461012a578063095ea7b314610148575b600080fd5b610114600480360381019061010f9190612568565b610373565b60405161012191906125ca565b60405180910390f35b610132610473565b60405161013f9190612675565b60405180910390f35b610162600480360381019061015d91906126f5565b610505565b60405161016f9190612750565b60405180910390f35b610180610528565b60405161018d91906125ca565b60405180910390f35b6101b060048036038101906101ab919061276b565b610532565b6040516101bd9190612750565b60405180910390f35b6101ce610561565b6040516101db91906127da565b60405180910390f35b6101fe60048036038101906101f9919061282b565b61056a565b60405161020d93929190612858565b60405180910390f35b610230600480360381019061022b91906128f4565b610594565b005b61024c6004803603810190610247919061298e565b610b70565b60405161025991906125ca565b60405180910390f35b61026a610bb8565b6040516102779190612675565b60405180910390f35b61029a600480360381019061029591906126f5565b610c4a565b6040516102a79190612750565b60405180910390f35b6102ca60048036038101906102c591906129bb565b610c6d565b6040516102d791906125ca565b60405180910390f35b6102fa60048036038101906102f591906129fb565b610de4565b604051610308929190612a9d565b60405180910390f35b61032b600480360381019061032691906129bb565b611371565b60405161033891906125ca565b60405180910390f35b61035b60048036038101906103569190612ac6565b6113f8565b60405161036a93929190612858565b60405180910390f35b60006103896712e7ceddbe1e30eb60c01b611b82565b61039d67dc4de8d22a4113be60c01b611b82565b6103b167eb13fc9e6b48442760c01b611b82565b6103c567068682245ec81fc160c01b611b82565b6000841180156103d55750600083115b80156103e15750600082115b610420576040517f08c379a000000000000000000000000000000000000000000000000000000000815260040161041790612bc8565b60405180910390fd5b610434679f20ddffdcd5f4c260c01b611b82565b61044867f4c77c5ef99a942e60c01b611b82565b83836104549190612c17565b82856104609190612c4b565b61046a9190612cbc565b90509392505050565b60606003805461048290612d1c565b80601f01602080910402602001604051908101604052809291908181526020018280546104ae90612d1c565b80156104fb5780601f106104d0576101008083540402835291602001916104fb565b820191906000526020600020905b8154815290600101906020018083116104de57829003601f168201915b5050505050905090565b600080610510611b85565b905061051d818585611b8d565b600191505092915050565b6000600254905090565b60008061053d611b85565b905061054a858285611b9f565b610555858585611c34565b60019150509392505050565b60006012905090565b60056020528060005260406000206000915090508060000154908060010154908060020154905083565b6105a86787247888f810901f60c01b611b82565b6105bc678d336b3540f91bcd60c01b611b82565b6105d0678774abdf49249fe860c01b611b82565b6105e46777a2c18c44d00bdd60c01b611b82565b80421115610627576040517f08c379a000000000000000000000000000000000000000000000000000000000815260040161061e90612d99565b60405180910390fd5b61063b67a5b0b22dd00b7cd160c01b611b82565b61064f677234b331e7f1257d60c01b611b82565b6106636750e56eca4b04b46b60c01b611b82565b610677672194c1c7cd74b3cc60c01b611b82565b60028484905014801561068a5750600086115b6106c9576040517f08c379a00000000000000000000000000000000000000000000000000000000081526004016106c090612e05565b60405180910390fd5b6106dd67ddb41f208a4be82a60c01b611b82565b6106f167a496f8e1e9a930cd60c01b611b82565b61070567d784e2567dcf285860c01b611b82565b60006107618585600081811061071e5761071d612e25565b5b9050602002016020810190610733919061298e565b8686600181811061074757610746612e25565b5b905060200201602081019061075c919061298e565b611d28565b9050610777678c530c16d819a94860c01b611b82565b61078b6769b7a615bdf93e0560c01b611b82565b60006005600083815260200190815260200160002090506107b6673e22efd14e301d1960c01b611b82565b6107ca67083e894261b6d85860c01b611b82565b6107de6732ba9fff0953fa6760c01b611b82565b6000816002015411610825576040517f08c379a000000000000000000000000000000000000000000000000000000000815260040161081c90612ea0565b60405180910390fd5b61083967116e94d34c31514660c01b611b82565b61084d6756d9bdf9065f57be60c01b611b82565b610861676381856b2058e56b60c01b611b82565b60008160000154905061087e67d25b845d9129584160c01b611b82565b6108926742169c68f52b43aa60c01b611b82565b6000826001015490506108af672f9673e983acb2f260c01b611b82565b6108c3676a5f3d7d6facca6c60c01b611b82565b60006108d08b8484610373565b90506108e667aa0e7876118c90a460c01b611b82565b6108fa67285bc9a7caf17f6b60c01b611b82565b61090e6783850e503e573d2160c01b611b82565b89811015610951576040517f08c379a000000000000000000000000000000000000000000000000000000000815260040161094890612f0c565b60405180910390fd5b6109656796b071ad2ba3caa160c01b611b82565b6109796726c21dd307b88d9760c01b611b82565b61098d67161138df0a78cc5060c01b611b82565b888860008181106109a1576109a0612e25565b5b90506020020160208101906109b6919061298e565b73ffffffffffffffffffffffffffffffffffffffff166323b872dd33308e6040518463ffffffff1660e01b81526004016109f293929190612f3b565b6020604051808303816000875af1158015610a11573d6000803e3d6000fd5b505050506040513d601f19601f82011682018060405250810190610a359190612f9e565b50610a4a67ced5ad635078084a60c01b611b82565b610a5e670963581be32dd9f360c01b611b82565b88886001818110610a7257610a71612e25565b5b9050602002016020810190610a87919061298e565b73ffffffffffffffffffffffffffffffffffffffff1663a9059cbb88836040518363ffffffff1660e01b8152600401610ac1929190612fcb565b6020604051808303816000875af1158015610ae0573d6000803e3d6000fd5b505050506040513d601f19601f82011682018060405250810190610b049190612f9e565b50610b1967f4a7f25a64620b0d60c01b611b82565b8a846000016000828254610b2d9190612c17565b92505081905550610b48671aee1200537b6deb60c01b611b82565b80846001016000828254610b5c9190612ff4565b925050819055505050505050505050505050565b60008060008373ffffffffffffffffffffffffffffffffffffffff1673ffffffffffffffffffffffffffffffffffffffff168152602001908152602001600020549050919050565b606060048054610bc790612d1c565b80601f0160208091040260200160405190810160405280929190818152602001828054610bf390612d1c565b8015610c405780601f10610c1557610100808354040283529160200191610c40565b820191906000526020600020905b815481529060010190602001808311610c2357829003601f168201915b5050505050905090565b600080610c55611b85565b9050610c62818585611c34565b600191505092915050565b6000610c83671951e8055b95a7ea60c01b611b82565b610c97673bf4c314f5ce011860c01b611b82565b610cab672761f92c1750c82560c01b611b82565b6000610cb78484611d28565b9050610ccd677c5aef20203dd47260c01b611b82565b610ce167ab2c9125e91d850b60c01b611b82565b6000600560008381526020019081526020016000209050610d0c676ec3148aee9c42ef60c01b611b82565b610d20673e8d6ccab534cf0660c01b611b82565b610d34676ad602e8fa2344c760c01b611b82565b60008160000154118015610d4c575060008160010154115b610d8b576040517f08c379a0000000000000000000000000000000000000000000000000000000008152600401610d829061309a565b60405180910390fd5b610d9f67d746d9ecdd55756560c01b611b82565b610db36715144522463c022460c01b611b82565b8060000154670de0b6b3a76400008260010154610dd09190612c4b565b610dda9190612cbc565b9250505092915050565b600080610dfb677906149a051f2b3960c01b611b82565b610e0f676006e3062a03a0b860c01b611b82565b610e2367513197441a1530a660c01b611b82565b610e376725785a67556a974b60c01b611b82565b82421115610e7a576040517f08c379a0000000000000000000000000000000000000000000000000000000008152600401610e7190612d99565b60405180910390fd5b610e8e67550cc05697bc6dde60c01b611b82565b610ea267725a04acae1d310060c01b611b82565b610eb667aa2c42b12a2cafb760c01b611b82565b610eca676d9e6679f28af32d60c01b611b82565b86610ed433610b70565b1015610f15576040517f08c379a0000000000000000000000000000000000000000000000000000000008152600401610f0c90613106565b60405180910390fd5b610f296767d42312328c301860c01b611b82565b610f3d67b3ee05227a80c83660c01b611b82565b610f51674e035cbcd1bf4e5560c01b611b82565b6000610f5d8a8a611d28565b9050610f7367dfaa979f2673c48a60c01b611b82565b610f8767d07771b515a4cb0b60c01b611b82565b6000600560008381526020019081526020016000209050610fb26759c7298f3f986fcc60c01b611b82565b806002015481600001548a610fc79190612c4b565b610fd19190612cbc565b9350610fe76712f8fc1b7ae6bcee60c01b611b82565b806002015481600101548a610ffc9190612c4b565b6110069190612cbc565b925061101c67fa891c30d354cd0160c01b611b82565b6110306783f75fc73dbf6afb60c01b611b82565b61104467a6fbae2e94e7a03360c01b611b82565b87841015611087576040517f08c379a000000000000000000000000000000000000000000000000000000000815260040161107e90613172565b60405180910390fd5b61109b6706eeb6c8a622e19960c01b611b82565b6110af672b01c7b41ed9481d60c01b611b82565b6110c367a2723175ab4d36f060c01b611b82565b6110d767fa2797effd36f01060c01b611b82565b8683101561111a576040517f08c379a0000000000000000000000000000000000000000000000000000000008152600401611111906131de565b60405180910390fd5b61112e677db09071589f784f60c01b611b82565b61114267cce10e098a39ffd860c01b611b82565b838160000160008282546111569190612ff4565b9250508190555061117167f59b51f8a4ee2fff60c01b611b82565b828160010160008282546111859190612ff4565b925050819055506111a067c7e3c712f76af8f460c01b611b82565b888160020160008282546111b49190612ff4565b925050819055506111cf67bf153c7709d4b18360c01b611b82565b6111e3679ca8abb35b84c1a160c01b611b82565b6111ed338a611e3c565b6112016786c570f8b4f316ef60c01b611b82565b61121567364c40c5a1d1b5b360c01b611b82565b8a73ffffffffffffffffffffffffffffffffffffffff1663a9059cbb87866040518363ffffffff1660e01b8152600401611250929190612fcb565b6020604051808303816000875af115801561126f573d6000803e3d6000fd5b505050506040513d601f19601f820116820180604052508101906112939190612f9e565b506112a867b343b71ebfa9ca9360c01b611b82565b6112bc674576b0cf8e3e411360c01b611b82565b8973ffffffffffffffffffffffffffffffffffffffff1663a9059cbb87856040518363ffffffff1660e01b81526004016112f7929190612fcb565b6020604051808303816000875af1158015611316573d6000803e3d6000fd5b505050506040513d601f19601f8201168201806040525081019061133a9190612f9e565b5061134f67937ae16dd882363460c01b611b82565b6113636772b58fb377d432ca60c01b611b82565b505097509795505050505050565b6000600160008473ffffffffffffffffffffffffffffffffffffffff1673ffffffffffffffffffffffffffffffffffffffff16815260200190815260200160002060008373ffffffffffffffffffffffffffffffffffffffff1673ffffffffffffffffffffffffffffffffffffffff16815260200190815260200160002054905092915050565b600080600061141167f01df4a85e97303960c01b611b82565b6114256775bab746aa49b51a60c01b611b82565b6114396788f26b38517104a360c01b611b82565b61144d67c74d81686b66ac9460c01b611b82565b83421115611490576040517f08c379a000000000000000000000000000000000000000000000000000000000815260040161148790612d99565b60405180910390fd5b6114a467de75bac66151406560c01b611b82565b6114b867134cfb5c1c122fb660c01b611b82565b6114cc675e075bb6183732e660c01b611b82565b60006114d88c8c611d28565b90506114ee6735e3550c2880e1d260c01b611b82565b61150267d150448ed24baba860c01b611b82565b600060056000838152602001908152602001600020905061152d6773a8a6b7100ccc7760c01b611b82565b61154167663bdff8cb29f91460c01b611b82565b60008160020154036115be5761156167c69e36a0dc22f19060c01b611b82565b6115756744b5bdd6658b582460c01b611b82565b8a945061158c67b16e3622652f65d760c01b611b82565b8993506115a3672b67f87313939d2d60c01b611b82565b6115b784866115b29190612c4b565b611ebe565b92506118a6565b6115d267e36bf70bc833f7ba60c01b611b82565b6115e667355b7d7240291ff460c01b611b82565b6115fa671ce9351320d82cf760c01b611b82565b6000816000015482600101548d6116119190612c4b565b61161b9190612cbc565b90506116316718a898f136d1126360c01b611b82565b6116456786fef4d0aaccd64e60c01b611b82565b8a81116117265761166067b19ca05991cf740160c01b611b82565b611674679e53a3c548b07b4360c01b611b82565b6116886777c6b89e3ae0f83160c01b611b82565b61169c671884c5ae009b26e160c01b611b82565b888110156116df576040517f08c379a00000000000000000000000000000000000000000000000000000000081526004016116d6906131de565b60405180910390fd5b6116f367e4c92268988a946860c01b611b82565b611707675c5d7aed01b9bbb760c01b611b82565b8b955061171e676538dce836c0f3e560c01b611b82565b809450611848565b61173a676d022238bcc15fbd60c01b611b82565b61174e672575601d1f989a2e60c01b611b82565b61176267692d47e8cb361af860c01b611b82565b6000826001015483600001548d6117799190612c4b565b6117839190612cbc565b9050611799672ef3a09fde7bf17e60c01b611b82565b6117ad6792d2d0ecec3afd1f60c01b611b82565b6117c167c8316fba0c200b3060c01b611b82565b8a811015611804576040517f08c379a00000000000000000000000000000000000000000000000000000000081526004016117fb90613172565b60405180910390fd5b611818674567a6c10451e78160c01b611b82565b61182c67eba028b3b68b193460c01b611b82565b80965061184367ef7bdb879eb61f3660c01b611b82565b8b9550505b61185c67f503fa34a4fb63b160c01b611b82565b6118a282600001548360020154886118749190612c4b565b61187e9190612cbc565b83600101548460020154886118939190612c4b565b61189d9190612cbc565b61205b565b9350505b6118ba67bf1ec8d66cdc09cc60c01b611b82565b6118ce67455276f83a84358360c01b611b82565b6118e2670577a6dac4e6319c60c01b611b82565b60008311611925576040517f08c379a000000000000000000000000000000000000000000000000000000000815260040161191c9061324a565b60405180910390fd5b61193967297cd6695ead5ba160c01b611b82565b61194d67d438f14132c96e9860c01b611b82565b6119616707094a006819954460c01b611b82565b8c73ffffffffffffffffffffffffffffffffffffffff166323b872dd3330886040518463ffffffff1660e01b815260040161199e93929190612f3b565b6020604051808303816000875af11580156119bd573d6000803e3d6000fd5b505050506040513d601f19601f820116820180604052508101906119e19190612f9e565b506119f6676c71633c56662e0360c01b611b82565b611a0a67c25db0057084741d60c01b611b82565b8b73ffffffffffffffffffffffffffffffffffffffff166323b872dd3330876040518463ffffffff1660e01b8152600401611a4793929190612f3b565b6020604051808303816000875af1158015611a66573d6000803e3d6000fd5b505050506040513d601f19601f82011682018060405250810190611a8a9190612f9e565b50611a9f67d55438322a2cf53b60c01b611b82565b84816000016000828254611ab39190612c17565b92505081905550611ace67179e2c8f4da2a7e760c01b611b82565b83816001016000828254611ae29190612c17565b92505081905550611afd673d0b5e67d1de542260c01b611b82565b82816002016000828254611b119190612c17565b92505081905550611b2c67a74a40c646c6096f60c01b611b82565b611b40674de1b98ac7d0f4f660c01b611b82565b611b4a8784612072565b611b5e6731af0aa1b01dd14f60c01b611b82565b611b726794504b8fd2e4196960c01b611b82565b5050985098509895505050505050565b50565b600033905090565b611b9a83838360016120f4565b505050565b6000611bab8484611371565b90507fffffffffffffffffffffffffffffffffffffffffffffffffffffffffffffffff811015611c2e5781811015611c1e578281836040517ffb8f41b2000000000000000000000000000000000000000000000000000000008152600401611c159392919061326a565b60405180910390fd5b611c2d848484840360006120f4565b5b50505050565b600073ffffffffffffffffffffffffffffffffffffffff168373ffffffffffffffffffffffffffffffffffffffff1603611ca65760006040517f96c6fd1e000000000000000000000000000000000000000000000000000000008152600401611c9d91906132a1565b60405180910390fd5b600073ffffffffffffffffffffffffffffffffffffffff168273ffffffffffffffffffffffffffffffffffffffff1603611d185760006040517fec442f05000000000000000000000000000000000000000000000000000000008152600401611d0f91906132a1565b60405180910390fd5b611d238383836122cb565b505050565b6000611d3e67cf5c84d15a4a6f2260c01b611b82565b611d526779e985c38fe0836f60c01b611b82565b611d666725d877769b148de560c01b611b82565b6000808373ffffffffffffffffffffffffffffffffffffffff168573ffffffffffffffffffffffffffffffffffffffff161080611db35750611db2673f67740998e134e360c01b6124f0565b5b8015611dcf5750611dce675573103052ed58fd60c01b6124f7565b5b611dda578385611ddd565b84845b91509150611df56794cdd39c17b313db60c01b611b82565b611e09674a08f61386cd1fd860c01b611b82565b8181604051602001611e1c929190613304565b604051602081830303815290604052805190602001209250505092915050565b600073ffffffffffffffffffffffffffffffffffffffff168273ffffffffffffffffffffffffffffffffffffffff1603611eae5760006040517f96c6fd1e000000000000000000000000000000000000000000000000000000008152600401611ea591906132a1565b60405180910390fd5b611eba826000836122cb565b5050565b600060018211611ed057819050612056565b60008290506000600190507001000000000000000000000000000000008210611f0257608082901c9150604081901b90505b680100000000000000008210611f2157604082901c9150602081901b90505b6401000000008210611f3c57602082901c9150601081901b90505b620100008210611f5557601082901c9150600881901b90505b6101008210611f6d57600882901c9150600481901b90505b60108210611f8457600482901c9150600281901b90505b60048210611f9457600181901b90505b600181600302901c90506001818581611fb057611faf612c8d565b5b048201901c90506001818581611fc957611fc8612c8d565b5b048201901c90506001818581611fe257611fe1612c8d565b5b048201901c90506001818581611ffb57611ffa612c8d565b5b048201901c9050600181858161201457612013612c8d565b5b048201901c9050600181858161202d5761202c612c8d565b5b048201901c905061204f81858161204757612046612c8d565b5b048211612502565b8103925050505b919050565b600061206a828410848461250e565b905092915050565b600073ffffffffffffffffffffffffffffffffffffffff168273ffffffffffffffffffffffffffffffffffffffff16036120e45760006040517fec442f050000000000000000000000000000000000000000000000000000000081526004016120db91906132a1565b60405180910390fd5b6120f0600083836122cb565b5050565b600073ffffffffffffffffffffffffffffffffffffffff168473ffffffffffffffffffffffffffffffffffffffff16036121665760006040517fe602df0500000000000000000000000000000000000000000000000000000000815260040161215d91906132a1565b60405180910390fd5b600073ffffffffffffffffffffffffffffffffffffffff168373ffffffffffffffffffffffffffffffffffffffff16036121d85760006040517f94280d620000000000000000000000000000000000000000000000000000000081526004016121cf91906132a1565b60405180910390fd5b81600160008673ffffffffffffffffffffffffffffffffffffffff1673ffffffffffffffffffffffffffffffffffffffff16815260200190815260200160002060008573ffffffffffffffffffffffffffffffffffffffff1673ffffffffffffffffffffffffffffffffffffffff1681526020019081526020016000208190555080156122c5578273ffffffffffffffffffffffffffffffffffffffff168473ffffffffffffffffffffffffffffffffffffffff167f8c5be1e5ebec7d5bd14f71427d1e84f3dd0314c0f7b2291e5b200ac8c7c3b925846040516122bc91906125ca565b60405180910390a35b50505050565b600073ffffffffffffffffffffffffffffffffffffffff168373ffffffffffffffffffffffffffffffffffffffff160361231d5780600260008282546123119190612c17565b925050819055506123f0565b60008060008573ffffffffffffffffffffffffffffffffffffffff1673ffffffffffffffffffffffffffffffffffffffff168152602001908152602001600020549050818110156123a9578381836040517fe450d38c0000000000000000000000000000000000000000000000000000000081526004016123a09392919061326a565b60405180910390fd5b8181036000808673ffffffffffffffffffffffffffffffffffffffff1673ffffffffffffffffffffffffffffffffffffffff16815260200190815260200160002081905550505b600073ffffffffffffffffffffffffffffffffffffffff168273ffffffffffffffffffffffffffffffffffffffff16036124395780600260008282540392505081905550612486565b806000808473ffffffffffffffffffffffffffffffffffffffff1673ffffffffffffffffffffffffffffffffffffffff168152602001908152602001600020600082825401925050819055505b8173ffffffffffffffffffffffffffffffffffffffff168373ffffffffffffffffffffffffffffffffffffffff167fddf252ad1be2c89b69c2b068fc378daa952ba7f163c4a11628f55a4df523b3ef836040516124e391906125ca565b60405180910390a3505050565b6000919050565b600060019050919050565b60008115159050919050565b600061251984612502565b82841802821890509392505050565b600080fd5b600080fd5b6000819050919050565b61254581612532565b811461255057600080fd5b50565b6000813590506125628161253c565b92915050565b60008060006060848603121561258157612580612528565b5b600061258f86828701612553565b93505060206125a086828701612553565b92505060406125b186828701612553565b9150509250925092565b6125c481612532565b82525050565b60006020820190506125df60008301846125bb565b92915050565b600081519050919050565b600082825260208201905092915050565b60005b8381101561261f578082015181840152602081019050612604565b60008484015250505050565b6000601f19601f8301169050919050565b6000612647826125e5565b61265181856125f0565b9350612661818560208601612601565b61266a8161262b565b840191505092915050565b6000602082019050818103600083015261268f818461263c565b905092915050565b600073ffffffffffffffffffffffffffffffffffffffff82169050919050565b60006126c282612697565b9050919050565b6126d2816126b7565b81146126dd57600080fd5b50565b6000813590506126ef816126c9565b92915050565b6000806040838503121561270c5761270b612528565b5b600061271a858286016126e0565b925050602061272b85828601612553565b9150509250929050565b60008115159050919050565b61274a81612735565b82525050565b60006020820190506127656000830184612741565b92915050565b60008060006060848603121561278457612783612528565b5b6000612792868287016126e0565b93505060206127a3868287016126e0565b92505060406127b486828701612553565b9150509250925092565b600060ff82169050919050565b6127d4816127be565b82525050565b60006020820190506127ef60008301846127cb565b92915050565b6000819050919050565b612808816127f5565b811461281357600080fd5b50565b600081359050612825816127ff565b92915050565b60006020828403121561284157612840612528565b5b600061284f84828501612816565b91505092915050565b600060608201905061286d60008301866125bb565b61287a60208301856125bb565b61288760408301846125bb565b949350505050565b600080fd5b600080fd5b600080fd5b60008083601f8401126128b4576128b361288f565b5b8235905067ffffffffffffffff8111156128d1576128d0612894565b5b6020830191508360208202830111156128ed576128ec612899565b5b9250929050565b60008060008060008060a0878903121561291157612910612528565b5b600061291f89828a01612553565b965050602061293089828a01612553565b955050604087013567ffffffffffffffff8111156129515761295061252d565b5b61295d89828a0161289e565b9450945050606061297089828a016126e0565b925050608061298189828a01612553565b9150509295509295509295565b6000602082840312156129a4576129a3612528565b5b60006129b2848285016126e0565b91505092915050565b600080604083850312156129d2576129d1612528565b5b60006129e0858286016126e0565b92505060206129f1858286016126e0565b9150509250929050565b600080600080600080600060e0888a031215612a1a57612a19612528565b5b6000612a288a828b016126e0565b9750506020612a398a828b016126e0565b9650506040612a4a8a828b01612553565b9550506060612a5b8a828b01612553565b9450506080612a6c8a828b01612553565b93505060a0612a7d8a828b016126e0565b92505060c0612a8e8a828b01612553565b91505092959891949750929550565b6000604082019050612ab260008301856125bb565b612abf60208301846125bb565b9392505050565b600080600080600080600080610100898b031215612ae757612ae6612528565b5b6000612af58b828c016126e0565b9850506020612b068b828c016126e0565b9750506040612b178b828c01612553565b9650506060612b288b828c01612553565b9550506080612b398b828c01612553565b94505060a0612b4a8b828c01612553565b93505060c0612b5b8b828c016126e0565b92505060e0612b6c8b828c01612553565b9150509295985092959890939650565b7f496e76616c696420696e7075742c2074727920616761696e2e00000000000000600082015250565b6000612bb26019836125f0565b9150612bbd82612b7c565b602082019050919050565b60006020820190508181036000830152612be181612ba5565b9050919050565b7f4e487b7100000000000000000000000000000000000000000000000000000000600052601160045260246000fd5b6000612c2282612532565b9150612c2d83612532565b9250828201905080821115612c4557612c44612be8565b5b92915050565b6000612c5682612532565b9150612c6183612532565b9250828202612c6f81612532565b91508282048414831517612c8657612c85612be8565b5b5092915050565b7f4e487b7100000000000000000000000000000000000000000000000000000000600052601260045260246000fd5b6000612cc782612532565b9150612cd283612532565b925082612ce257612ce1612c8d565b5b828204905092915050565b7f4e487b7100000000000000000000000000000000000000000000000000000000600052602260045260246000fd5b60006002820490506001821680612d3457607f821691505b602082108103612d4757612d46612ced565b5b50919050565b7f5472616e73616374696f6e206578706972656400000000000000000000000000600082015250565b6000612d836013836125f0565b9150612d8e82612d4d565b602082019050919050565b60006020820190508181036000830152612db281612d76565b9050919050565b7f496e76616c696420737761702070617468000000000000000000000000000000600082015250565b6000612def6011836125f0565b9150612dfa82612db9565b602082019050919050565b60006020820190508181036000830152612e1e81612de2565b9050919050565b7f4e487b7100000000000000000000000000000000000000000000000000000000600052603260045260246000fd5b7f4e6f206c697175696469747920617661696c61626c6500000000000000000000600082015250565b6000612e8a6016836125f0565b9150612e9582612e54565b602082019050919050565b60006020820190508181036000830152612eb981612e7d565b9050919050565b7f4f757470757420746f6f206c6f77000000000000000000000000000000000000600082015250565b6000612ef6600e836125f0565b9150612f0182612ec0565b602082019050919050565b60006020820190508181036000830152612f2581612ee9565b9050919050565b612f35816126b7565b82525050565b6000606082019050612f506000830186612f2c565b612f5d6020830185612f2c565b612f6a60408301846125bb565b949350505050565b612f7b81612735565b8114612f8657600080fd5b50565b600081519050612f9881612f72565b92915050565b600060208284031215612fb457612fb3612528565b5b6000612fc284828501612f89565b91505092915050565b6000604082019050612fe06000830185612f2c565b612fed60208301846125bb565b9392505050565b6000612fff82612532565b915061300a83612532565b925082820390508181111561302257613021612be8565b5b92915050565b7f4e6f206c697175696469747920617661696c61626c652c20697473206e6f742060008201527f706f737369626c6520746f2067657420612070726963652e0000000000000000602082015250565b60006130846038836125f0565b915061308f82613028565b604082019050919050565b600060208201905081810360008301526130b381613077565b9050919050565b7f4e6f7420656e6f756768204c5020746f6b656e73000000000000000000000000600082015250565b60006130f06014836125f0565b91506130fb826130ba565b602082019050919050565b6000602082019050818103600083015261311f816130e3565b9050919050565b7f546f6f206d75636820736c697070616765206f6e204100000000000000000000600082015250565b600061315c6016836125f0565b915061316782613126565b602082019050919050565b6000602082019050818103600083015261318b8161314f565b9050919050565b7f546f6f206d75636820736c697070616765206f6e204200000000000000000000600082015250565b60006131c86016836125f0565b91506131d382613192565b602082019050919050565b600060208201905081810360008301526131f7816131bb565b9050919050565b7f5a65726f206c69717569646974792067656e6572617465640000000000000000600082015250565b60006132346018836125f0565b915061323f826131fe565b602082019050919050565b6000602082019050818103600083015261326381613227565b9050919050565b600060608201905061327f6000830186612f2c565b61328c60208301856125bb565b61329960408301846125bb565b949350505050565b60006020820190506132b66000830184612f2c565b92915050565b60008160601b9050919050565b60006132d4826132bc565b9050919050565b60006132e6826132c9565b9050919050565b6132fe6132f9826126b7565b6132db565b82525050565b600061331082856132ed565b60148201915061332082846132ed565b601482019150819050939250505056fea2646970667358221220d45b5ef059038da6df758f2921a4484bab2b0f7dbdbef64d17d69cb8b3c4dd2764736f6c634300081c0033","opcodes":"PUSH1 0x80 PUSH1 0x40 MSTORE CALLVALUE DUP1 ISZERO PUSH2 0x10 JUMPI PUSH1 0x0 DUP1 REVERT JUMPDEST POP PUSH1 0x40 MLOAD DUP1 PUSH1 0x40 ADD PUSH1 0x40 MSTORE DUP1 PUSH1 0x10 DUP2 MSTORE PUSH1 0x20 ADD PUSH32 0x506F6F6C20536861726520546F6B656E00000000000000000000000000000000 DUP2 MSTORE POP PUSH1 0x40 MLOAD DUP1 PUSH1 0x40 ADD PUSH1 0x40 MSTORE DUP1 PUSH1 0x3 DUP2 MSTORE PUSH1 0x20 ADD PUSH32 0x5053540000000000000000000000000000000000000000000000000000000000 DUP2 MSTORE POP DUP2 PUSH1 0x3 SWAP1 DUP2 PUSH2 0x8C SWAP2 SWAP1 PUSH2 0x311 JUMP JUMPDEST POP DUP1 PUSH1 0x4 SWAP1 DUP2 PUSH2 0x9C SWAP2 SWAP1 PUSH2 0x311 JUMP JUMPDEST POP POP POP PUSH2 0xB9 PUSH8 0x76B9EE27DB3974A3 PUSH1 0xC0 SHL PUSH2 0xBE PUSH1 0x20 SHL PUSH1 0x20 SHR JUMP JUMPDEST PUSH2 0x3E3 JUMP JUMPDEST POP JUMP JUMPDEST PUSH1 0x0 DUP2 MLOAD SWAP1 POP SWAP2 SWAP1 POP JUMP JUMPDEST PUSH32 0x4E487B7100000000000000000000000000000000000000000000000000000000 PUSH1 0x0 MSTORE PUSH1 0x41 PUSH1 0x4 MSTORE PUSH1 0x24 PUSH1 0x0 REVERT JUMPDEST PUSH32 0x4E487B7100000000000000000000000000000000000000000000000000000000 PUSH1 0x0 MSTORE PUSH1 0x22 PUSH1 0x4 MSTORE PUSH1 0x24 PUSH1 0x0 REVERT JUMPDEST PUSH1 0x0 PUSH1 0x2 DUP3 DIV SWAP1 POP PUSH1 0x1 DUP3 AND DUP1 PUSH2 0x142 JUMPI PUSH1 0x7F DUP3 AND SWAP2 POP JUMPDEST PUSH1 0x20 DUP3 LT DUP2 SUB PUSH2 0x155 JUMPI PUSH2 0x154 PUSH2 0xFB JUMP JUMPDEST JUMPDEST POP SWAP2 SWAP1 POP JUMP JUMPDEST PUSH1 0x0 DUP2 SWAP1 POP DUP2 PUSH1 0x0 MSTORE PUSH1 0x20 PUSH1 0x0 KECCAK256 SWAP1 POP SWAP2 SWAP1 POP JUMP JUMPDEST PUSH1 0x0 PUSH1 0x20 PUSH1 0x1F DUP4 ADD DIV SWAP1 POP SWAP2 SWAP1 POP JUMP JUMPDEST PUSH1 0x0 DUP3 DUP3 SHL SWAP1 POP SWAP3 SWAP2 POP POP JUMP JUMPDEST PUSH1 0x0 PUSH1 0x8 DUP4 MUL PUSH2 0x1BD PUSH32 0xFFFFFFFFFFFFFFFFFFFFFFFFFFFFFFFFFFFFFFFFFFFFFFFFFFFFFFFFFFFFFFFF DUP3 PUSH2 0x180 JUMP JUMPDEST PUSH2 0x1C7 DUP7 DUP4 PUSH2 0x180 JUMP JUMPDEST SWAP6 POP DUP1 NOT DUP5 AND SWAP4 POP DUP1 DUP7 AND DUP5 OR SWAP3 POP POP POP SWAP4 SWAP3 POP POP POP JUMP JUMPDEST PUSH1 0x0 DUP2 SWAP1 POP SWAP2 SWAP1 POP JUMP JUMPDEST PUSH1 0x0 DUP2 SWAP1 POP SWAP2 SWAP1 POP JUMP JUMPDEST PUSH1 0x0 PUSH2 0x20E PUSH2 0x209 PUSH2 0x204 DUP5 PUSH2 0x1DF JUMP JUMPDEST PUSH2 0x1E9 JUMP JUMPDEST PUSH2 0x1DF JUMP JUMPDEST SWAP1 POP SWAP2 SWAP1 POP JUMP JUMPDEST PUSH1 0x0 DUP2 SWAP1 POP SWAP2 SWAP1 POP JUMP JUMPDEST PUSH2 0x228 DUP4 PUSH2 0x1F3 JUMP JUMPDEST PUSH2 0x23C PUSH2 0x234 DUP3 PUSH2 0x215 JUMP JUMPDEST DUP5 DUP5 SLOAD PUSH2 0x18D JUMP JUMPDEST DUP3 SSTORE POP POP POP POP JUMP JUMPDEST PUSH1 0x0 SWAP1 JUMP JUMPDEST PUSH2 0x251 PUSH2 0x244 JUMP JUMPDEST PUSH2 0x25C DUP2 DUP5 DUP5 PUSH2 0x21F JUMP JUMPDEST POP POP POP JUMP JUMPDEST JUMPDEST DUP2 DUP2 LT ISZERO PUSH2 0x280 JUMPI PUSH2 0x275 PUSH1 0x0 DUP3 PUSH2 0x249 JUMP JUMPDEST PUSH1 0x1 DUP2 ADD SWAP1 POP PUSH2 0x262 JUMP JUMPDEST POP POP JUMP JUMPDEST PUSH1 0x1F DUP3 GT ISZERO PUSH2 0x2C5 JUMPI PUSH2 0x296 DUP2 PUSH2 0x15B JUMP JUMPDEST PUSH2 0x29F DUP5 PUSH2 0x170 JUMP JUMPDEST DUP2 ADD PUSH1 0x20 DUP6 LT ISZERO PUSH2 0x2AE JUMPI DUP2 SWAP1 POP JUMPDEST PUSH2 0x2C2 PUSH2 0x2BA DUP6 PUSH2 0x170 JUMP JUMPDEST DUP4 ADD DUP3 PUSH2 0x261 JUMP JUMPDEST POP POP JUMPDEST POP POP POP JUMP JUMPDEST PUSH1 0x0 DUP3 DUP3 SHR SWAP1 POP SWAP3 SWAP2 POP POP JUMP JUMPDEST PUSH1 0x0 PUSH2 0x2E8 PUSH1 0x0 NOT DUP5 PUSH1 0x8 MUL PUSH2 0x2CA JUMP JUMPDEST NOT DUP1 DUP4 AND SWAP2 POP POP SWAP3 SWAP2 POP POP JUMP JUMPDEST PUSH1 0x0 PUSH2 0x301 DUP4 DUP4 PUSH2 0x2D7 JUMP JUMPDEST SWAP2 POP DUP3 PUSH1 0x2 MUL DUP3 OR SWAP1 POP SWAP3 SWAP2 POP POP JUMP JUMPDEST PUSH2 0x31A DUP3 PUSH2 0xC1 JUMP JUMPDEST PUSH8 0xFFFFFFFFFFFFFFFF DUP2 GT ISZERO PUSH2 0x333 JUMPI PUSH2 0x332 PUSH2 0xCC JUMP JUMPDEST JUMPDEST PUSH2 0x33D DUP3 SLOAD PUSH2 0x12A JUMP JUMPDEST PUSH2 0x348 DUP3 DUP3 DUP6 PUSH2 0x284 JUMP JUMPDEST PUSH1 0x0 PUSH1 0x20 SWAP1 POP PUSH1 0x1F DUP4 GT PUSH1 0x1 DUP2 EQ PUSH2 0x37B JUMPI PUSH1 0x0 DUP5 ISZERO PUSH2 0x369 JUMPI DUP3 DUP8 ADD MLOAD SWAP1 POP JUMPDEST PUSH2 0x373 DUP6 DUP3 PUSH2 0x2F5 JUMP JUMPDEST DUP7 SSTORE POP PUSH2 0x3DB JUMP JUMPDEST PUSH1 0x1F NOT DUP5 AND PUSH2 0x389 DUP7 PUSH2 0x15B JUMP JUMPDEST PUSH1 0x0 JUMPDEST DUP3 DUP2 LT ISZERO PUSH2 0x3B1 JUMPI DUP5 DUP10 ADD MLOAD DUP3 SSTORE PUSH1 0x1 DUP3 ADD SWAP2 POP PUSH1 0x20 DUP6 ADD SWAP5 POP PUSH1 0x20 DUP2 ADD SWAP1 POP PUSH2 0x38C JUMP JUMPDEST DUP7 DUP4 LT ISZERO PUSH2 0x3CE JUMPI DUP5 DUP10 ADD MLOAD PUSH2 0x3CA PUSH1 0x1F DUP10 AND DUP3 PUSH2 0x2D7 JUMP JUMPDEST DUP4 SSTORE POP JUMPDEST PUSH1 0x1 PUSH1 0x2 DUP9 MUL ADD DUP9 SSTORE POP POP POP JUMPDEST POP POP POP POP POP POP JUMP JUMPDEST PUSH2 0x3366 DUP1 PUSH2 0x3F2 PUSH1 0x0 CODECOPY PUSH1 0x0 RETURN INVALID PUSH1 0x80 PUSH1 0x40 MSTORE CALLVALUE DUP1 ISZERO PUSH2 0x10 JUMPI PUSH1 0x0 DUP1 REVERT JUMPDEST POP PUSH1 0x4 CALLDATASIZE LT PUSH2 0xF5 JUMPI PUSH1 0x0 CALLDATALOAD PUSH1 0xE0 SHR DUP1 PUSH4 0x38ED1739 GT PUSH2 0x97 JUMPI DUP1 PUSH4 0xAC41865A GT PUSH2 0x66 JUMPI DUP1 PUSH4 0xAC41865A EQ PUSH2 0x2B0 JUMPI DUP1 PUSH4 0xBAA2ABDE EQ PUSH2 0x2E0 JUMPI DUP1 PUSH4 0xDD62ED3E EQ PUSH2 0x311 JUMPI DUP1 PUSH4 0xE8E33700 EQ PUSH2 0x341 JUMPI PUSH2 0xF5 JUMP JUMPDEST DUP1 PUSH4 0x38ED1739 EQ PUSH2 0x216 JUMPI DUP1 PUSH4 0x70A08231 EQ PUSH2 0x232 JUMPI DUP1 PUSH4 0x95D89B41 EQ PUSH2 0x262 JUMPI DUP1 PUSH4 0xA9059CBB EQ PUSH2 0x280 JUMPI PUSH2 0xF5 JUMP JUMPDEST DUP1 PUSH4 0x18160DDD GT PUSH2 0xD3 JUMPI DUP1 PUSH4 0x18160DDD EQ PUSH2 0x178 JUMPI DUP1 PUSH4 0x23B872DD EQ PUSH2 0x196 JUMPI DUP1 PUSH4 0x313CE567 EQ PUSH2 0x1C6 JUMPI DUP1 PUSH4 0x3268C88C EQ PUSH2 0x1E4 JUMPI PUSH2 0xF5 JUMP JUMPDEST DUP1 PUSH4 0x54D50D4 EQ PUSH2 0xFA JUMPI DUP1 PUSH4 0x6FDDE03 EQ PUSH2 0x12A JUMPI DUP1 PUSH4 0x95EA7B3 EQ PUSH2 0x148 JUMPI JUMPDEST PUSH1 0x0 DUP1 REVERT JUMPDEST PUSH2 0x114 PUSH1 0x4 DUP1 CALLDATASIZE SUB DUP2 ADD SWAP1 PUSH2 0x10F SWAP2 SWAP1 PUSH2 0x2568 JUMP JUMPDEST PUSH2 0x373 JUMP JUMPDEST PUSH1 0x40 MLOAD PUSH2 0x121 SWAP2 SWAP1 PUSH2 0x25CA JUMP JUMPDEST PUSH1 0x40 MLOAD DUP1 SWAP2 SUB SWAP1 RETURN JUMPDEST PUSH2 0x132 PUSH2 0x473 JUMP JUMPDEST PUSH1 0x40 MLOAD PUSH2 0x13F SWAP2 SWAP1 PUSH2 0x2675 JUMP JUMPDEST PUSH1 0x40 MLOAD DUP1 SWAP2 SUB SWAP1 RETURN JUMPDEST PUSH2 0x162 PUSH1 0x4 DUP1 CALLDATASIZE SUB DUP2 ADD SWAP1 PUSH2 0x15D SWAP2 SWAP1 PUSH2 0x26F5 JUMP JUMPDEST PUSH2 0x505 JUMP JUMPDEST PUSH1 0x40 MLOAD PUSH2 0x16F SWAP2 SWAP1 PUSH2 0x2750 JUMP JUMPDEST PUSH1 0x40 MLOAD DUP1 SWAP2 SUB SWAP1 RETURN JUMPDEST PUSH2 0x180 PUSH2 0x528 JUMP JUMPDEST PUSH1 0x40 MLOAD PUSH2 0x18D SWAP2 SWAP1 PUSH2 0x25CA JUMP JUMPDEST PUSH1 0x40 MLOAD DUP1 SWAP2 SUB SWAP1 RETURN JUMPDEST PUSH2 0x1B0 PUSH1 0x4 DUP1 CALLDATASIZE SUB DUP2 ADD SWAP1 PUSH2 0x1AB SWAP2 SWAP1 PUSH2 0x276B JUMP JUMPDEST PUSH2 0x532 JUMP JUMPDEST PUSH1 0x40 MLOAD PUSH2 0x1BD SWAP2 SWAP1 PUSH2 0x2750 JUMP JUMPDEST PUSH1 0x40 MLOAD DUP1 SWAP2 SUB SWAP1 RETURN JUMPDEST PUSH2 0x1CE PUSH2 0x561 JUMP JUMPDEST PUSH1 0x40 MLOAD PUSH2 0x1DB SWAP2 SWAP1 PUSH2 0x27DA JUMP JUMPDEST PUSH1 0x40 MLOAD DUP1 SWAP2 SUB SWAP1 RETURN JUMPDEST PUSH2 0x1FE PUSH1 0x4 DUP1 CALLDATASIZE SUB DUP2 ADD SWAP1 PUSH2 0x1F9 SWAP2 SWAP1 PUSH2 0x282B JUMP JUMPDEST PUSH2 0x56A JUMP JUMPDEST PUSH1 0x40 MLOAD PUSH2 0x20D SWAP4 SWAP3 SWAP2 SWAP1 PUSH2 0x2858 JUMP JUMPDEST PUSH1 0x40 MLOAD DUP1 SWAP2 SUB SWAP1 RETURN JUMPDEST PUSH2 0x230 PUSH1 0x4 DUP1 CALLDATASIZE SUB DUP2 ADD SWAP1 PUSH2 0x22B SWAP2 SWAP1 PUSH2 0x28F4 JUMP JUMPDEST PUSH2 0x594 JUMP JUMPDEST STOP JUMPDEST PUSH2 0x24C PUSH1 0x4 DUP1 CALLDATASIZE SUB DUP2 ADD SWAP1 PUSH2 0x247 SWAP2 SWAP1 PUSH2 0x298E JUMP JUMPDEST PUSH2 0xB70 JUMP JUMPDEST PUSH1 0x40 MLOAD PUSH2 0x259 SWAP2 SWAP1 PUSH2 0x25CA JUMP JUMPDEST PUSH1 0x40 MLOAD DUP1 SWAP2 SUB SWAP1 RETURN JUMPDEST PUSH2 0x26A PUSH2 0xBB8 JUMP JUMPDEST PUSH1 0x40 MLOAD PUSH2 0x277 SWAP2 SWAP1 PUSH2 0x2675 JUMP JUMPDEST PUSH1 0x40 MLOAD DUP1 SWAP2 SUB SWAP1 RETURN JUMPDEST PUSH2 0x29A PUSH1 0x4 DUP1 CALLDATASIZE SUB DUP2 ADD SWAP1 PUSH2 0x295 SWAP2 SWAP1 PUSH2 0x26F5 JUMP JUMPDEST PUSH2 0xC4A JUMP JUMPDEST PUSH1 0x40 MLOAD PUSH2 0x2A7 SWAP2 SWAP1 PUSH2 0x2750 JUMP JUMPDEST PUSH1 0x40 MLOAD DUP1 SWAP2 SUB SWAP1 RETURN JUMPDEST PUSH2 0x2CA PUSH1 0x4 DUP1 CALLDATASIZE SUB DUP2 ADD SWAP1 PUSH2 0x2C5 SWAP2 SWAP1 PUSH2 0x29BB JUMP JUMPDEST PUSH2 0xC6D JUMP JUMPDEST PUSH1 0x40 MLOAD PUSH2 0x2D7 SWAP2 SWAP1 PUSH2 0x25CA JUMP JUMPDEST PUSH1 0x40 MLOAD DUP1 SWAP2 SUB SWAP1 RETURN JUMPDEST PUSH2 0x2FA PUSH1 0x4 DUP1 CALLDATASIZE SUB DUP2 ADD SWAP1 PUSH2 0x2F5 SWAP2 SWAP1 PUSH2 0x29FB JUMP JUMPDEST PUSH2 0xDE4 JUMP JUMPDEST PUSH1 0x40 MLOAD PUSH2 0x308 SWAP3 SWAP2 SWAP1 PUSH2 0x2A9D JUMP JUMPDEST PUSH1 0x40 MLOAD DUP1 SWAP2 SUB SWAP1 RETURN JUMPDEST PUSH2 0x32B PUSH1 0x4 DUP1 CALLDATASIZE SUB DUP2 ADD SWAP1 PUSH2 0x326 SWAP2 SWAP1 PUSH2 0x29BB JUMP JUMPDEST PUSH2 0x1371 JUMP JUMPDEST PUSH1 0x40 MLOAD PUSH2 0x338 SWAP2 SWAP1 PUSH2 0x25CA JUMP JUMPDEST PUSH1 0x40 MLOAD DUP1 SWAP2 SUB SWAP1 RETURN JUMPDEST PUSH2 0x35B PUSH1 0x4 DUP1 CALLDATASIZE SUB DUP2 ADD SWAP1 PUSH2 0x356 SWAP2 SWAP1 PUSH2 0x2AC6 JUMP JUMPDEST PUSH2 0x13F8 JUMP JUMPDEST PUSH1 0x40 MLOAD PUSH2 0x36A SWAP4 SWAP3 SWAP2 SWAP1 PUSH2 0x2858 JUMP JUMPDEST PUSH1 0x40 MLOAD DUP1 SWAP2 SUB SWAP1 RETURN JUMPDEST PUSH1 0x0 PUSH2 0x389 PUSH8 0x12E7CEDDBE1E30EB PUSH1 0xC0 SHL PUSH2 0x1B82 JUMP JUMPDEST PUSH2 0x39D PUSH8 0xDC4DE8D22A4113BE PUSH1 0xC0 SHL PUSH2 0x1B82 JUMP JUMPDEST PUSH2 0x3B1 PUSH8 0xEB13FC9E6B484427 PUSH1 0xC0 SHL PUSH2 0x1B82 JUMP JUMPDEST PUSH2 0x3C5 PUSH8 0x68682245EC81FC1 PUSH1 0xC0 SHL PUSH2 0x1B82 JUMP JUMPDEST PUSH1 0x0 DUP5 GT DUP1 ISZERO PUSH2 0x3D5 JUMPI POP PUSH1 0x0 DUP4 GT JUMPDEST DUP1 ISZERO PUSH2 0x3E1 JUMPI POP PUSH1 0x0 DUP3 GT JUMPDEST PUSH2 0x420 JUMPI PUSH1 0x40 MLOAD PUSH32 0x8C379A000000000000000000000000000000000000000000000000000000000 DUP2 MSTORE PUSH1 0x4 ADD PUSH2 0x417 SWAP1 PUSH2 0x2BC8 JUMP JUMPDEST PUSH1 0x40 MLOAD DUP1 SWAP2 SUB SWAP1 REVERT JUMPDEST PUSH2 0x434 PUSH8 0x9F20DDFFDCD5F4C2 PUSH1 0xC0 SHL PUSH2 0x1B82 JUMP JUMPDEST PUSH2 0x448 PUSH8 0xF4C77C5EF99A942E PUSH1 0xC0 SHL PUSH2 0x1B82 JUMP JUMPDEST DUP4 DUP4 PUSH2 0x454 SWAP2 SWAP1 PUSH2 0x2C17 JUMP JUMPDEST DUP3 DUP6 PUSH2 0x460 SWAP2 SWAP1 PUSH2 0x2C4B JUMP JUMPDEST PUSH2 0x46A SWAP2 SWAP1 PUSH2 0x2CBC JUMP JUMPDEST SWAP1 POP SWAP4 SWAP3 POP POP POP JUMP JUMPDEST PUSH1 0x60 PUSH1 0x3 DUP1 SLOAD PUSH2 0x482 SWAP1 PUSH2 0x2D1C JUMP JUMPDEST DUP1 PUSH1 0x1F ADD PUSH1 0x20 DUP1 SWAP2 DIV MUL PUSH1 0x20 ADD PUSH1 0x40 MLOAD SWAP1 DUP2 ADD PUSH1 0x40 MSTORE DUP1 SWAP3 SWAP2 SWAP1 DUP2 DUP2 MSTORE PUSH1 0x20 ADD DUP3 DUP1 SLOAD PUSH2 0x4AE SWAP1 PUSH2 0x2D1C JUMP JUMPDEST DUP1 ISZERO PUSH2 0x4FB JUMPI DUP1 PUSH1 0x1F LT PUSH2 0x4D0 JUMPI PUSH2 0x100 DUP1 DUP4 SLOAD DIV MUL DUP4 MSTORE SWAP2 PUSH1 0x20 ADD SWAP2 PUSH2 0x4FB JUMP JUMPDEST DUP3 ADD SWAP2 SWAP1 PUSH1 0x0 MSTORE PUSH1 0x20 PUSH1 0x0 KECCAK256 SWAP1 JUMPDEST DUP2 SLOAD DUP2 MSTORE SWAP1 PUSH1 0x1 ADD SWAP1 PUSH1 0x20 ADD DUP1 DUP4 GT PUSH2 0x4DE JUMPI DUP3 SWAP1 SUB PUSH1 0x1F AND DUP3 ADD SWAP2 JUMPDEST POP POP POP POP POP SWAP1 POP SWAP1 JUMP JUMPDEST PUSH1 0x0 DUP1 PUSH2 0x510 PUSH2 0x1B85 JUMP JUMPDEST SWAP1 POP PUSH2 0x51D DUP2 DUP6 DUP6 PUSH2 0x1B8D JUMP JUMPDEST PUSH1 0x1 SWAP2 POP POP SWAP3 SWAP2 POP POP JUMP JUMPDEST PUSH1 0x0 PUSH1 0x2 SLOAD SWAP1 POP SWAP1 JUMP JUMPDEST PUSH1 0x0 DUP1 PUSH2 0x53D PUSH2 0x1B85 JUMP JUMPDEST SWAP1 POP PUSH2 0x54A DUP6 DUP3 DUP6 PUSH2 0x1B9F JUMP JUMPDEST PUSH2 0x555 DUP6 DUP6 DUP6 PUSH2 0x1C34 JUMP JUMPDEST PUSH1 0x1 SWAP2 POP POP SWAP4 SWAP3 POP POP POP JUMP JUMPDEST PUSH1 0x0 PUSH1 0x12 SWAP1 POP SWAP1 JUMP JUMPDEST PUSH1 0x5 PUSH1 0x20 MSTORE DUP1 PUSH1 0x0 MSTORE PUSH1 0x40 PUSH1 0x0 KECCAK256 PUSH1 0x0 SWAP2 POP SWAP1 POP DUP1 PUSH1 0x0 ADD SLOAD SWAP1 DUP1 PUSH1 0x1 ADD SLOAD SWAP1 DUP1 PUSH1 0x2 ADD SLOAD SWAP1 POP DUP4 JUMP JUMPDEST PUSH2 0x5A8 PUSH8 0x87247888F810901F PUSH1 0xC0 SHL PUSH2 0x1B82 JUMP JUMPDEST PUSH2 0x5BC PUSH8 0x8D336B3540F91BCD PUSH1 0xC0 SHL PUSH2 0x1B82 JUMP JUMPDEST PUSH2 0x5D0 PUSH8 0x8774ABDF49249FE8 PUSH1 0xC0 SHL PUSH2 0x1B82 JUMP JUMPDEST PUSH2 0x5E4 PUSH8 0x77A2C18C44D00BDD PUSH1 0xC0 SHL PUSH2 0x1B82 JUMP JUMPDEST DUP1 TIMESTAMP GT ISZERO PUSH2 0x627 JUMPI PUSH1 0x40 MLOAD PUSH32 0x8C379A000000000000000000000000000000000000000000000000000000000 DUP2 MSTORE PUSH1 0x4 ADD PUSH2 0x61E SWAP1 PUSH2 0x2D99 JUMP JUMPDEST PUSH1 0x40 MLOAD DUP1 SWAP2 SUB SWAP1 REVERT JUMPDEST PUSH2 0x63B PUSH8 0xA5B0B22DD00B7CD1 PUSH1 0xC0 SHL PUSH2 0x1B82 JUMP JUMPDEST PUSH2 0x64F PUSH8 0x7234B331E7F1257D PUSH1 0xC0 SHL PUSH2 0x1B82 JUMP JUMPDEST PUSH2 0x663 PUSH8 0x50E56ECA4B04B46B PUSH1 0xC0 SHL PUSH2 0x1B82 JUMP JUMPDEST PUSH2 0x677 PUSH8 0x2194C1C7CD74B3CC PUSH1 0xC0 SHL PUSH2 0x1B82 JUMP JUMPDEST PUSH1 0x2 DUP5 DUP5 SWAP1 POP EQ DUP1 ISZERO PUSH2 0x68A JUMPI POP PUSH1 0x0 DUP7 GT JUMPDEST PUSH2 0x6C9 JUMPI PUSH1 0x40 MLOAD PUSH32 0x8C379A000000000000000000000000000000000000000000000000000000000 DUP2 MSTORE PUSH1 0x4 ADD PUSH2 0x6C0 SWAP1 PUSH2 0x2E05 JUMP JUMPDEST PUSH1 0x40 MLOAD DUP1 SWAP2 SUB SWAP1 REVERT JUMPDEST PUSH2 0x6DD PUSH8 0xDDB41F208A4BE82A PUSH1 0xC0 SHL PUSH2 0x1B82 JUMP JUMPDEST PUSH2 0x6F1 PUSH8 0xA496F8E1E9A930CD PUSH1 0xC0 SHL PUSH2 0x1B82 JUMP JUMPDEST PUSH2 0x705 PUSH8 0xD784E2567DCF2858 PUSH1 0xC0 SHL PUSH2 0x1B82 JUMP JUMPDEST PUSH1 0x0 PUSH2 0x761 DUP6 DUP6 PUSH1 0x0 DUP2 DUP2 LT PUSH2 0x71E JUMPI PUSH2 0x71D PUSH2 0x2E25 JUMP JUMPDEST JUMPDEST SWAP1 POP PUSH1 0x20 MUL ADD PUSH1 0x20 DUP2 ADD SWAP1 PUSH2 0x733 SWAP2 SWAP1 PUSH2 0x298E JUMP JUMPDEST DUP7 DUP7 PUSH1 0x1 DUP2 DUP2 LT PUSH2 0x747 JUMPI PUSH2 0x746 PUSH2 0x2E25 JUMP JUMPDEST JUMPDEST SWAP1 POP PUSH1 0x20 MUL ADD PUSH1 0x20 DUP2 ADD SWAP1 PUSH2 0x75C SWAP2 SWAP1 PUSH2 0x298E JUMP JUMPDEST PUSH2 0x1D28 JUMP JUMPDEST SWAP1 POP PUSH2 0x777 PUSH8 0x8C530C16D819A948 PUSH1 0xC0 SHL PUSH2 0x1B82 JUMP JUMPDEST PUSH2 0x78B PUSH8 0x69B7A615BDF93E05 PUSH1 0xC0 SHL PUSH2 0x1B82 JUMP JUMPDEST PUSH1 0x0 PUSH1 0x5 PUSH1 0x0 DUP4 DUP2 MSTORE PUSH1 0x20 ADD SWAP1 DUP2 MSTORE PUSH1 0x20 ADD PUSH1 0x0 KECCAK256 SWAP1 POP PUSH2 0x7B6 PUSH8 0x3E22EFD14E301D19 PUSH1 0xC0 SHL PUSH2 0x1B82 JUMP JUMPDEST PUSH2 0x7CA PUSH8 0x83E894261B6D858 PUSH1 0xC0 SHL PUSH2 0x1B82 JUMP JUMPDEST PUSH2 0x7DE PUSH8 0x32BA9FFF0953FA67 PUSH1 0xC0 SHL PUSH2 0x1B82 JUMP JUMPDEST PUSH1 0x0 DUP2 PUSH1 0x2 ADD SLOAD GT PUSH2 0x825 JUMPI PUSH1 0x40 MLOAD PUSH32 0x8C379A000000000000000000000000000000000000000000000000000000000 DUP2 MSTORE PUSH1 0x4 ADD PUSH2 0x81C SWAP1 PUSH2 0x2EA0 JUMP JUMPDEST PUSH1 0x40 MLOAD DUP1 SWAP2 SUB SWAP1 REVERT JUMPDEST PUSH2 0x839 PUSH8 0x116E94D34C315146 PUSH1 0xC0 SHL PUSH2 0x1B82 JUMP JUMPDEST PUSH2 0x84D PUSH8 0x56D9BDF9065F57BE PUSH1 0xC0 SHL PUSH2 0x1B82 JUMP JUMPDEST PUSH2 0x861 PUSH8 0x6381856B2058E56B PUSH1 0xC0 SHL PUSH2 0x1B82 JUMP JUMPDEST PUSH1 0x0 DUP2 PUSH1 0x0 ADD SLOAD SWAP1 POP PUSH2 0x87E PUSH8 0xD25B845D91295841 PUSH1 0xC0 SHL PUSH2 0x1B82 JUMP JUMPDEST PUSH2 0x892 PUSH8 0x42169C68F52B43AA PUSH1 0xC0 SHL PUSH2 0x1B82 JUMP JUMPDEST PUSH1 0x0 DUP3 PUSH1 0x1 ADD SLOAD SWAP1 POP PUSH2 0x8AF PUSH8 0x2F9673E983ACB2F2 PUSH1 0xC0 SHL PUSH2 0x1B82 JUMP JUMPDEST PUSH2 0x8C3 PUSH8 0x6A5F3D7D6FACCA6C PUSH1 0xC0 SHL PUSH2 0x1B82 JUMP JUMPDEST PUSH1 0x0 PUSH2 0x8D0 DUP12 DUP5 DUP5 PUSH2 0x373 JUMP JUMPDEST SWAP1 POP PUSH2 0x8E6 PUSH8 0xAA0E7876118C90A4 PUSH1 0xC0 SHL PUSH2 0x1B82 JUMP JUMPDEST PUSH2 0x8FA PUSH8 0x285BC9A7CAF17F6B PUSH1 0xC0 SHL PUSH2 0x1B82 JUMP JUMPDEST PUSH2 0x90E PUSH8 0x83850E503E573D21 PUSH1 0xC0 SHL PUSH2 0x1B82 JUMP JUMPDEST DUP10 DUP2 LT ISZERO PUSH2 0x951 JUMPI PUSH1 0x40 MLOAD PUSH32 0x8C379A000000000000000000000000000000000000000000000000000000000 DUP2 MSTORE PUSH1 0x4 ADD PUSH2 0x948 SWAP1 PUSH2 0x2F0C JUMP JUMPDEST PUSH1 0x40 MLOAD DUP1 SWAP2 SUB SWAP1 REVERT JUMPDEST PUSH2 0x965 PUSH8 0x96B071AD2BA3CAA1 PUSH1 0xC0 SHL PUSH2 0x1B82 JUMP JUMPDEST PUSH2 0x979 PUSH8 0x26C21DD307B88D97 PUSH1 0xC0 SHL PUSH2 0x1B82 JUMP JUMPDEST PUSH2 0x98D PUSH8 0x161138DF0A78CC50 PUSH1 0xC0 SHL PUSH2 0x1B82 JUMP JUMPDEST DUP9 DUP9 PUSH1 0x0 DUP2 DUP2 LT PUSH2 0x9A1 JUMPI PUSH2 0x9A0 PUSH2 0x2E25 JUMP JUMPDEST JUMPDEST SWAP1 POP PUSH1 0x20 MUL ADD PUSH1 0x20 DUP2 ADD SWAP1 PUSH2 0x9B6 SWAP2 SWAP1 PUSH2 0x298E JUMP JUMPDEST PUSH20 0xFFFFFFFFFFFFFFFFFFFFFFFFFFFFFFFFFFFFFFFF AND PUSH4 0x23B872DD CALLER ADDRESS DUP15 PUSH1 0x40 MLOAD DUP5 PUSH4 0xFFFFFFFF AND PUSH1 0xE0 SHL DUP2 MSTORE PUSH1 0x4 ADD PUSH2 0x9F2 SWAP4 SWAP3 SWAP2 SWAP1 PUSH2 0x2F3B JUMP JUMPDEST PUSH1 0x20 PUSH1 0x40 MLOAD DUP1 DUP4 SUB DUP2 PUSH1 0x0 DUP8 GAS CALL ISZERO DUP1 ISZERO PUSH2 0xA11 JUMPI RETURNDATASIZE PUSH1 0x0 DUP1 RETURNDATACOPY RETURNDATASIZE PUSH1 0x0 REVERT JUMPDEST POP POP POP POP PUSH1 0x40 MLOAD RETURNDATASIZE PUSH1 0x1F NOT PUSH1 0x1F DUP3 ADD AND DUP3 ADD DUP1 PUSH1 0x40 MSTORE POP DUP2 ADD SWAP1 PUSH2 0xA35 SWAP2 SWAP1 PUSH2 0x2F9E JUMP JUMPDEST POP PUSH2 0xA4A PUSH8 0xCED5AD635078084A PUSH1 0xC0 SHL PUSH2 0x1B82 JUMP JUMPDEST PUSH2 0xA5E PUSH8 0x963581BE32DD9F3 PUSH1 0xC0 SHL PUSH2 0x1B82 JUMP JUMPDEST DUP9 DUP9 PUSH1 0x1 DUP2 DUP2 LT PUSH2 0xA72 JUMPI PUSH2 0xA71 PUSH2 0x2E25 JUMP JUMPDEST JUMPDEST SWAP1 POP PUSH1 0x20 MUL ADD PUSH1 0x20 DUP2 ADD SWAP1 PUSH2 0xA87 SWAP2 SWAP1 PUSH2 0x298E JUMP JUMPDEST PUSH20 0xFFFFFFFFFFFFFFFFFFFFFFFFFFFFFFFFFFFFFFFF AND PUSH4 0xA9059CBB DUP9 DUP4 PUSH1 0x40 MLOAD DUP4 PUSH4 0xFFFFFFFF AND PUSH1 0xE0 SHL DUP2 MSTORE PUSH1 0x4 ADD PUSH2 0xAC1 SWAP3 SWAP2 SWAP1 PUSH2 0x2FCB JUMP JUMPDEST PUSH1 0x20 PUSH1 0x40 MLOAD DUP1 DUP4 SUB DUP2 PUSH1 0x0 DUP8 GAS CALL ISZERO DUP1 ISZERO PUSH2 0xAE0 JUMPI RETURNDATASIZE PUSH1 0x0 DUP1 RETURNDATACOPY RETURNDATASIZE PUSH1 0x0 REVERT JUMPDEST POP POP POP POP PUSH1 0x40 MLOAD RETURNDATASIZE PUSH1 0x1F NOT PUSH1 0x1F DUP3 ADD AND DUP3 ADD DUP1 PUSH1 0x40 MSTORE POP DUP2 ADD SWAP1 PUSH2 0xB04 SWAP2 SWAP1 PUSH2 0x2F9E JUMP JUMPDEST POP PUSH2 0xB19 PUSH8 0xF4A7F25A64620B0D PUSH1 0xC0 SHL PUSH2 0x1B82 JUMP JUMPDEST DUP11 DUP5 PUSH1 0x0 ADD PUSH1 0x0 DUP3 DUP3 SLOAD PUSH2 0xB2D SWAP2 SWAP1 PUSH2 0x2C17 JUMP JUMPDEST SWAP3 POP POP DUP2 SWAP1 SSTORE POP PUSH2 0xB48 PUSH8 0x1AEE1200537B6DEB PUSH1 0xC0 SHL PUSH2 0x1B82 JUMP JUMPDEST DUP1 DUP5 PUSH1 0x1 ADD PUSH1 0x0 DUP3 DUP3 SLOAD PUSH2 0xB5C SWAP2 SWAP1 PUSH2 0x2FF4 JUMP JUMPDEST SWAP3 POP POP DUP2 SWAP1 SSTORE POP POP POP POP POP POP POP POP POP POP POP POP JUMP JUMPDEST PUSH1 0x0 DUP1 PUSH1 0x0 DUP4 PUSH20 0xFFFFFFFFFFFFFFFFFFFFFFFFFFFFFFFFFFFFFFFF AND PUSH20 0xFFFFFFFFFFFFFFFFFFFFFFFFFFFFFFFFFFFFFFFF AND DUP2 MSTORE PUSH1 0x20 ADD SWAP1 DUP2 MSTORE PUSH1 0x20 ADD PUSH1 0x0 KECCAK256 SLOAD SWAP1 POP SWAP2 SWAP1 POP JUMP JUMPDEST PUSH1 0x60 PUSH1 0x4 DUP1 SLOAD PUSH2 0xBC7 SWAP1 PUSH2 0x2D1C JUMP JUMPDEST DUP1 PUSH1 0x1F ADD PUSH1 0x20 DUP1 SWAP2 DIV MUL PUSH1 0x20 ADD PUSH1 0x40 MLOAD SWAP1 DUP2 ADD PUSH1 0x40 MSTORE DUP1 SWAP3 SWAP2 SWAP1 DUP2 DUP2 MSTORE PUSH1 0x20 ADD DUP3 DUP1 SLOAD PUSH2 0xBF3 SWAP1 PUSH2 0x2D1C JUMP JUMPDEST DUP1 ISZERO PUSH2 0xC40 JUMPI DUP1 PUSH1 0x1F LT PUSH2 0xC15 JUMPI PUSH2 0x100 DUP1 DUP4 SLOAD DIV MUL DUP4 MSTORE SWAP2 PUSH1 0x20 ADD SWAP2 PUSH2 0xC40 JUMP JUMPDEST DUP3 ADD SWAP2 SWAP1 PUSH1 0x0 MSTORE PUSH1 0x20 PUSH1 0x0 KECCAK256 SWAP1 JUMPDEST DUP2 SLOAD DUP2 MSTORE SWAP1 PUSH1 0x1 ADD SWAP1 PUSH1 0x20 ADD DUP1 DUP4 GT PUSH2 0xC23 JUMPI DUP3 SWAP1 SUB PUSH1 0x1F AND DUP3 ADD SWAP2 JUMPDEST POP POP POP POP POP SWAP1 POP SWAP1 JUMP JUMPDEST PUSH1 0x0 DUP1 PUSH2 0xC55 PUSH2 0x1B85 JUMP JUMPDEST SWAP1 POP PUSH2 0xC62 DUP2 DUP6 DUP6 PUSH2 0x1C34 JUMP JUMPDEST PUSH1 0x1 SWAP2 POP POP SWAP3 SWAP2 POP POP JUMP JUMPDEST PUSH1 0x0 PUSH2 0xC83 PUSH8 0x1951E8055B95A7EA PUSH1 0xC0 SHL PUSH2 0x1B82 JUMP JUMPDEST PUSH2 0xC97 PUSH8 0x3BF4C314F5CE0118 PUSH1 0xC0 SHL PUSH2 0x1B82 JUMP JUMPDEST PUSH2 0xCAB PUSH8 0x2761F92C1750C825 PUSH1 0xC0 SHL PUSH2 0x1B82 JUMP JUMPDEST PUSH1 0x0 PUSH2 0xCB7 DUP5 DUP5 PUSH2 0x1D28 JUMP JUMPDEST SWAP1 POP PUSH2 0xCCD PUSH8 0x7C5AEF20203DD472 PUSH1 0xC0 SHL PUSH2 0x1B82 JUMP JUMPDEST PUSH2 0xCE1 PUSH8 0xAB2C9125E91D850B PUSH1 0xC0 SHL PUSH2 0x1B82 JUMP JUMPDEST PUSH1 0x0 PUSH1 0x5 PUSH1 0x0 DUP4 DUP2 MSTORE PUSH1 0x20 ADD SWAP1 DUP2 MSTORE PUSH1 0x20 ADD PUSH1 0x0 KECCAK256 SWAP1 POP PUSH2 0xD0C PUSH8 0x6EC3148AEE9C42EF PUSH1 0xC0 SHL PUSH2 0x1B82 JUMP JUMPDEST PUSH2 0xD20 PUSH8 0x3E8D6CCAB534CF06 PUSH1 0xC0 SHL PUSH2 0x1B82 JUMP JUMPDEST PUSH2 0xD34 PUSH8 0x6AD602E8FA2344C7 PUSH1 0xC0 SHL PUSH2 0x1B82 JUMP JUMPDEST PUSH1 0x0 DUP2 PUSH1 0x0 ADD SLOAD GT DUP1 ISZERO PUSH2 0xD4C JUMPI POP PUSH1 0x0 DUP2 PUSH1 0x1 ADD SLOAD GT JUMPDEST PUSH2 0xD8B JUMPI PUSH1 0x40 MLOAD PUSH32 0x8C379A000000000000000000000000000000000000000000000000000000000 DUP2 MSTORE PUSH1 0x4 ADD PUSH2 0xD82 SWAP1 PUSH2 0x309A JUMP JUMPDEST PUSH1 0x40 MLOAD DUP1 SWAP2 SUB SWAP1 REVERT JUMPDEST PUSH2 0xD9F PUSH8 0xD746D9ECDD557565 PUSH1 0xC0 SHL PUSH2 0x1B82 JUMP JUMPDEST PUSH2 0xDB3 PUSH8 0x15144522463C0224 PUSH1 0xC0 SHL PUSH2 0x1B82 JUMP JUMPDEST DUP1 PUSH1 0x0 ADD SLOAD PUSH8 0xDE0B6B3A7640000 DUP3 PUSH1 0x1 ADD SLOAD PUSH2 0xDD0 SWAP2 SWAP1 PUSH2 0x2C4B JUMP JUMPDEST PUSH2 0xDDA SWAP2 SWAP1 PUSH2 0x2CBC JUMP JUMPDEST SWAP3 POP POP POP SWAP3 SWAP2 POP POP JUMP JUMPDEST PUSH1 0x0 DUP1 PUSH2 0xDFB PUSH8 0x7906149A051F2B39 PUSH1 0xC0 SHL PUSH2 0x1B82 JUMP JUMPDEST PUSH2 0xE0F PUSH8 0x6006E3062A03A0B8 PUSH1 0xC0 SHL PUSH2 0x1B82 JUMP JUMPDEST PUSH2 0xE23 PUSH8 0x513197441A1530A6 PUSH1 0xC0 SHL PUSH2 0x1B82 JUMP JUMPDEST PUSH2 0xE37 PUSH8 0x25785A67556A974B PUSH1 0xC0 SHL PUSH2 0x1B82 JUMP JUMPDEST DUP3 TIMESTAMP GT ISZERO PUSH2 0xE7A JUMPI PUSH1 0x40 MLOAD PUSH32 0x8C379A000000000000000000000000000000000000000000000000000000000 DUP2 MSTORE PUSH1 0x4 ADD PUSH2 0xE71 SWAP1 PUSH2 0x2D99 JUMP JUMPDEST PUSH1 0x40 MLOAD DUP1 SWAP2 SUB SWAP1 REVERT JUMPDEST PUSH2 0xE8E PUSH8 0x550CC05697BC6DDE PUSH1 0xC0 SHL PUSH2 0x1B82 JUMP JUMPDEST PUSH2 0xEA2 PUSH8 0x725A04ACAE1D3100 PUSH1 0xC0 SHL PUSH2 0x1B82 JUMP JUMPDEST PUSH2 0xEB6 PUSH8 0xAA2C42B12A2CAFB7 PUSH1 0xC0 SHL PUSH2 0x1B82 JUMP JUMPDEST PUSH2 0xECA PUSH8 0x6D9E6679F28AF32D PUSH1 0xC0 SHL PUSH2 0x1B82 JUMP JUMPDEST DUP7 PUSH2 0xED4 CALLER PUSH2 0xB70 JUMP JUMPDEST LT ISZERO PUSH2 0xF15 JUMPI PUSH1 0x40 MLOAD PUSH32 0x8C379A000000000000000000000000000000000000000000000000000000000 DUP2 MSTORE PUSH1 0x4 ADD PUSH2 0xF0C SWAP1 PUSH2 0x3106 JUMP JUMPDEST PUSH1 0x40 MLOAD DUP1 SWAP2 SUB SWAP1 REVERT JUMPDEST PUSH2 0xF29 PUSH8 0x67D42312328C3018 PUSH1 0xC0 SHL PUSH2 0x1B82 JUMP JUMPDEST PUSH2 0xF3D PUSH8 0xB3EE05227A80C836 PUSH1 0xC0 SHL PUSH2 0x1B82 JUMP JUMPDEST PUSH2 0xF51 PUSH8 0x4E035CBCD1BF4E55 PUSH1 0xC0 SHL PUSH2 0x1B82 JUMP JUMPDEST PUSH1 0x0 PUSH2 0xF5D DUP11 DUP11 PUSH2 0x1D28 JUMP JUMPDEST SWAP1 POP PUSH2 0xF73 PUSH8 0xDFAA979F2673C48A PUSH1 0xC0 SHL PUSH2 0x1B82 JUMP JUMPDEST PUSH2 0xF87 PUSH8 0xD07771B515A4CB0B PUSH1 0xC0 SHL PUSH2 0x1B82 JUMP JUMPDEST PUSH1 0x0 PUSH1 0x5 PUSH1 0x0 DUP4 DUP2 MSTORE PUSH1 0x20 ADD SWAP1 DUP2 MSTORE PUSH1 0x20 ADD PUSH1 0x0 KECCAK256 SWAP1 POP PUSH2 0xFB2 PUSH8 0x59C7298F3F986FCC PUSH1 0xC0 SHL PUSH2 0x1B82 JUMP JUMPDEST DUP1 PUSH1 0x2 ADD SLOAD DUP2 PUSH1 0x0 ADD SLOAD DUP11 PUSH2 0xFC7 SWAP2 SWAP1 PUSH2 0x2C4B JUMP JUMPDEST PUSH2 0xFD1 SWAP2 SWAP1 PUSH2 0x2CBC JUMP JUMPDEST SWAP4 POP PUSH2 0xFE7 PUSH8 0x12F8FC1B7AE6BCEE PUSH1 0xC0 SHL PUSH2 0x1B82 JUMP JUMPDEST DUP1 PUSH1 0x2 ADD SLOAD DUP2 PUSH1 0x1 ADD SLOAD DUP11 PUSH2 0xFFC SWAP2 SWAP1 PUSH2 0x2C4B JUMP JUMPDEST PUSH2 0x1006 SWAP2 SWAP1 PUSH2 0x2CBC JUMP JUMPDEST SWAP3 POP PUSH2 0x101C PUSH8 0xFA891C30D354CD01 PUSH1 0xC0 SHL PUSH2 0x1B82 JUMP JUMPDEST PUSH2 0x1030 PUSH8 0x83F75FC73DBF6AFB PUSH1 0xC0 SHL PUSH2 0x1B82 JUMP JUMPDEST PUSH2 0x1044 PUSH8 0xA6FBAE2E94E7A033 PUSH1 0xC0 SHL PUSH2 0x1B82 JUMP JUMPDEST DUP8 DUP5 LT ISZERO PUSH2 0x1087 JUMPI PUSH1 0x40 MLOAD PUSH32 0x8C379A000000000000000000000000000000000000000000000000000000000 DUP2 MSTORE PUSH1 0x4 ADD PUSH2 0x107E SWAP1 PUSH2 0x3172 JUMP JUMPDEST PUSH1 0x40 MLOAD DUP1 SWAP2 SUB SWAP1 REVERT JUMPDEST PUSH2 0x109B PUSH8 0x6EEB6C8A622E199 PUSH1 0xC0 SHL PUSH2 0x1B82 JUMP JUMPDEST PUSH2 0x10AF PUSH8 0x2B01C7B41ED9481D PUSH1 0xC0 SHL PUSH2 0x1B82 JUMP JUMPDEST PUSH2 0x10C3 PUSH8 0xA2723175AB4D36F0 PUSH1 0xC0 SHL PUSH2 0x1B82 JUMP JUMPDEST PUSH2 0x10D7 PUSH8 0xFA2797EFFD36F010 PUSH1 0xC0 SHL PUSH2 0x1B82 JUMP JUMPDEST DUP7 DUP4 LT ISZERO PUSH2 0x111A JUMPI PUSH1 0x40 MLOAD PUSH32 0x8C379A000000000000000000000000000000000000000000000000000000000 DUP2 MSTORE PUSH1 0x4 ADD PUSH2 0x1111 SWAP1 PUSH2 0x31DE JUMP JUMPDEST PUSH1 0x40 MLOAD DUP1 SWAP2 SUB SWAP1 REVERT JUMPDEST PUSH2 0x112E PUSH8 0x7DB09071589F784F PUSH1 0xC0 SHL PUSH2 0x1B82 JUMP JUMPDEST PUSH2 0x1142 PUSH8 0xCCE10E098A39FFD8 PUSH1 0xC0 SHL PUSH2 0x1B82 JUMP JUMPDEST DUP4 DUP2 PUSH1 0x0 ADD PUSH1 0x0 DUP3 DUP3 SLOAD PUSH2 0x1156 SWAP2 SWAP1 PUSH2 0x2FF4 JUMP JUMPDEST SWAP3 POP POP DUP2 SWAP1 SSTORE POP PUSH2 0x1171 PUSH8 0xF59B51F8A4EE2FFF PUSH1 0xC0 SHL PUSH2 0x1B82 JUMP JUMPDEST DUP3 DUP2 PUSH1 0x1 ADD PUSH1 0x0 DUP3 DUP3 SLOAD PUSH2 0x1185 SWAP2 SWAP1 PUSH2 0x2FF4 JUMP JUMPDEST SWAP3 POP POP DUP2 SWAP1 SSTORE POP PUSH2 0x11A0 PUSH8 0xC7E3C712F76AF8F4 PUSH1 0xC0 SHL PUSH2 0x1B82 JUMP JUMPDEST DUP9 DUP2 PUSH1 0x2 ADD PUSH1 0x0 DUP3 DUP3 SLOAD PUSH2 0x11B4 SWAP2 SWAP1 PUSH2 0x2FF4 JUMP JUMPDEST SWAP3 POP POP DUP2 SWAP1 SSTORE POP PUSH2 0x11CF PUSH8 0xBF153C7709D4B183 PUSH1 0xC0 SHL PUSH2 0x1B82 JUMP JUMPDEST PUSH2 0x11E3 PUSH8 0x9CA8ABB35B84C1A1 PUSH1 0xC0 SHL PUSH2 0x1B82 JUMP JUMPDEST PUSH2 0x11ED CALLER DUP11 PUSH2 0x1E3C JUMP JUMPDEST PUSH2 0x1201 PUSH8 0x86C570F8B4F316EF PUSH1 0xC0 SHL PUSH2 0x1B82 JUMP JUMPDEST PUSH2 0x1215 PUSH8 0x364C40C5A1D1B5B3 PUSH1 0xC0 SHL PUSH2 0x1B82 JUMP JUMPDEST DUP11 PUSH20 0xFFFFFFFFFFFFFFFFFFFFFFFFFFFFFFFFFFFFFFFF AND PUSH4 0xA9059CBB DUP8 DUP7 PUSH1 0x40 MLOAD DUP4 PUSH4 0xFFFFFFFF AND PUSH1 0xE0 SHL DUP2 MSTORE PUSH1 0x4 ADD PUSH2 0x1250 SWAP3 SWAP2 SWAP1 PUSH2 0x2FCB JUMP JUMPDEST PUSH1 0x20 PUSH1 0x40 MLOAD DUP1 DUP4 SUB DUP2 PUSH1 0x0 DUP8 GAS CALL ISZERO DUP1 ISZERO PUSH2 0x126F JUMPI RETURNDATASIZE PUSH1 0x0 DUP1 RETURNDATACOPY RETURNDATASIZE PUSH1 0x0 REVERT JUMPDEST POP POP POP POP PUSH1 0x40 MLOAD RETURNDATASIZE PUSH1 0x1F NOT PUSH1 0x1F DUP3 ADD AND DUP3 ADD DUP1 PUSH1 0x40 MSTORE POP DUP2 ADD SWAP1 PUSH2 0x1293 SWAP2 SWAP1 PUSH2 0x2F9E JUMP JUMPDEST POP PUSH2 0x12A8 PUSH8 0xB343B71EBFA9CA93 PUSH1 0xC0 SHL PUSH2 0x1B82 JUMP JUMPDEST PUSH2 0x12BC PUSH8 0x4576B0CF8E3E4113 PUSH1 0xC0 SHL PUSH2 0x1B82 JUMP JUMPDEST DUP10 PUSH20 0xFFFFFFFFFFFFFFFFFFFFFFFFFFFFFFFFFFFFFFFF AND PUSH4 0xA9059CBB DUP8 DUP6 PUSH1 0x40 MLOAD DUP4 PUSH4 0xFFFFFFFF AND PUSH1 0xE0 SHL DUP2 MSTORE PUSH1 0x4 ADD PUSH2 0x12F7 SWAP3 SWAP2 SWAP1 PUSH2 0x2FCB JUMP JUMPDEST PUSH1 0x20 PUSH1 0x40 MLOAD DUP1 DUP4 SUB DUP2 PUSH1 0x0 DUP8 GAS CALL ISZERO DUP1 ISZERO PUSH2 0x1316 JUMPI RETURNDATASIZE PUSH1 0x0 DUP1 RETURNDATACOPY RETURNDATASIZE PUSH1 0x0 REVERT JUMPDEST POP POP POP POP PUSH1 0x40 MLOAD RETURNDATASIZE PUSH1 0x1F NOT PUSH1 0x1F DUP3 ADD AND DUP3 ADD DUP1 PUSH1 0x40 MSTORE POP DUP2 ADD SWAP1 PUSH2 0x133A SWAP2 SWAP1 PUSH2 0x2F9E JUMP JUMPDEST POP PUSH2 0x134F PUSH8 0x937AE16DD8823634 PUSH1 0xC0 SHL PUSH2 0x1B82 JUMP JUMPDEST PUSH2 0x1363 PUSH8 0x72B58FB377D432CA PUSH1 0xC0 SHL PUSH2 0x1B82 JUMP JUMPDEST POP POP SWAP8 POP SWAP8 SWAP6 POP POP POP POP POP POP JUMP JUMPDEST PUSH1 0x0 PUSH1 0x1 PUSH1 0x0 DUP5 PUSH20 0xFFFFFFFFFFFFFFFFFFFFFFFFFFFFFFFFFFFFFFFF AND PUSH20 0xFFFFFFFFFFFFFFFFFFFFFFFFFFFFFFFFFFFFFFFF AND DUP2 MSTORE PUSH1 0x20 ADD SWAP1 DUP2 MSTORE PUSH1 0x20 ADD PUSH1 0x0 KECCAK256 PUSH1 0x0 DUP4 PUSH20 0xFFFFFFFFFFFFFFFFFFFFFFFFFFFFFFFFFFFFFFFF AND PUSH20 0xFFFFFFFFFFFFFFFFFFFFFFFFFFFFFFFFFFFFFFFF AND DUP2 MSTORE PUSH1 0x20 ADD SWAP1 DUP2 MSTORE PUSH1 0x20 ADD PUSH1 0x0 KECCAK256 SLOAD SWAP1 POP SWAP3 SWAP2 POP POP JUMP JUMPDEST PUSH1 0x0 DUP1 PUSH1 0x0 PUSH2 0x1411 PUSH8 0xF01DF4A85E973039 PUSH1 0xC0 SHL PUSH2 0x1B82 JUMP JUMPDEST PUSH2 0x1425 PUSH8 0x75BAB746AA49B51A PUSH1 0xC0 SHL PUSH2 0x1B82 JUMP JUMPDEST PUSH2 0x1439 PUSH8 0x88F26B38517104A3 PUSH1 0xC0 SHL PUSH2 0x1B82 JUMP JUMPDEST PUSH2 0x144D PUSH8 0xC74D81686B66AC94 PUSH1 0xC0 SHL PUSH2 0x1B82 JUMP JUMPDEST DUP4 TIMESTAMP GT ISZERO PUSH2 0x1490 JUMPI PUSH1 0x40 MLOAD PUSH32 0x8C379A000000000000000000000000000000000000000000000000000000000 DUP2 MSTORE PUSH1 0x4 ADD PUSH2 0x1487 SWAP1 PUSH2 0x2D99 JUMP JUMPDEST PUSH1 0x40 MLOAD DUP1 SWAP2 SUB SWAP1 REVERT JUMPDEST PUSH2 0x14A4 PUSH8 0xDE75BAC661514065 PUSH1 0xC0 SHL PUSH2 0x1B82 JUMP JUMPDEST PUSH2 0x14B8 PUSH8 0x134CFB5C1C122FB6 PUSH1 0xC0 SHL PUSH2 0x1B82 JUMP JUMPDEST PUSH2 0x14CC PUSH8 0x5E075BB6183732E6 PUSH1 0xC0 SHL PUSH2 0x1B82 JUMP JUMPDEST PUSH1 0x0 PUSH2 0x14D8 DUP13 DUP13 PUSH2 0x1D28 JUMP JUMPDEST SWAP1 POP PUSH2 0x14EE PUSH8 0x35E3550C2880E1D2 PUSH1 0xC0 SHL PUSH2 0x1B82 JUMP JUMPDEST PUSH2 0x1502 PUSH8 0xD150448ED24BABA8 PUSH1 0xC0 SHL PUSH2 0x1B82 JUMP JUMPDEST PUSH1 0x0 PUSH1 0x5 PUSH1 0x0 DUP4 DUP2 MSTORE PUSH1 0x20 ADD SWAP1 DUP2 MSTORE PUSH1 0x20 ADD PUSH1 0x0 KECCAK256 SWAP1 POP PUSH2 0x152D PUSH8 0x73A8A6B7100CCC77 PUSH1 0xC0 SHL PUSH2 0x1B82 JUMP JUMPDEST PUSH2 0x1541 PUSH8 0x663BDFF8CB29F914 PUSH1 0xC0 SHL PUSH2 0x1B82 JUMP JUMPDEST PUSH1 0x0 DUP2 PUSH1 0x2 ADD SLOAD SUB PUSH2 0x15BE JUMPI PUSH2 0x1561 PUSH8 0xC69E36A0DC22F190 PUSH1 0xC0 SHL PUSH2 0x1B82 JUMP JUMPDEST PUSH2 0x1575 PUSH8 0x44B5BDD6658B5824 PUSH1 0xC0 SHL PUSH2 0x1B82 JUMP JUMPDEST DUP11 SWAP5 POP PUSH2 0x158C PUSH8 0xB16E3622652F65D7 PUSH1 0xC0 SHL PUSH2 0x1B82 JUMP JUMPDEST DUP10 SWAP4 POP PUSH2 0x15A3 PUSH8 0x2B67F87313939D2D PUSH1 0xC0 SHL PUSH2 0x1B82 JUMP JUMPDEST PUSH2 0x15B7 DUP5 DUP7 PUSH2 0x15B2 SWAP2 SWAP1 PUSH2 0x2C4B JUMP JUMPDEST PUSH2 0x1EBE JUMP JUMPDEST SWAP3 POP PUSH2 0x18A6 JUMP JUMPDEST PUSH2 0x15D2 PUSH8 0xE36BF70BC833F7BA PUSH1 0xC0 SHL PUSH2 0x1B82 JUMP JUMPDEST PUSH2 0x15E6 PUSH8 0x355B7D7240291FF4 PUSH1 0xC0 SHL PUSH2 0x1B82 JUMP JUMPDEST PUSH2 0x15FA PUSH8 0x1CE9351320D82CF7 PUSH1 0xC0 SHL PUSH2 0x1B82 JUMP JUMPDEST PUSH1 0x0 DUP2 PUSH1 0x0 ADD SLOAD DUP3 PUSH1 0x1 ADD SLOAD DUP14 PUSH2 0x1611 SWAP2 SWAP1 PUSH2 0x2C4B JUMP JUMPDEST PUSH2 0x161B SWAP2 SWAP1 PUSH2 0x2CBC JUMP JUMPDEST SWAP1 POP PUSH2 0x1631 PUSH8 0x18A898F136D11263 PUSH1 0xC0 SHL PUSH2 0x1B82 JUMP JUMPDEST PUSH2 0x1645 PUSH8 0x86FEF4D0AACCD64E PUSH1 0xC0 SHL PUSH2 0x1B82 JUMP JUMPDEST DUP11 DUP2 GT PUSH2 0x1726 JUMPI PUSH2 0x1660 PUSH8 0xB19CA05991CF7401 PUSH1 0xC0 SHL PUSH2 0x1B82 JUMP JUMPDEST PUSH2 0x1674 PUSH8 0x9E53A3C548B07B43 PUSH1 0xC0 SHL PUSH2 0x1B82 JUMP JUMPDEST PUSH2 0x1688 PUSH8 0x77C6B89E3AE0F831 PUSH1 0xC0 SHL PUSH2 0x1B82 JUMP JUMPDEST PUSH2 0x169C PUSH8 0x1884C5AE009B26E1 PUSH1 0xC0 SHL PUSH2 0x1B82 JUMP JUMPDEST DUP9 DUP2 LT ISZERO PUSH2 0x16DF JUMPI PUSH1 0x40 MLOAD PUSH32 0x8C379A000000000000000000000000000000000000000000000000000000000 DUP2 MSTORE PUSH1 0x4 ADD PUSH2 0x16D6 SWAP1 PUSH2 0x31DE JUMP JUMPDEST PUSH1 0x40 MLOAD DUP1 SWAP2 SUB SWAP1 REVERT JUMPDEST PUSH2 0x16F3 PUSH8 0xE4C92268988A9468 PUSH1 0xC0 SHL PUSH2 0x1B82 JUMP JUMPDEST PUSH2 0x1707 PUSH8 0x5C5D7AED01B9BBB7 PUSH1 0xC0 SHL PUSH2 0x1B82 JUMP JUMPDEST DUP12 SWAP6 POP PUSH2 0x171E PUSH8 0x6538DCE836C0F3E5 PUSH1 0xC0 SHL PUSH2 0x1B82 JUMP JUMPDEST DUP1 SWAP5 POP PUSH2 0x1848 JUMP JUMPDEST PUSH2 0x173A PUSH8 0x6D022238BCC15FBD PUSH1 0xC0 SHL PUSH2 0x1B82 JUMP JUMPDEST PUSH2 0x174E PUSH8 0x2575601D1F989A2E PUSH1 0xC0 SHL PUSH2 0x1B82 JUMP JUMPDEST PUSH2 0x1762 PUSH8 0x692D47E8CB361AF8 PUSH1 0xC0 SHL PUSH2 0x1B82 JUMP JUMPDEST PUSH1 0x0 DUP3 PUSH1 0x1 ADD SLOAD DUP4 PUSH1 0x0 ADD SLOAD DUP14 PUSH2 0x1779 SWAP2 SWAP1 PUSH2 0x2C4B JUMP JUMPDEST PUSH2 0x1783 SWAP2 SWAP1 PUSH2 0x2CBC JUMP JUMPDEST SWAP1 POP PUSH2 0x1799 PUSH8 0x2EF3A09FDE7BF17E PUSH1 0xC0 SHL PUSH2 0x1B82 JUMP JUMPDEST PUSH2 0x17AD PUSH8 0x92D2D0ECEC3AFD1F PUSH1 0xC0 SHL PUSH2 0x1B82 JUMP JUMPDEST PUSH2 0x17C1 PUSH8 0xC8316FBA0C200B30 PUSH1 0xC0 SHL PUSH2 0x1B82 JUMP JUMPDEST DUP11 DUP2 LT ISZERO PUSH2 0x1804 JUMPI PUSH1 0x40 MLOAD PUSH32 0x8C379A000000000000000000000000000000000000000000000000000000000 DUP2 MSTORE PUSH1 0x4 ADD PUSH2 0x17FB SWAP1 PUSH2 0x3172 JUMP JUMPDEST PUSH1 0x40 MLOAD DUP1 SWAP2 SUB SWAP1 REVERT JUMPDEST PUSH2 0x1818 PUSH8 0x4567A6C10451E781 PUSH1 0xC0 SHL PUSH2 0x1B82 JUMP JUMPDEST PUSH2 0x182C PUSH8 0xEBA028B3B68B1934 PUSH1 0xC0 SHL PUSH2 0x1B82 JUMP JUMPDEST DUP1 SWAP7 POP PUSH2 0x1843 PUSH8 0xEF7BDB879EB61F36 PUSH1 0xC0 SHL PUSH2 0x1B82 JUMP JUMPDEST DUP12 SWAP6 POP POP JUMPDEST PUSH2 0x185C PUSH8 0xF503FA34A4FB63B1 PUSH1 0xC0 SHL PUSH2 0x1B82 JUMP JUMPDEST PUSH2 0x18A2 DUP3 PUSH1 0x0 ADD SLOAD DUP4 PUSH1 0x2 ADD SLOAD DUP9 PUSH2 0x1874 SWAP2 SWAP1 PUSH2 0x2C4B JUMP JUMPDEST PUSH2 0x187E SWAP2 SWAP1 PUSH2 0x2CBC JUMP JUMPDEST DUP4 PUSH1 0x1 ADD SLOAD DUP5 PUSH1 0x2 ADD SLOAD DUP9 PUSH2 0x1893 SWAP2 SWAP1 PUSH2 0x2C4B JUMP JUMPDEST PUSH2 0x189D SWAP2 SWAP1 PUSH2 0x2CBC JUMP JUMPDEST PUSH2 0x205B JUMP JUMPDEST SWAP4 POP POP JUMPDEST PUSH2 0x18BA PUSH8 0xBF1EC8D66CDC09CC PUSH1 0xC0 SHL PUSH2 0x1B82 JUMP JUMPDEST PUSH2 0x18CE PUSH8 0x455276F83A843583 PUSH1 0xC0 SHL PUSH2 0x1B82 JUMP JUMPDEST PUSH2 0x18E2 PUSH8 0x577A6DAC4E6319C PUSH1 0xC0 SHL PUSH2 0x1B82 JUMP JUMPDEST PUSH1 0x0 DUP4 GT PUSH2 0x1925 JUMPI PUSH1 0x40 MLOAD PUSH32 0x8C379A000000000000000000000000000000000000000000000000000000000 DUP2 MSTORE PUSH1 0x4 ADD PUSH2 0x191C SWAP1 PUSH2 0x324A JUMP JUMPDEST PUSH1 0x40 MLOAD DUP1 SWAP2 SUB SWAP1 REVERT JUMPDEST PUSH2 0x1939 PUSH8 0x297CD6695EAD5BA1 PUSH1 0xC0 SHL PUSH2 0x1B82 JUMP JUMPDEST PUSH2 0x194D PUSH8 0xD438F14132C96E98 PUSH1 0xC0 SHL PUSH2 0x1B82 JUMP JUMPDEST PUSH2 0x1961 PUSH8 0x7094A0068199544 PUSH1 0xC0 SHL PUSH2 0x1B82 JUMP JUMPDEST DUP13 PUSH20 0xFFFFFFFFFFFFFFFFFFFFFFFFFFFFFFFFFFFFFFFF AND PUSH4 0x23B872DD CALLER ADDRESS DUP9 PUSH1 0x40 MLOAD DUP5 PUSH4 0xFFFFFFFF AND PUSH1 0xE0 SHL DUP2 MSTORE PUSH1 0x4 ADD PUSH2 0x199E SWAP4 SWAP3 SWAP2 SWAP1 PUSH2 0x2F3B JUMP JUMPDEST PUSH1 0x20 PUSH1 0x40 MLOAD DUP1 DUP4 SUB DUP2 PUSH1 0x0 DUP8 GAS CALL ISZERO DUP1 ISZERO PUSH2 0x19BD JUMPI RETURNDATASIZE PUSH1 0x0 DUP1 RETURNDATACOPY RETURNDATASIZE PUSH1 0x0 REVERT JUMPDEST POP POP POP POP PUSH1 0x40 MLOAD RETURNDATASIZE PUSH1 0x1F NOT PUSH1 0x1F DUP3 ADD AND DUP3 ADD DUP1 PUSH1 0x40 MSTORE POP DUP2 ADD SWAP1 PUSH2 0x19E1 SWAP2 SWAP1 PUSH2 0x2F9E JUMP JUMPDEST POP PUSH2 0x19F6 PUSH8 0x6C71633C56662E03 PUSH1 0xC0 SHL PUSH2 0x1B82 JUMP JUMPDEST PUSH2 0x1A0A PUSH8 0xC25DB0057084741D PUSH1 0xC0 SHL PUSH2 0x1B82 JUMP JUMPDEST DUP12 PUSH20 0xFFFFFFFFFFFFFFFFFFFFFFFFFFFFFFFFFFFFFFFF AND PUSH4 0x23B872DD CALLER ADDRESS DUP8 PUSH1 0x40 MLOAD DUP5 PUSH4 0xFFFFFFFF AND PUSH1 0xE0 SHL DUP2 MSTORE PUSH1 0x4 ADD PUSH2 0x1A47 SWAP4 SWAP3 SWAP2 SWAP1 PUSH2 0x2F3B JUMP JUMPDEST PUSH1 0x20 PUSH1 0x40 MLOAD DUP1 DUP4 SUB DUP2 PUSH1 0x0 DUP8 GAS CALL ISZERO DUP1 ISZERO PUSH2 0x1A66 JUMPI RETURNDATASIZE PUSH1 0x0 DUP1 RETURNDATACOPY RETURNDATASIZE PUSH1 0x0 REVERT JUMPDEST POP POP POP POP PUSH1 0x40 MLOAD RETURNDATASIZE PUSH1 0x1F NOT PUSH1 0x1F DUP3 ADD AND DUP3 ADD DUP1 PUSH1 0x40 MSTORE POP DUP2 ADD SWAP1 PUSH2 0x1A8A SWAP2 SWAP1 PUSH2 0x2F9E JUMP JUMPDEST POP PUSH2 0x1A9F PUSH8 0xD55438322A2CF53B PUSH1 0xC0 SHL PUSH2 0x1B82 JUMP JUMPDEST DUP5 DUP2 PUSH1 0x0 ADD PUSH1 0x0 DUP3 DUP3 SLOAD PUSH2 0x1AB3 SWAP2 SWAP1 PUSH2 0x2C17 JUMP JUMPDEST SWAP3 POP POP DUP2 SWAP1 SSTORE POP PUSH2 0x1ACE PUSH8 0x179E2C8F4DA2A7E7 PUSH1 0xC0 SHL PUSH2 0x1B82 JUMP JUMPDEST DUP4 DUP2 PUSH1 0x1 ADD PUSH1 0x0 DUP3 DUP3 SLOAD PUSH2 0x1AE2 SWAP2 SWAP1 PUSH2 0x2C17 JUMP JUMPDEST SWAP3 POP POP DUP2 SWAP1 SSTORE POP PUSH2 0x1AFD PUSH8 0x3D0B5E67D1DE5422 PUSH1 0xC0 SHL PUSH2 0x1B82 JUMP JUMPDEST DUP3 DUP2 PUSH1 0x2 ADD PUSH1 0x0 DUP3 DUP3 SLOAD PUSH2 0x1B11 SWAP2 SWAP1 PUSH2 0x2C17 JUMP JUMPDEST SWAP3 POP POP DUP2 SWAP1 SSTORE POP PUSH2 0x1B2C PUSH8 0xA74A40C646C6096F PUSH1 0xC0 SHL PUSH2 0x1B82 JUMP JUMPDEST PUSH2 0x1B40 PUSH8 0x4DE1B98AC7D0F4F6 PUSH1 0xC0 SHL PUSH2 0x1B82 JUMP JUMPDEST PUSH2 0x1B4A DUP8 DUP5 PUSH2 0x2072 JUMP JUMPDEST PUSH2 0x1B5E PUSH8 0x31AF0AA1B01DD14F PUSH1 0xC0 SHL PUSH2 0x1B82 JUMP JUMPDEST PUSH2 0x1B72 PUSH8 0x94504B8FD2E41969 PUSH1 0xC0 SHL PUSH2 0x1B82 JUMP JUMPDEST POP POP SWAP9 POP SWAP9 POP SWAP9 SWAP6 POP POP POP POP POP POP JUMP JUMPDEST POP JUMP JUMPDEST PUSH1 0x0 CALLER SWAP1 POP SWAP1 JUMP JUMPDEST PUSH2 0x1B9A DUP4 DUP4 DUP4 PUSH1 0x1 PUSH2 0x20F4 JUMP JUMPDEST POP POP POP JUMP JUMPDEST PUSH1 0x0 PUSH2 0x1BAB DUP5 DUP5 PUSH2 0x1371 JUMP JUMPDEST SWAP1 POP PUSH32 0xFFFFFFFFFFFFFFFFFFFFFFFFFFFFFFFFFFFFFFFFFFFFFFFFFFFFFFFFFFFFFFFF DUP2 LT ISZERO PUSH2 0x1C2E JUMPI DUP2 DUP2 LT ISZERO PUSH2 0x1C1E JUMPI DUP3 DUP2 DUP4 PUSH1 0x40 MLOAD PUSH32 0xFB8F41B200000000000000000000000000000000000000000000000000000000 DUP2 MSTORE PUSH1 0x4 ADD PUSH2 0x1C15 SWAP4 SWAP3 SWAP2 SWAP1 PUSH2 0x326A JUMP JUMPDEST PUSH1 0x40 MLOAD DUP1 SWAP2 SUB SWAP1 REVERT JUMPDEST PUSH2 0x1C2D DUP5 DUP5 DUP5 DUP5 SUB PUSH1 0x0 PUSH2 0x20F4 JUMP JUMPDEST JUMPDEST POP POP POP POP JUMP JUMPDEST PUSH1 0x0 PUSH20 0xFFFFFFFFFFFFFFFFFFFFFFFFFFFFFFFFFFFFFFFF AND DUP4 PUSH20 0xFFFFFFFFFFFFFFFFFFFFFFFFFFFFFFFFFFFFFFFF AND SUB PUSH2 0x1CA6 JUMPI PUSH1 0x0 PUSH1 0x40 MLOAD PUSH32 0x96C6FD1E00000000000000000000000000000000000000000000000000000000 DUP2 MSTORE PUSH1 0x4 ADD PUSH2 0x1C9D SWAP2 SWAP1 PUSH2 0x32A1 JUMP JUMPDEST PUSH1 0x40 MLOAD DUP1 SWAP2 SUB SWAP1 REVERT JUMPDEST PUSH1 0x0 PUSH20 0xFFFFFFFFFFFFFFFFFFFFFFFFFFFFFFFFFFFFFFFF AND DUP3 PUSH20 0xFFFFFFFFFFFFFFFFFFFFFFFFFFFFFFFFFFFFFFFF AND SUB PUSH2 0x1D18 JUMPI PUSH1 0x0 PUSH1 0x40 MLOAD PUSH32 0xEC442F0500000000000000000000000000000000000000000000000000000000 DUP2 MSTORE PUSH1 0x4 ADD PUSH2 0x1D0F SWAP2 SWAP1 PUSH2 0x32A1 JUMP JUMPDEST PUSH1 0x40 MLOAD DUP1 SWAP2 SUB SWAP1 REVERT JUMPDEST PUSH2 0x1D23 DUP4 DUP4 DUP4 PUSH2 0x22CB JUMP JUMPDEST POP POP POP JUMP JUMPDEST PUSH1 0x0 PUSH2 0x1D3E PUSH8 0xCF5C84D15A4A6F22 PUSH1 0xC0 SHL PUSH2 0x1B82 JUMP JUMPDEST PUSH2 0x1D52 PUSH8 0x79E985C38FE0836F PUSH1 0xC0 SHL PUSH2 0x1B82 JUMP JUMPDEST PUSH2 0x1D66 PUSH8 0x25D877769B148DE5 PUSH1 0xC0 SHL PUSH2 0x1B82 JUMP JUMPDEST PUSH1 0x0 DUP1 DUP4 PUSH20 0xFFFFFFFFFFFFFFFFFFFFFFFFFFFFFFFFFFFFFFFF AND DUP6 PUSH20 0xFFFFFFFFFFFFFFFFFFFFFFFFFFFFFFFFFFFFFFFF AND LT DUP1 PUSH2 0x1DB3 JUMPI POP PUSH2 0x1DB2 PUSH8 0x3F67740998E134E3 PUSH1 0xC0 SHL PUSH2 0x24F0 JUMP JUMPDEST JUMPDEST DUP1 ISZERO PUSH2 0x1DCF JUMPI POP PUSH2 0x1DCE PUSH8 0x5573103052ED58FD PUSH1 0xC0 SHL PUSH2 0x24F7 JUMP JUMPDEST JUMPDEST PUSH2 0x1DDA JUMPI DUP4 DUP6 PUSH2 0x1DDD JUMP JUMPDEST DUP5 DUP5 JUMPDEST SWAP2 POP SWAP2 POP PUSH2 0x1DF5 PUSH8 0x94CDD39C17B313DB PUSH1 0xC0 SHL PUSH2 0x1B82 JUMP JUMPDEST PUSH2 0x1E09 PUSH8 0x4A08F61386CD1FD8 PUSH1 0xC0 SHL PUSH2 0x1B82 JUMP JUMPDEST DUP2 DUP2 PUSH1 0x40 MLOAD PUSH1 0x20 ADD PUSH2 0x1E1C SWAP3 SWAP2 SWAP1 PUSH2 0x3304 JUMP JUMPDEST PUSH1 0x40 MLOAD PUSH1 0x20 DUP2 DUP4 SUB SUB DUP2 MSTORE SWAP1 PUSH1 0x40 MSTORE DUP1 MLOAD SWAP1 PUSH1 0x20 ADD KECCAK256 SWAP3 POP POP POP SWAP3 SWAP2 POP POP JUMP JUMPDEST PUSH1 0x0 PUSH20 0xFFFFFFFFFFFFFFFFFFFFFFFFFFFFFFFFFFFFFFFF AND DUP3 PUSH20 0xFFFFFFFFFFFFFFFFFFFFFFFFFFFFFFFFFFFFFFFF AND SUB PUSH2 0x1EAE JUMPI PUSH1 0x0 PUSH1 0x40 MLOAD PUSH32 0x96C6FD1E00000000000000000000000000000000000000000000000000000000 DUP2 MSTORE PUSH1 0x4 ADD PUSH2 0x1EA5 SWAP2 SWAP1 PUSH2 0x32A1 JUMP JUMPDEST PUSH1 0x40 MLOAD DUP1 SWAP2 SUB SWAP1 REVERT JUMPDEST PUSH2 0x1EBA DUP3 PUSH1 0x0 DUP4 PUSH2 0x22CB JUMP JUMPDEST POP POP JUMP JUMPDEST PUSH1 0x0 PUSH1 0x1 DUP3 GT PUSH2 0x1ED0 JUMPI DUP2 SWAP1 POP PUSH2 0x2056 JUMP JUMPDEST PUSH1 0x0 DUP3 SWAP1 POP PUSH1 0x0 PUSH1 0x1 SWAP1 POP PUSH17 0x100000000000000000000000000000000 DUP3 LT PUSH2 0x1F02 JUMPI PUSH1 0x80 DUP3 SWAP1 SHR SWAP2 POP PUSH1 0x40 DUP2 SWAP1 SHL SWAP1 POP JUMPDEST PUSH9 0x10000000000000000 DUP3 LT PUSH2 0x1F21 JUMPI PUSH1 0x40 DUP3 SWAP1 SHR SWAP2 POP PUSH1 0x20 DUP2 SWAP1 SHL SWAP1 POP JUMPDEST PUSH5 0x100000000 DUP3 LT PUSH2 0x1F3C JUMPI PUSH1 0x20 DUP3 SWAP1 SHR SWAP2 POP PUSH1 0x10 DUP2 SWAP1 SHL SWAP1 POP JUMPDEST PUSH3 0x10000 DUP3 LT PUSH2 0x1F55 JUMPI PUSH1 0x10 DUP3 SWAP1 SHR SWAP2 POP PUSH1 0x8 DUP2 SWAP1 SHL SWAP1 POP JUMPDEST PUSH2 0x100 DUP3 LT PUSH2 0x1F6D JUMPI PUSH1 0x8 DUP3 SWAP1 SHR SWAP2 POP PUSH1 0x4 DUP2 SWAP1 SHL SWAP1 POP JUMPDEST PUSH1 0x10 DUP3 LT PUSH2 0x1F84 JUMPI PUSH1 0x4 DUP3 SWAP1 SHR SWAP2 POP PUSH1 0x2 DUP2 SWAP1 SHL SWAP1 POP JUMPDEST PUSH1 0x4 DUP3 LT PUSH2 0x1F94 JUMPI PUSH1 0x1 DUP2 SWAP1 SHL SWAP1 POP JUMPDEST PUSH1 0x1 DUP2 PUSH1 0x3 MUL SWAP1 SHR SWAP1 POP PUSH1 0x1 DUP2 DUP6 DUP2 PUSH2 0x1FB0 JUMPI PUSH2 0x1FAF PUSH2 0x2C8D JUMP JUMPDEST JUMPDEST DIV DUP3 ADD SWAP1 SHR SWAP1 POP PUSH1 0x1 DUP2 DUP6 DUP2 PUSH2 0x1FC9 JUMPI PUSH2 0x1FC8 PUSH2 0x2C8D JUMP JUMPDEST JUMPDEST DIV DUP3 ADD SWAP1 SHR SWAP1 POP PUSH1 0x1 DUP2 DUP6 DUP2 PUSH2 0x1FE2 JUMPI PUSH2 0x1FE1 PUSH2 0x2C8D JUMP JUMPDEST JUMPDEST DIV DUP3 ADD SWAP1 SHR SWAP1 POP PUSH1 0x1 DUP2 DUP6 DUP2 PUSH2 0x1FFB JUMPI PUSH2 0x1FFA PUSH2 0x2C8D JUMP JUMPDEST JUMPDEST DIV DUP3 ADD SWAP1 SHR SWAP1 POP PUSH1 0x1 DUP2 DUP6 DUP2 PUSH2 0x2014 JUMPI PUSH2 0x2013 PUSH2 0x2C8D JUMP JUMPDEST JUMPDEST DIV DUP3 ADD SWAP1 SHR SWAP1 POP PUSH1 0x1 DUP2 DUP6 DUP2 PUSH2 0x202D JUMPI PUSH2 0x202C PUSH2 0x2C8D JUMP JUMPDEST JUMPDEST DIV DUP3 ADD SWAP1 SHR SWAP1 POP PUSH2 0x204F DUP2 DUP6 DUP2 PUSH2 0x2047 JUMPI PUSH2 0x2046 PUSH2 0x2C8D JUMP JUMPDEST JUMPDEST DIV DUP3 GT PUSH2 0x2502 JUMP JUMPDEST DUP2 SUB SWAP3 POP POP POP JUMPDEST SWAP2 SWAP1 POP JUMP JUMPDEST PUSH1 0x0 PUSH2 0x206A DUP3 DUP5 LT DUP5 DUP5 PUSH2 0x250E JUMP JUMPDEST SWAP1 POP SWAP3 SWAP2 POP POP JUMP JUMPDEST PUSH1 0x0 PUSH20 0xFFFFFFFFFFFFFFFFFFFFFFFFFFFFFFFFFFFFFFFF AND DUP3 PUSH20 0xFFFFFFFFFFFFFFFFFFFFFFFFFFFFFFFFFFFFFFFF AND SUB PUSH2 0x20E4 JUMPI PUSH1 0x0 PUSH1 0x40 MLOAD PUSH32 0xEC442F0500000000000000000000000000000000000000000000000000000000 DUP2 MSTORE PUSH1 0x4 ADD PUSH2 0x20DB SWAP2 SWAP1 PUSH2 0x32A1 JUMP JUMPDEST PUSH1 0x40 MLOAD DUP1 SWAP2 SUB SWAP1 REVERT JUMPDEST PUSH2 0x20F0 PUSH1 0x0 DUP4 DUP4 PUSH2 0x22CB JUMP JUMPDEST POP POP JUMP JUMPDEST PUSH1 0x0 PUSH20 0xFFFFFFFFFFFFFFFFFFFFFFFFFFFFFFFFFFFFFFFF AND DUP5 PUSH20 0xFFFFFFFFFFFFFFFFFFFFFFFFFFFFFFFFFFFFFFFF AND SUB PUSH2 0x2166 JUMPI PUSH1 0x0 PUSH1 0x40 MLOAD PUSH32 0xE602DF0500000000000000000000000000000000000000000000000000000000 DUP2 MSTORE PUSH1 0x4 ADD PUSH2 0x215D SWAP2 SWAP1 PUSH2 0x32A1 JUMP JUMPDEST PUSH1 0x40 MLOAD DUP1 SWAP2 SUB SWAP1 REVERT JUMPDEST PUSH1 0x0 PUSH20 0xFFFFFFFFFFFFFFFFFFFFFFFFFFFFFFFFFFFFFFFF AND DUP4 PUSH20 0xFFFFFFFFFFFFFFFFFFFFFFFFFFFFFFFFFFFFFFFF AND SUB PUSH2 0x21D8 JUMPI PUSH1 0x0 PUSH1 0x40 MLOAD PUSH32 0x94280D6200000000000000000000000000000000000000000000000000000000 DUP2 MSTORE PUSH1 0x4 ADD PUSH2 0x21CF SWAP2 SWAP1 PUSH2 0x32A1 JUMP JUMPDEST PUSH1 0x40 MLOAD DUP1 SWAP2 SUB SWAP1 REVERT JUMPDEST DUP2 PUSH1 0x1 PUSH1 0x0 DUP7 PUSH20 0xFFFFFFFFFFFFFFFFFFFFFFFFFFFFFFFFFFFFFFFF AND PUSH20 0xFFFFFFFFFFFFFFFFFFFFFFFFFFFFFFFFFFFFFFFF AND DUP2 MSTORE PUSH1 0x20 ADD SWAP1 DUP2 MSTORE PUSH1 0x20 ADD PUSH1 0x0 KECCAK256 PUSH1 0x0 DUP6 PUSH20 0xFFFFFFFFFFFFFFFFFFFFFFFFFFFFFFFFFFFFFFFF AND PUSH20 0xFFFFFFFFFFFFFFFFFFFFFFFFFFFFFFFFFFFFFFFF AND DUP2 MSTORE PUSH1 0x20 ADD SWAP1 DUP2 MSTORE PUSH1 0x20 ADD PUSH1 0x0 KECCAK256 DUP2 SWAP1 SSTORE POP DUP1 ISZERO PUSH2 0x22C5 JUMPI DUP3 PUSH20 0xFFFFFFFFFFFFFFFFFFFFFFFFFFFFFFFFFFFFFFFF AND DUP5 PUSH20 0xFFFFFFFFFFFFFFFFFFFFFFFFFFFFFFFFFFFFFFFF AND PUSH32 0x8C5BE1E5EBEC7D5BD14F71427D1E84F3DD0314C0F7B2291E5B200AC8C7C3B925 DUP5 PUSH1 0x40 MLOAD PUSH2 0x22BC SWAP2 SWAP1 PUSH2 0x25CA JUMP JUMPDEST PUSH1 0x40 MLOAD DUP1 SWAP2 SUB SWAP1 LOG3 JUMPDEST POP POP POP POP JUMP JUMPDEST PUSH1 0x0 PUSH20 0xFFFFFFFFFFFFFFFFFFFFFFFFFFFFFFFFFFFFFFFF AND DUP4 PUSH20 0xFFFFFFFFFFFFFFFFFFFFFFFFFFFFFFFFFFFFFFFF AND SUB PUSH2 0x231D JUMPI DUP1 PUSH1 0x2 PUSH1 0x0 DUP3 DUP3 SLOAD PUSH2 0x2311 SWAP2 SWAP1 PUSH2 0x2C17 JUMP JUMPDEST SWAP3 POP POP DUP2 SWAP1 SSTORE POP PUSH2 0x23F0 JUMP JUMPDEST PUSH1 0x0 DUP1 PUSH1 0x0 DUP6 PUSH20 0xFFFFFFFFFFFFFFFFFFFFFFFFFFFFFFFFFFFFFFFF AND PUSH20 0xFFFFFFFFFFFFFFFFFFFFFFFFFFFFFFFFFFFFFFFF AND DUP2 MSTORE PUSH1 0x20 ADD SWAP1 DUP2 MSTORE PUSH1 0x20 ADD PUSH1 0x0 KECCAK256 SLOAD SWAP1 POP DUP2 DUP2 LT ISZERO PUSH2 0x23A9 JUMPI DUP4 DUP2 DUP4 PUSH1 0x40 MLOAD PUSH32 0xE450D38C00000000000000000000000000000000000000000000000000000000 DUP2 MSTORE PUSH1 0x4 ADD PUSH2 0x23A0 SWAP4 SWAP3 SWAP2 SWAP1 PUSH2 0x326A JUMP JUMPDEST PUSH1 0x40 MLOAD DUP1 SWAP2 SUB SWAP1 REVERT JUMPDEST DUP2 DUP2 SUB PUSH1 0x0 DUP1 DUP7 PUSH20 0xFFFFFFFFFFFFFFFFFFFFFFFFFFFFFFFFFFFFFFFF AND PUSH20 0xFFFFFFFFFFFFFFFFFFFFFFFFFFFFFFFFFFFFFFFF AND DUP2 MSTORE PUSH1 0x20 ADD SWAP1 DUP2 MSTORE PUSH1 0x20 ADD PUSH1 0x0 KECCAK256 DUP2 SWAP1 SSTORE POP POP JUMPDEST PUSH1 0x0 PUSH20 0xFFFFFFFFFFFFFFFFFFFFFFFFFFFFFFFFFFFFFFFF AND DUP3 PUSH20 0xFFFFFFFFFFFFFFFFFFFFFFFFFFFFFFFFFFFFFFFF AND SUB PUSH2 0x2439 JUMPI DUP1 PUSH1 0x2 PUSH1 0x0 DUP3 DUP3 SLOAD SUB SWAP3 POP POP DUP2 SWAP1 SSTORE POP PUSH2 0x2486 JUMP JUMPDEST DUP1 PUSH1 0x0 DUP1 DUP5 PUSH20 0xFFFFFFFFFFFFFFFFFFFFFFFFFFFFFFFFFFFFFFFF AND PUSH20 0xFFFFFFFFFFFFFFFFFFFFFFFFFFFFFFFFFFFFFFFF AND DUP2 MSTORE PUSH1 0x20 ADD SWAP1 DUP2 MSTORE PUSH1 0x20 ADD PUSH1 0x0 KECCAK256 PUSH1 0x0 DUP3 DUP3 SLOAD ADD SWAP3 POP POP DUP2 SWAP1 SSTORE POP JUMPDEST DUP2 PUSH20 0xFFFFFFFFFFFFFFFFFFFFFFFFFFFFFFFFFFFFFFFF AND DUP4 PUSH20 0xFFFFFFFFFFFFFFFFFFFFFFFFFFFFFFFFFFFFFFFF AND PUSH32 0xDDF252AD1BE2C89B69C2B068FC378DAA952BA7F163C4A11628F55A4DF523B3EF DUP4 PUSH1 0x40 MLOAD PUSH2 0x24E3 SWAP2 SWAP1 PUSH2 0x25CA JUMP JUMPDEST PUSH1 0x40 MLOAD DUP1 SWAP2 SUB SWAP1 LOG3 POP POP POP JUMP JUMPDEST PUSH1 0x0 SWAP2 SWAP1 POP JUMP JUMPDEST PUSH1 0x0 PUSH1 0x1 SWAP1 POP SWAP2 SWAP1 POP JUMP JUMPDEST PUSH1 0x0 DUP2 ISZERO ISZERO SWAP1 POP SWAP2 SWAP1 POP JUMP JUMPDEST PUSH1 0x0 PUSH2 0x2519 DUP5 PUSH2 0x2502 JUMP JUMPDEST DUP3 DUP5 XOR MUL DUP3 XOR SWAP1 POP SWAP4 SWAP3 POP POP POP JUMP JUMPDEST PUSH1 0x0 DUP1 REVERT JUMPDEST PUSH1 0x0 DUP1 REVERT JUMPDEST PUSH1 0x0 DUP2 SWAP1 POP SWAP2 SWAP1 POP JUMP JUMPDEST PUSH2 0x2545 DUP2 PUSH2 0x2532 JUMP JUMPDEST DUP2 EQ PUSH2 0x2550 JUMPI PUSH1 0x0 DUP1 REVERT JUMPDEST POP JUMP JUMPDEST PUSH1 0x0 DUP2 CALLDATALOAD SWAP1 POP PUSH2 0x2562 DUP2 PUSH2 0x253C JUMP JUMPDEST SWAP3 SWAP2 POP POP JUMP JUMPDEST PUSH1 0x0 DUP1 PUSH1 0x0 PUSH1 0x60 DUP5 DUP7 SUB SLT ISZERO PUSH2 0x2581 JUMPI PUSH2 0x2580 PUSH2 0x2528 JUMP JUMPDEST JUMPDEST PUSH1 0x0 PUSH2 0x258F DUP7 DUP3 DUP8 ADD PUSH2 0x2553 JUMP JUMPDEST SWAP4 POP POP PUSH1 0x20 PUSH2 0x25A0 DUP7 DUP3 DUP8 ADD PUSH2 0x2553 JUMP JUMPDEST SWAP3 POP POP PUSH1 0x40 PUSH2 0x25B1 DUP7 DUP3 DUP8 ADD PUSH2 0x2553 JUMP JUMPDEST SWAP2 POP POP SWAP3 POP SWAP3 POP SWAP3 JUMP JUMPDEST PUSH2 0x25C4 DUP2 PUSH2 0x2532 JUMP JUMPDEST DUP3 MSTORE POP POP JUMP JUMPDEST PUSH1 0x0 PUSH1 0x20 DUP3 ADD SWAP1 POP PUSH2 0x25DF PUSH1 0x0 DUP4 ADD DUP5 PUSH2 0x25BB JUMP JUMPDEST SWAP3 SWAP2 POP POP JUMP JUMPDEST PUSH1 0x0 DUP2 MLOAD SWAP1 POP SWAP2 SWAP1 POP JUMP JUMPDEST PUSH1 0x0 DUP3 DUP3 MSTORE PUSH1 0x20 DUP3 ADD SWAP1 POP SWAP3 SWAP2 POP POP JUMP JUMPDEST PUSH1 0x0 JUMPDEST DUP4 DUP2 LT ISZERO PUSH2 0x261F JUMPI DUP1 DUP3 ADD MLOAD DUP2 DUP5 ADD MSTORE PUSH1 0x20 DUP2 ADD SWAP1 POP PUSH2 0x2604 JUMP JUMPDEST PUSH1 0x0 DUP5 DUP5 ADD MSTORE POP POP POP POP JUMP JUMPDEST PUSH1 0x0 PUSH1 0x1F NOT PUSH1 0x1F DUP4 ADD AND SWAP1 POP SWAP2 SWAP1 POP JUMP JUMPDEST PUSH1 0x0 PUSH2 0x2647 DUP3 PUSH2 0x25E5 JUMP JUMPDEST PUSH2 0x2651 DUP2 DUP6 PUSH2 0x25F0 JUMP JUMPDEST SWAP4 POP PUSH2 0x2661 DUP2 DUP6 PUSH1 0x20 DUP7 ADD PUSH2 0x2601 JUMP JUMPDEST PUSH2 0x266A DUP2 PUSH2 0x262B JUMP JUMPDEST DUP5 ADD SWAP2 POP POP SWAP3 SWAP2 POP POP JUMP JUMPDEST PUSH1 0x0 PUSH1 0x20 DUP3 ADD SWAP1 POP DUP2 DUP2 SUB PUSH1 0x0 DUP4 ADD MSTORE PUSH2 0x268F DUP2 DUP5 PUSH2 0x263C JUMP JUMPDEST SWAP1 POP SWAP3 SWAP2 POP POP JUMP JUMPDEST PUSH1 0x0 PUSH20 0xFFFFFFFFFFFFFFFFFFFFFFFFFFFFFFFFFFFFFFFF DUP3 AND SWAP1 POP SWAP2 SWAP1 POP JUMP JUMPDEST PUSH1 0x0 PUSH2 0x26C2 DUP3 PUSH2 0x2697 JUMP JUMPDEST SWAP1 POP SWAP2 SWAP1 POP JUMP JUMPDEST PUSH2 0x26D2 DUP2 PUSH2 0x26B7 JUMP JUMPDEST DUP2 EQ PUSH2 0x26DD JUMPI PUSH1 0x0 DUP1 REVERT JUMPDEST POP JUMP JUMPDEST PUSH1 0x0 DUP2 CALLDATALOAD SWAP1 POP PUSH2 0x26EF DUP2 PUSH2 0x26C9 JUMP JUMPDEST SWAP3 SWAP2 POP POP JUMP JUMPDEST PUSH1 0x0 DUP1 PUSH1 0x40 DUP4 DUP6 SUB SLT ISZERO PUSH2 0x270C JUMPI PUSH2 0x270B PUSH2 0x2528 JUMP JUMPDEST JUMPDEST PUSH1 0x0 PUSH2 0x271A DUP6 DUP3 DUP7 ADD PUSH2 0x26E0 JUMP JUMPDEST SWAP3 POP POP PUSH1 0x20 PUSH2 0x272B DUP6 DUP3 DUP7 ADD PUSH2 0x2553 JUMP JUMPDEST SWAP2 POP POP SWAP3 POP SWAP3 SWAP1 POP JUMP JUMPDEST PUSH1 0x0 DUP2 ISZERO ISZERO SWAP1 POP SWAP2 SWAP1 POP JUMP JUMPDEST PUSH2 0x274A DUP2 PUSH2 0x2735 JUMP JUMPDEST DUP3 MSTORE POP POP JUMP JUMPDEST PUSH1 0x0 PUSH1 0x20 DUP3 ADD SWAP1 POP PUSH2 0x2765 PUSH1 0x0 DUP4 ADD DUP5 PUSH2 0x2741 JUMP JUMPDEST SWAP3 SWAP2 POP POP JUMP JUMPDEST PUSH1 0x0 DUP1 PUSH1 0x0 PUSH1 0x60 DUP5 DUP7 SUB SLT ISZERO PUSH2 0x2784 JUMPI PUSH2 0x2783 PUSH2 0x2528 JUMP JUMPDEST JUMPDEST PUSH1 0x0 PUSH2 0x2792 DUP7 DUP3 DUP8 ADD PUSH2 0x26E0 JUMP JUMPDEST SWAP4 POP POP PUSH1 0x20 PUSH2 0x27A3 DUP7 DUP3 DUP8 ADD PUSH2 0x26E0 JUMP JUMPDEST SWAP3 POP POP PUSH1 0x40 PUSH2 0x27B4 DUP7 DUP3 DUP8 ADD PUSH2 0x2553 JUMP JUMPDEST SWAP2 POP POP SWAP3 POP SWAP3 POP SWAP3 JUMP JUMPDEST PUSH1 0x0 PUSH1 0xFF DUP3 AND SWAP1 POP SWAP2 SWAP1 POP JUMP JUMPDEST PUSH2 0x27D4 DUP2 PUSH2 0x27BE JUMP JUMPDEST DUP3 MSTORE POP POP JUMP JUMPDEST PUSH1 0x0 PUSH1 0x20 DUP3 ADD SWAP1 POP PUSH2 0x27EF PUSH1 0x0 DUP4 ADD DUP5 PUSH2 0x27CB JUMP JUMPDEST SWAP3 SWAP2 POP POP JUMP JUMPDEST PUSH1 0x0 DUP2 SWAP1 POP SWAP2 SWAP1 POP JUMP JUMPDEST PUSH2 0x2808 DUP2 PUSH2 0x27F5 JUMP JUMPDEST DUP2 EQ PUSH2 0x2813 JUMPI PUSH1 0x0 DUP1 REVERT JUMPDEST POP JUMP JUMPDEST PUSH1 0x0 DUP2 CALLDATALOAD SWAP1 POP PUSH2 0x2825 DUP2 PUSH2 0x27FF JUMP JUMPDEST SWAP3 SWAP2 POP POP JUMP JUMPDEST PUSH1 0x0 PUSH1 0x20 DUP3 DUP5 SUB SLT ISZERO PUSH2 0x2841 JUMPI PUSH2 0x2840 PUSH2 0x2528 JUMP JUMPDEST JUMPDEST PUSH1 0x0 PUSH2 0x284F DUP5 DUP3 DUP6 ADD PUSH2 0x2816 JUMP JUMPDEST SWAP2 POP POP SWAP3 SWAP2 POP POP JUMP JUMPDEST PUSH1 0x0 PUSH1 0x60 DUP3 ADD SWAP1 POP PUSH2 0x286D PUSH1 0x0 DUP4 ADD DUP7 PUSH2 0x25BB JUMP JUMPDEST PUSH2 0x287A PUSH1 0x20 DUP4 ADD DUP6 PUSH2 0x25BB JUMP JUMPDEST PUSH2 0x2887 PUSH1 0x40 DUP4 ADD DUP5 PUSH2 0x25BB JUMP JUMPDEST SWAP5 SWAP4 POP POP POP POP JUMP JUMPDEST PUSH1 0x0 DUP1 REVERT JUMPDEST PUSH1 0x0 DUP1 REVERT JUMPDEST PUSH1 0x0 DUP1 REVERT JUMPDEST PUSH1 0x0 DUP1 DUP4 PUSH1 0x1F DUP5 ADD SLT PUSH2 0x28B4 JUMPI PUSH2 0x28B3 PUSH2 0x288F JUMP JUMPDEST JUMPDEST DUP3 CALLDATALOAD SWAP1 POP PUSH8 0xFFFFFFFFFFFFFFFF DUP2 GT ISZERO PUSH2 0x28D1 JUMPI PUSH2 0x28D0 PUSH2 0x2894 JUMP JUMPDEST JUMPDEST PUSH1 0x20 DUP4 ADD SWAP2 POP DUP4 PUSH1 0x20 DUP3 MUL DUP4 ADD GT ISZERO PUSH2 0x28ED JUMPI PUSH2 0x28EC PUSH2 0x2899 JUMP JUMPDEST JUMPDEST SWAP3 POP SWAP3 SWAP1 POP JUMP JUMPDEST PUSH1 0x0 DUP1 PUSH1 0x0 DUP1 PUSH1 0x0 DUP1 PUSH1 0xA0 DUP8 DUP10 SUB SLT ISZERO PUSH2 0x2911 JUMPI PUSH2 0x2910 PUSH2 0x2528 JUMP JUMPDEST JUMPDEST PUSH1 0x0 PUSH2 0x291F DUP10 DUP3 DUP11 ADD PUSH2 0x2553 JUMP JUMPDEST SWAP7 POP POP PUSH1 0x20 PUSH2 0x2930 DUP10 DUP3 DUP11 ADD PUSH2 0x2553 JUMP JUMPDEST SWAP6 POP POP PUSH1 0x40 DUP8 ADD CALLDATALOAD PUSH8 0xFFFFFFFFFFFFFFFF DUP2 GT ISZERO PUSH2 0x2951 JUMPI PUSH2 0x2950 PUSH2 0x252D JUMP JUMPDEST JUMPDEST PUSH2 0x295D DUP10 DUP3 DUP11 ADD PUSH2 0x289E JUMP JUMPDEST SWAP5 POP SWAP5 POP POP PUSH1 0x60 PUSH2 0x2970 DUP10 DUP3 DUP11 ADD PUSH2 0x26E0 JUMP JUMPDEST SWAP3 POP POP PUSH1 0x80 PUSH2 0x2981 DUP10 DUP3 DUP11 ADD PUSH2 0x2553 JUMP JUMPDEST SWAP2 POP POP SWAP3 SWAP6 POP SWAP3 SWAP6 POP SWAP3 SWAP6 JUMP JUMPDEST PUSH1 0x0 PUSH1 0x20 DUP3 DUP5 SUB SLT ISZERO PUSH2 0x29A4 JUMPI PUSH2 0x29A3 PUSH2 0x2528 JUMP JUMPDEST JUMPDEST PUSH1 0x0 PUSH2 0x29B2 DUP5 DUP3 DUP6 ADD PUSH2 0x26E0 JUMP JUMPDEST SWAP2 POP POP SWAP3 SWAP2 POP POP JUMP JUMPDEST PUSH1 0x0 DUP1 PUSH1 0x40 DUP4 DUP6 SUB SLT ISZERO PUSH2 0x29D2 JUMPI PUSH2 0x29D1 PUSH2 0x2528 JUMP JUMPDEST JUMPDEST PUSH1 0x0 PUSH2 0x29E0 DUP6 DUP3 DUP7 ADD PUSH2 0x26E0 JUMP JUMPDEST SWAP3 POP POP PUSH1 0x20 PUSH2 0x29F1 DUP6 DUP3 DUP7 ADD PUSH2 0x26E0 JUMP JUMPDEST SWAP2 POP POP SWAP3 POP SWAP3 SWAP1 POP JUMP JUMPDEST PUSH1 0x0 DUP1 PUSH1 0x0 DUP1 PUSH1 0x0 DUP1 PUSH1 0x0 PUSH1 0xE0 DUP9 DUP11 SUB SLT ISZERO PUSH2 0x2A1A JUMPI PUSH2 0x2A19 PUSH2 0x2528 JUMP JUMPDEST JUMPDEST PUSH1 0x0 PUSH2 0x2A28 DUP11 DUP3 DUP12 ADD PUSH2 0x26E0 JUMP JUMPDEST SWAP8 POP POP PUSH1 0x20 PUSH2 0x2A39 DUP11 DUP3 DUP12 ADD PUSH2 0x26E0 JUMP JUMPDEST SWAP7 POP POP PUSH1 0x40 PUSH2 0x2A4A DUP11 DUP3 DUP12 ADD PUSH2 0x2553 JUMP JUMPDEST SWAP6 POP POP PUSH1 0x60 PUSH2 0x2A5B DUP11 DUP3 DUP12 ADD PUSH2 0x2553 JUMP JUMPDEST SWAP5 POP POP PUSH1 0x80 PUSH2 0x2A6C DUP11 DUP3 DUP12 ADD PUSH2 0x2553 JUMP JUMPDEST SWAP4 POP POP PUSH1 0xA0 PUSH2 0x2A7D DUP11 DUP3 DUP12 ADD PUSH2 0x26E0 JUMP JUMPDEST SWAP3 POP POP PUSH1 0xC0 PUSH2 0x2A8E DUP11 DUP3 DUP12 ADD PUSH2 0x2553 JUMP JUMPDEST SWAP2 POP POP SWAP3 SWAP6 SWAP9 SWAP2 SWAP5 SWAP8 POP SWAP3 SWAP6 POP JUMP JUMPDEST PUSH1 0x0 PUSH1 0x40 DUP3 ADD SWAP1 POP PUSH2 0x2AB2 PUSH1 0x0 DUP4 ADD DUP6 PUSH2 0x25BB JUMP JUMPDEST PUSH2 0x2ABF PUSH1 0x20 DUP4 ADD DUP5 PUSH2 0x25BB JUMP JUMPDEST SWAP4 SWAP3 POP POP POP JUMP JUMPDEST PUSH1 0x0 DUP1 PUSH1 0x0 DUP1 PUSH1 0x0 DUP1 PUSH1 0x0 DUP1 PUSH2 0x100 DUP10 DUP12 SUB SLT ISZERO PUSH2 0x2AE7 JUMPI PUSH2 0x2AE6 PUSH2 0x2528 JUMP JUMPDEST JUMPDEST PUSH1 0x0 PUSH2 0x2AF5 DUP12 DUP3 DUP13 ADD PUSH2 0x26E0 JUMP JUMPDEST SWAP9 POP POP PUSH1 0x20 PUSH2 0x2B06 DUP12 DUP3 DUP13 ADD PUSH2 0x26E0 JUMP JUMPDEST SWAP8 POP POP PUSH1 0x40 PUSH2 0x2B17 DUP12 DUP3 DUP13 ADD PUSH2 0x2553 JUMP JUMPDEST SWAP7 POP POP PUSH1 0x60 PUSH2 0x2B28 DUP12 DUP3 DUP13 ADD PUSH2 0x2553 JUMP JUMPDEST SWAP6 POP POP PUSH1 0x80 PUSH2 0x2B39 DUP12 DUP3 DUP13 ADD PUSH2 0x2553 JUMP JUMPDEST SWAP5 POP POP PUSH1 0xA0 PUSH2 0x2B4A DUP12 DUP3 DUP13 ADD PUSH2 0x2553 JUMP JUMPDEST SWAP4 POP POP PUSH1 0xC0 PUSH2 0x2B5B DUP12 DUP3 DUP13 ADD PUSH2 0x26E0 JUMP JUMPDEST SWAP3 POP POP PUSH1 0xE0 PUSH2 0x2B6C DUP12 DUP3 DUP13 ADD PUSH2 0x2553 JUMP JUMPDEST SWAP2 POP POP SWAP3 SWAP6 SWAP9 POP SWAP3 SWAP6 SWAP9 SWAP1 SWAP4 SWAP7 POP JUMP JUMPDEST PUSH32 0x496E76616C696420696E7075742C2074727920616761696E2E00000000000000 PUSH1 0x0 DUP3 ADD MSTORE POP JUMP JUMPDEST PUSH1 0x0 PUSH2 0x2BB2 PUSH1 0x19 DUP4 PUSH2 0x25F0 JUMP JUMPDEST SWAP2 POP PUSH2 0x2BBD DUP3 PUSH2 0x2B7C JUMP JUMPDEST PUSH1 0x20 DUP3 ADD SWAP1 POP SWAP2 SWAP1 POP JUMP JUMPDEST PUSH1 0x0 PUSH1 0x20 DUP3 ADD SWAP1 POP DUP2 DUP2 SUB PUSH1 0x0 DUP4 ADD MSTORE PUSH2 0x2BE1 DUP2 PUSH2 0x2BA5 JUMP JUMPDEST SWAP1 POP SWAP2 SWAP1 POP JUMP JUMPDEST PUSH32 0x4E487B7100000000000000000000000000000000000000000000000000000000 PUSH1 0x0 MSTORE PUSH1 0x11 PUSH1 0x4 MSTORE PUSH1 0x24 PUSH1 0x0 REVERT JUMPDEST PUSH1 0x0 PUSH2 0x2C22 DUP3 PUSH2 0x2532 JUMP JUMPDEST SWAP2 POP PUSH2 0x2C2D DUP4 PUSH2 0x2532 JUMP JUMPDEST SWAP3 POP DUP3 DUP3 ADD SWAP1 POP DUP1 DUP3 GT ISZERO PUSH2 0x2C45 JUMPI PUSH2 0x2C44 PUSH2 0x2BE8 JUMP JUMPDEST JUMPDEST SWAP3 SWAP2 POP POP JUMP JUMPDEST PUSH1 0x0 PUSH2 0x2C56 DUP3 PUSH2 0x2532 JUMP JUMPDEST SWAP2 POP PUSH2 0x2C61 DUP4 PUSH2 0x2532 JUMP JUMPDEST SWAP3 POP DUP3 DUP3 MUL PUSH2 0x2C6F DUP2 PUSH2 0x2532 JUMP JUMPDEST SWAP2 POP DUP3 DUP3 DIV DUP5 EQ DUP4 ISZERO OR PUSH2 0x2C86 JUMPI PUSH2 0x2C85 PUSH2 0x2BE8 JUMP JUMPDEST JUMPDEST POP SWAP3 SWAP2 POP POP JUMP JUMPDEST PUSH32 0x4E487B7100000000000000000000000000000000000000000000000000000000 PUSH1 0x0 MSTORE PUSH1 0x12 PUSH1 0x4 MSTORE PUSH1 0x24 PUSH1 0x0 REVERT JUMPDEST PUSH1 0x0 PUSH2 0x2CC7 DUP3 PUSH2 0x2532 JUMP JUMPDEST SWAP2 POP PUSH2 0x2CD2 DUP4 PUSH2 0x2532 JUMP JUMPDEST SWAP3 POP DUP3 PUSH2 0x2CE2 JUMPI PUSH2 0x2CE1 PUSH2 0x2C8D JUMP JUMPDEST JUMPDEST DUP3 DUP3 DIV SWAP1 POP SWAP3 SWAP2 POP POP JUMP JUMPDEST PUSH32 0x4E487B7100000000000000000000000000000000000000000000000000000000 PUSH1 0x0 MSTORE PUSH1 0x22 PUSH1 0x4 MSTORE PUSH1 0x24 PUSH1 0x0 REVERT JUMPDEST PUSH1 0x0 PUSH1 0x2 DUP3 DIV SWAP1 POP PUSH1 0x1 DUP3 AND DUP1 PUSH2 0x2D34 JUMPI PUSH1 0x7F DUP3 AND SWAP2 POP JUMPDEST PUSH1 0x20 DUP3 LT DUP2 SUB PUSH2 0x2D47 JUMPI PUSH2 0x2D46 PUSH2 0x2CED JUMP JUMPDEST JUMPDEST POP SWAP2 SWAP1 POP JUMP JUMPDEST PUSH32 0x5472616E73616374696F6E206578706972656400000000000000000000000000 PUSH1 0x0 DUP3 ADD MSTORE POP JUMP JUMPDEST PUSH1 0x0 PUSH2 0x2D83 PUSH1 0x13 DUP4 PUSH2 0x25F0 JUMP JUMPDEST SWAP2 POP PUSH2 0x2D8E DUP3 PUSH2 0x2D4D JUMP JUMPDEST PUSH1 0x20 DUP3 ADD SWAP1 POP SWAP2 SWAP1 POP JUMP JUMPDEST PUSH1 0x0 PUSH1 0x20 DUP3 ADD SWAP1 POP DUP2 DUP2 SUB PUSH1 0x0 DUP4 ADD MSTORE PUSH2 0x2DB2 DUP2 PUSH2 0x2D76 JUMP JUMPDEST SWAP1 POP SWAP2 SWAP1 POP JUMP JUMPDEST PUSH32 0x496E76616C696420737761702070617468000000000000000000000000000000 PUSH1 0x0 DUP3 ADD MSTORE POP JUMP JUMPDEST PUSH1 0x0 PUSH2 0x2DEF PUSH1 0x11 DUP4 PUSH2 0x25F0 JUMP JUMPDEST SWAP2 POP PUSH2 0x2DFA DUP3 PUSH2 0x2DB9 JUMP JUMPDEST PUSH1 0x20 DUP3 ADD SWAP1 POP SWAP2 SWAP1 POP JUMP JUMPDEST PUSH1 0x0 PUSH1 0x20 DUP3 ADD SWAP1 POP DUP2 DUP2 SUB PUSH1 0x0 DUP4 ADD MSTORE PUSH2 0x2E1E DUP2 PUSH2 0x2DE2 JUMP JUMPDEST SWAP1 POP SWAP2 SWAP1 POP JUMP JUMPDEST PUSH32 0x4E487B7100000000000000000000000000000000000000000000000000000000 PUSH1 0x0 MSTORE PUSH1 0x32 PUSH1 0x4 MSTORE PUSH1 0x24 PUSH1 0x0 REVERT JUMPDEST PUSH32 0x4E6F206C697175696469747920617661696C61626C6500000000000000000000 PUSH1 0x0 DUP3 ADD MSTORE POP JUMP JUMPDEST PUSH1 0x0 PUSH2 0x2E8A PUSH1 0x16 DUP4 PUSH2 0x25F0 JUMP JUMPDEST SWAP2 POP PUSH2 0x2E95 DUP3 PUSH2 0x2E54 JUMP JUMPDEST PUSH1 0x20 DUP3 ADD SWAP1 POP SWAP2 SWAP1 POP JUMP JUMPDEST PUSH1 0x0 PUSH1 0x20 DUP3 ADD SWAP1 POP DUP2 DUP2 SUB PUSH1 0x0 DUP4 ADD MSTORE PUSH2 0x2EB9 DUP2 PUSH2 0x2E7D JUMP JUMPDEST SWAP1 POP SWAP2 SWAP1 POP JUMP JUMPDEST PUSH32 0x4F757470757420746F6F206C6F77000000000000000000000000000000000000 PUSH1 0x0 DUP3 ADD MSTORE POP JUMP JUMPDEST PUSH1 0x0 PUSH2 0x2EF6 PUSH1 0xE DUP4 PUSH2 0x25F0 JUMP JUMPDEST SWAP2 POP PUSH2 0x2F01 DUP3 PUSH2 0x2EC0 JUMP JUMPDEST PUSH1 0x20 DUP3 ADD SWAP1 POP SWAP2 SWAP1 POP JUMP JUMPDEST PUSH1 0x0 PUSH1 0x20 DUP3 ADD SWAP1 POP DUP2 DUP2 SUB PUSH1 0x0 DUP4 ADD MSTORE PUSH2 0x2F25 DUP2 PUSH2 0x2EE9 JUMP JUMPDEST SWAP1 POP SWAP2 SWAP1 POP JUMP JUMPDEST PUSH2 0x2F35 DUP2 PUSH2 0x26B7 JUMP JUMPDEST DUP3 MSTORE POP POP JUMP JUMPDEST PUSH1 0x0 PUSH1 0x60 DUP3 ADD SWAP1 POP PUSH2 0x2F50 PUSH1 0x0 DUP4 ADD DUP7 PUSH2 0x2F2C JUMP JUMPDEST PUSH2 0x2F5D PUSH1 0x20 DUP4 ADD DUP6 PUSH2 0x2F2C JUMP JUMPDEST PUSH2 0x2F6A PUSH1 0x40 DUP4 ADD DUP5 PUSH2 0x25BB JUMP JUMPDEST SWAP5 SWAP4 POP POP POP POP JUMP JUMPDEST PUSH2 0x2F7B DUP2 PUSH2 0x2735 JUMP JUMPDEST DUP2 EQ PUSH2 0x2F86 JUMPI PUSH1 0x0 DUP1 REVERT JUMPDEST POP JUMP JUMPDEST PUSH1 0x0 DUP2 MLOAD SWAP1 POP PUSH2 0x2F98 DUP2 PUSH2 0x2F72 JUMP JUMPDEST SWAP3 SWAP2 POP POP JUMP JUMPDEST PUSH1 0x0 PUSH1 0x20 DUP3 DUP5 SUB SLT ISZERO PUSH2 0x2FB4 JUMPI PUSH2 0x2FB3 PUSH2 0x2528 JUMP JUMPDEST JUMPDEST PUSH1 0x0 PUSH2 0x2FC2 DUP5 DUP3 DUP6 ADD PUSH2 0x2F89 JUMP JUMPDEST SWAP2 POP POP SWAP3 SWAP2 POP POP JUMP JUMPDEST PUSH1 0x0 PUSH1 0x40 DUP3 ADD SWAP1 POP PUSH2 0x2FE0 PUSH1 0x0 DUP4 ADD DUP6 PUSH2 0x2F2C JUMP JUMPDEST PUSH2 0x2FED PUSH1 0x20 DUP4 ADD DUP5 PUSH2 0x25BB JUMP JUMPDEST SWAP4 SWAP3 POP POP POP JUMP JUMPDEST PUSH1 0x0 PUSH2 0x2FFF DUP3 PUSH2 0x2532 JUMP JUMPDEST SWAP2 POP PUSH2 0x300A DUP4 PUSH2 0x2532 JUMP JUMPDEST SWAP3 POP DUP3 DUP3 SUB SWAP1 POP DUP2 DUP2 GT ISZERO PUSH2 0x3022 JUMPI PUSH2 0x3021 PUSH2 0x2BE8 JUMP JUMPDEST JUMPDEST SWAP3 SWAP2 POP POP JUMP JUMPDEST PUSH32 0x4E6F206C697175696469747920617661696C61626C652C20697473206E6F7420 PUSH1 0x0 DUP3 ADD MSTORE PUSH32 0x706F737369626C6520746F2067657420612070726963652E0000000000000000 PUSH1 0x20 DUP3 ADD MSTORE POP JUMP JUMPDEST PUSH1 0x0 PUSH2 0x3084 PUSH1 0x38 DUP4 PUSH2 0x25F0 JUMP JUMPDEST SWAP2 POP PUSH2 0x308F DUP3 PUSH2 0x3028 JUMP JUMPDEST PUSH1 0x40 DUP3 ADD SWAP1 POP SWAP2 SWAP1 POP JUMP JUMPDEST PUSH1 0x0 PUSH1 0x20 DUP3 ADD SWAP1 POP DUP2 DUP2 SUB PUSH1 0x0 DUP4 ADD MSTORE PUSH2 0x30B3 DUP2 PUSH2 0x3077 JUMP JUMPDEST SWAP1 POP SWAP2 SWAP1 POP JUMP JUMPDEST PUSH32 0x4E6F7420656E6F756768204C5020746F6B656E73000000000000000000000000 PUSH1 0x0 DUP3 ADD MSTORE POP JUMP JUMPDEST PUSH1 0x0 PUSH2 0x30F0 PUSH1 0x14 DUP4 PUSH2 0x25F0 JUMP JUMPDEST SWAP2 POP PUSH2 0x30FB DUP3 PUSH2 0x30BA JUMP JUMPDEST PUSH1 0x20 DUP3 ADD SWAP1 POP SWAP2 SWAP1 POP JUMP JUMPDEST PUSH1 0x0 PUSH1 0x20 DUP3 ADD SWAP1 POP DUP2 DUP2 SUB PUSH1 0x0 DUP4 ADD MSTORE PUSH2 0x311F DUP2 PUSH2 0x30E3 JUMP JUMPDEST SWAP1 POP SWAP2 SWAP1 POP JUMP JUMPDEST PUSH32 0x546F6F206D75636820736C697070616765206F6E204100000000000000000000 PUSH1 0x0 DUP3 ADD MSTORE POP JUMP JUMPDEST PUSH1 0x0 PUSH2 0x315C PUSH1 0x16 DUP4 PUSH2 0x25F0 JUMP JUMPDEST SWAP2 POP PUSH2 0x3167 DUP3 PUSH2 0x3126 JUMP JUMPDEST PUSH1 0x20 DUP3 ADD SWAP1 POP SWAP2 SWAP1 POP JUMP JUMPDEST PUSH1 0x0 PUSH1 0x20 DUP3 ADD SWAP1 POP DUP2 DUP2 SUB PUSH1 0x0 DUP4 ADD MSTORE PUSH2 0x318B DUP2 PUSH2 0x314F JUMP JUMPDEST SWAP1 POP SWAP2 SWAP1 POP JUMP JUMPDEST PUSH32 0x546F6F206D75636820736C697070616765206F6E204200000000000000000000 PUSH1 0x0 DUP3 ADD MSTORE POP JUMP JUMPDEST PUSH1 0x0 PUSH2 0x31C8 PUSH1 0x16 DUP4 PUSH2 0x25F0 JUMP JUMPDEST SWAP2 POP PUSH2 0x31D3 DUP3 PUSH2 0x3192 JUMP JUMPDEST PUSH1 0x20 DUP3 ADD SWAP1 POP SWAP2 SWAP1 POP JUMP JUMPDEST PUSH1 0x0 PUSH1 0x20 DUP3 ADD SWAP1 POP DUP2 DUP2 SUB PUSH1 0x0 DUP4 ADD MSTORE PUSH2 0x31F7 DUP2 PUSH2 0x31BB JUMP JUMPDEST SWAP1 POP SWAP2 SWAP1 POP JUMP JUMPDEST PUSH32 0x5A65726F206C69717569646974792067656E6572617465640000000000000000 PUSH1 0x0 DUP3 ADD MSTORE POP JUMP JUMPDEST PUSH1 0x0 PUSH2 0x3234 PUSH1 0x18 DUP4 PUSH2 0x25F0 JUMP JUMPDEST SWAP2 POP PUSH2 0x323F DUP3 PUSH2 0x31FE JUMP JUMPDEST PUSH1 0x20 DUP3 ADD SWAP1 POP SWAP2 SWAP1 POP JUMP JUMPDEST PUSH1 0x0 PUSH1 0x20 DUP3 ADD SWAP1 POP DUP2 DUP2 SUB PUSH1 0x0 DUP4 ADD MSTORE PUSH2 0x3263 DUP2 PUSH2 0x3227 JUMP JUMPDEST SWAP1 POP SWAP2 SWAP1 POP JUMP JUMPDEST PUSH1 0x0 PUSH1 0x60 DUP3 ADD SWAP1 POP PUSH2 0x327F PUSH1 0x0 DUP4 ADD DUP7 PUSH2 0x2F2C JUMP JUMPDEST PUSH2 0x328C PUSH1 0x20 DUP4 ADD DUP6 PUSH2 0x25BB JUMP JUMPDEST PUSH2 0x3299 PUSH1 0x40 DUP4 ADD DUP5 PUSH2 0x25BB JUMP JUMPDEST SWAP5 SWAP4 POP POP POP POP JUMP JUMPDEST PUSH1 0x0 PUSH1 0x20 DUP3 ADD SWAP1 POP PUSH2 0x32B6 PUSH1 0x0 DUP4 ADD DUP5 PUSH2 0x2F2C JUMP JUMPDEST SWAP3 SWAP2 POP POP JUMP JUMPDEST PUSH1 0x0 DUP2 PUSH1 0x60 SHL SWAP1 POP SWAP2 SWAP1 POP JUMP JUMPDEST PUSH1 0x0 PUSH2 0x32D4 DUP3 PUSH2 0x32BC JUMP JUMPDEST SWAP1 POP SWAP2 SWAP1 POP JUMP JUMPDEST PUSH1 0x0 PUSH2 0x32E6 DUP3 PUSH2 0x32C9 JUMP JUMPDEST SWAP1 POP SWAP2 SWAP1 POP JUMP JUMPDEST PUSH2 0x32FE PUSH2 0x32F9 DUP3 PUSH2 0x26B7 JUMP JUMPDEST PUSH2 0x32DB JUMP JUMPDEST DUP3 MSTORE POP POP JUMP JUMPDEST PUSH1 0x0 PUSH2 0x3310 DUP3 DUP6 PUSH2 0x32ED JUMP JUMPDEST PUSH1 0x14 DUP3 ADD SWAP2 POP PUSH2 0x3320 DUP3 DUP5 PUSH2 0x32ED JUMP JUMPDEST PUSH1 0x14 DUP3 ADD SWAP2 POP DUP2 SWAP1 POP SWAP4 SWAP3 POP POP POP JUMP INVALID LOG2 PUSH5 0x6970667358 0x22 SLT KECCAK256 0xD4 JUMPDEST MCOPY CREATE MSIZE SUB DUP14 0xA6 0xDF PUSH22 0x8F2921A4484BAB2B0F7DBDBEF64D17D69CB8B3C4DD27 PUSH5 0x736F6C6343 STOP ADDMOD SHR STOP CALLER "},"methodIdentifiers":{"addLiquidity(address,address,uint256,uint256,uint256,uint256,address,uint256)":"e8e33700","allowance(address,address)":"dd62ed3e","approve(address,uint256)":"095ea7b3","balanceOf(address)":"70a08231","decimals()":"313ce567","getAmountOut(uint256,uint256,uint256)":"054d50d4","getPrice(address,address)":"ac41865a","name()":"06fdde03","pairPools(bytes32)":"3268c88c","removeLiquidity(address,address,uint256,uint256,uint256,address,uint256)":"baa2abde","swapExactTokensForTokens(uint256,uint256,address[],address,uint256)":"38ed1739","symbol()":"95d89b41","totalSupply()":"18160ddd","transfer(address,uint256)":"a9059cbb","transferFrom(address,address,uint256)":"23b872dd"}}}}}